:020000021000EC
:100000000000042019D0040051D00400258E040003
:1000100055D00400318E0400378E0400000000002B
:10002000000000000000000000000000D9A604004D
:100030005DD004000000000071A7040081A7040047
:10004000B90C0500B96B040063D0040063D0040050
:1000500063D0040063D0040063D0040063D00400C4
:1000600063D0040063D0040063D0040063D00400B4
:1000700063D004004D0E050063D0040069780400CD
:1000800063D0040063D0040063D0040063D0040094
:1000900063D0040063D0040063D0040063D0040084
:1000A00063D0040063D0040063D0040063D0040074
:1000B00063D0040063D004000000000000000000D2
:1000C00063D0040063D0040063D0040063D0040054
:1000D00063D0040063D0040063D0040063D0040044
:1000E00063D0040063D0040063D00400000000006B
:1000F0000000000063D004000000000063D0040092
:1001000010B5054C237833B9044B13B10448AFF351
:1001100000800123237010BD281100200000000082
:10012000D4C3050008B5034B1BB103490348AFF323
:10013000008008BD000000002C110020D4C3050081
:10014000154B002B08BF134B9D46A3F5803A0021A9
:100150008B460F461348144A121A43F049FF0F4BBF
:10016000002B00D098470E4B002B00D09847002062
:10017000002104000D000D48002802D00C4839F081
:1001800045FC43F025FA200029003AF01DF939F02A
:100190003AFC00BF0000080000000420000000003E
:1001A00025A3040028110020981601200D9A0400B0
:1001B00000000000002070470020704710B5054B7C
:1001C000044640F80C3B06F091F8204601F056F842
:1001D000204610BD207A050010B50446FFF7EEFF5B
:1001E0002046182139F04EFE204610BD10B5034BB5
:1001F0000360044600F044FE204610BD007A05006E
:1002000010B50446FFF7F2FF20460C2139F03AFE04
:10021000204610BD10B5034B03600446FFF7E6FF10
:10022000204610BD107A050010B50446FFF7F2FF16
:1002300020460C2139F026FE204610BD10B5064B95
:10024000064C1968204600F0B1F92046044A0549D9
:10025000BDE8104039F0D5BB147C05004C110020DE
:10026000000200206D0301001FB540F6B83133488D
:1002700000F0AFFA4FF4E131304800F087FB012184
:100280002E4800F091FA50B12D492E4805F0E6FEB7
:100290002A480A2100F040FA284800F099FA002183
:1002A0002648012200F0F4FA0121244800F07CFAEB
:1002B00030B12549234805F0D1FE204800F088FAE6
:1002C0002248234C05F0F2F94FF41651204807F06C
:1002D00031F9012005F0B8FD204607F005FA0028A5
:1002E000F7D01C4B1C68236820469B68984720B9B0
:1002F0001949144805F0CAFEFEE71849114805F0EF
:10030000ADFE236821461B6A01A8984701A90D4844
:1003100005F0B2FE01A805F0E9FF114800F070F900
:100320001049084805F0B2FE236820465B6D9847E7
:100330000D49044805F0AAFE04B010BD701100205C
:10034000A07A0500DC240020B17A0500CC1600203C
:10035000A4230020147C0500B87A0500CB7A0500A0
:100360004C110020DD7A0500F57A050010B5044631
:100370001430FFF74FFF04F1080000F07FFF204624
:1003800010BD000070B5A2B005F04CFD002835D0BE
:10039000744800F0C4F9744B1860744B1A689042AA
:1003A000C0F08F801A68821AF92A2BD918604FF48E
:1003B000FA716C4800F0C8FA01216A4800F0F4F9BB
:1003C000A0B10121674800F0ADF96949694805F01D
:1003D00045FE05F027FD0A220146664805F07DFE30
:1003E000604800F0D9F95F4800F0F2F902215D4859
:1003F00000F092F95B4800F0B6FA03E005F012FD58
:100400000128C5D85C4B5D4E19680B680FA81B6F9F
:1004100098475B4903A805F0AFFF09A800F056FF15
:10042000584B574909930CA805F0A6FF0FA800F0F8
:10043000F9FD002878D0012353494E48337005F068
:100440000DFE0FA906A800F0D3FD06A949484F4CA0
:1004500005F012FE06A805F049FF4D4906A805F073
:100460008BFF06A94B4800F0DDF806A805F03EFF1B
:1004700004F59C750FA800F0F5FD002854D0D4F8C1
:100480005032B3F5807F1ED0204607F00FF9D0B16F
:10049000204606F061FFD4F85032B3F5807FEED0ED
:1004A000D4F84832234483F84801D4F84832013361
:1004B000DBB2C4F84832D4F850320133C4F85032B9
:1004C000DDE718606EE7D4F8503243B3294606A83A
:1004D00005F0F8FE06A903A805F0A4FF06A805F09C
:1004E00005FF2D49284605F0B9FD03A9284605F06A
:1004F000C3FD2A4903A805F0EDFF80B1284928462D
:1005000005F0C4FD0121274800F09CFA41F03EFDB2
:100510000223009302460B46284605F0B1FE4FF435
:10052000FA7005F091FCA5E7337883B11E491148B4
:1005300005F094FD0FA906A800F05AFD06A90D4884
:1005400005F09AFD06A805F0D1FE0023337009A836
:10055000FFF734FE03A805F0C9FE0FA800F005FD63
:1005600022B070BD701100204411002048110020FD
:10057000307A0500DC240020147C05006C1100207A
:10058000A0B30500207A0500327A0500A4230020DC
:10059000527A05004C1100205E7A05008FAF0500ED
:1005A000717A0500B8110020887A0500F8B5044674
:1005B000002300F108050370416004F114060D49A1
:1005C0000D4F284600F09AFE12220C49304600F0EA
:1005D000BBFE6068036839469B6C98476068036897
:1005E0003946DB6B98472846314600F0A5FE204689
:1005F000F8BD00BF157B05001F7B05001A7B0500B9
:1006000038B504464068036804F108052946DB6AEA
:1006100098476068036829461B6D9847012323703B
:10062000022038BD1FB508460C4605F080FF07497B
:1006300001A805F0A1FE01A9204605F03EFF01A892
:1006400005F054FE002004B010BD00BF527A050032
:1006500010B50446D4F85032B3F5807F1DD0204643
:1006600007F024F8C8B1236820465B6C9847D4F89B
:100670005032B3F5807FEDD0D4F84832234483F86C
:100680004801D4F848320133DBB2C4F84832D4F818
:1006900050320133C4F85032DCE710BD10B50446C7
:1006A000FFF7D6FFD4F8503283B1D4F84C3223444C
:1006B00093F84801D4F84C320133DBB2C4F84C3221
:1006C000D4F85032013BC4F8503210BD4FF0FF3027
:1006D000FBE7A0F59C70E1E710B50446FFF7B8FF13
:1006E000D4F850322BB1D4F84C321C4494F8480161
:1006F00010BD4FF0FF30FBE7A0F59C70ECE738B57C
:100700000C4605F08FFB0546044405F08BFB854243
:1007100001D88442F9D238BD0122FFF7F0BF05F0BD
:1007200081BB0000F8B505460E4605F07BFB164C74
:1007300016490746204605F091FC0A22314620461C
:1007400005F0D8FC124E1349204605F087FC0A221A
:100750003946204605F0C1FC3146204605F07EFCB6
:10076000A9680A22791A204605F0B7FC31462046CE
:1007700005F074FCD5E902132046C91A0A22BDE827
:10078000F84005F0AABC00BFDC2400203E7B050039
:10079000477B0500457B05000149024805F076BC12
:1007A000377B0500DC24002010B5044659B905F05C
:1007B00039FB6168411A182905D80122C1F11901D4
:1007C0002046FFF79CFF05F02DFB6060012010BD67
:1007D000704700224264426009B1FFF79DBF704735
:1007E00070B505460E4605F01DFB0A4C68600A49C7
:1007F000204605F033FC31460A22204605F07AFCFB
:100800000649204605F042FC28463221BDE87040EA
:10081000FFF782BFDC240020297B0500307B050028
:100820002DE9F041037E0646884603B3174D28465E
:10083000FFF70EFFD5F8503213F0FF0F19D02F46F7
:100840003846FFF705FFD5F8503213F0FF0F10D0F0
:100850003846FFF723FFC4B2682C08D00CDC582CB4
:1008600010D0632CECD141463046FFF7B9FF63202E
:1008700000E06520BDE8F081712CF8D0762CDFD146
:100880002046F7E700233376F1E700BFA4230020DA
:1008900038B50446154661B1012303760021204690
:1008A000FFF7BEFF632804D001212046FFF734FF85
:1008B000F4E7257638BD000008B50248FFF7EEFEE4
:1008C000C0B208BDA423002073B504461D48FFF73D
:1008D00003FFC0B2642833D12046FFF7EDFF19486B
:1008E000184EFFF7DBFE0DF10305C0B23A2806D023
:1008F00005F8010F3046FFF7D1FEC0B2F6E701A8B8
:1009000042F094F805460F48FFF7C8FEC1B23039EF
:10091000012903D8C9B2E8B205F018FB094D2846F1
:10092000FFF7BCFEC0B20A2801D00D28F7D1054858
:10093000FFF7D2FEC0B20A2802D12046FFF7BCFF63
:1009400002B070BDA423002010B50023436183686A
:100950000161C360044605F065FAA0602046BDE869
:100960001040FFF7B1BF10B50446FFF7ADFF05F02B
:1009700059FAA06010BD0000034B0022C3E9022217
:10098000C3E90422704700BF7011002010B54FF476
:100990007A700C4605F058FA21460248BDE810402E
:1009A00006F0C8BDA423002070B5044600680368A3
:1009B0000D46DB6A5F2198472068036829461B685B
:1009C00098472068036800211B6B984768B9206826
:1009D00003680122DB6B5F219847012805D120685D
:1009E0000368BDE870405B6918474FF0FF3070BD89
:1009F00070B506460C46FFF7D7FF611C0546C9B225
:100A00003046FFF7D1FF45EA002070BD70B50446BF
:100A1000006803680E46DB6A5F2115469847206828
:100A2000036831461B6898472068036829461B689D
:100A30009847206803685B6B9847B0FA80F04009DC
:100A400070BD000038B501220D4621210446FFF794
:100A5000DDFF27212046FFF7A7FFC30702D405F0DB
:100A6000FBF9F6E72A212046FFF7C2FF00B207EEA6
:100A7000900AD4ED036AB8EEE77AD4ED047AE7EE93
:100A8000267A9DB917EE900A41F080FA0022094BB0
:100A900041F0D4FA0022084B41F0FAFB0022074B48
:100AA00041F016F941F09AFD07EE900A17EE900A10
:100AB00038BD00BF0000224000001440000040404C
:100AC000014B024A1A607047B8110020C419002077
:100AD000704710B55C21044639F0D4F9204610BDAA
:100AE0000B4A02601F210022C0E90921C0E90B2244
:100AF00080F8342080F83520C0E90E220264A0F886
:100B0000442080F84620C0E91222C0E9152270472F
:100B1000547B05008B6A8362CB6AC3620B6B0363F1
:100B200091F8343080F8343091F8353080F8353031
:100B30008B6B8363CB6BC3630B6C0364B1F8443082
:100B4000A0F8443091F8463080F846308B6C8364CE
:100B5000CB6CC364B1F85030A0F850304B6D436596
:100B60008B6D8365704708B5FFF7D4FF08BD70B57E
:100B7000054686B068460E4603F0DAF9EC6C684626
:100B8000002CCCBF0234002403F00FFA0230241AE8
:100B9000A86A241808D4AC62AE64684603F005FA6B
:100BA000E864012006B070BD0020FBE710B5036CBF
:100BB00023B190F84640023304B10233941C1B1B4E
:100BC000846A1B1958BFC0E90F124FF000045BBFC5
:100BD00080F8464083622046012010BD30B5046C89
:100BE00024B190F84650023405B102341D1D641B37
:100BF000856A64195FBFC0E90F230123A0F8441080
:100C000080F8463056BF84620020184630BD30B5AB
:100C1000846D002CCCBF043400241D1D641B856A28
:100C200064195DBFC0E91523A0F85010846200204C
:100C300058BF012030BD70B50546806B0E4688B1A7
:100C4000047814B143F05CFE841C304643F058FE37
:100C50000230241AA86A24185DBFAC62AE6301207A
:100C6000002070BD0446F0E790F83530826A002B12
:100C70000CBF6FF0020300239B185FBF8362012348
:100C800080F8353080F8341054BF18460020704783
:100C900004307047406A704790F83500704738B5A7
:100CA0000446406AC0F11F039342154608DB043036
:100CB000204443F09FF8626A2A446262012038BDF2
:100CC0000020FCE770B50446406A0E461D461146FA
:100CD0000233C0F11F029A420FDB23186A1C1A71FB
:100CE000821C0630626220445E712A4643F082F81C
:100CF000636A2B446362012070BD0020FCE770B57D
:100D000086B00546684603F013F9684603F04DF9CE
:100D1000022804466846CCBF0626022603F043F9A3
:100D20002346024631462846FFF7CCFF06B070BD89
:100D300013460A46FF21FFF7C5BF70B588B008AC5F
:100D4000064624F8201D10461D461A4601460DF1A0
:100D5000020043F04FF8AB1C2246FF213046FFF75C
:100D6000B1FF08B070BD70B588B008AC064624F875
:100D7000201D10461D461A4601460DF1020043F0A3
:100D800039F8AB1C224616213046FFF79BFF08B00E
:100D900070BD07B502AA012302F8011D1946FFF72D
:100DA00091FF03B05DF804FB70B5054610460E4692
:100DB000144643F0A5FD2246034631462846BDE8C9
:100DC0007040FFF77FBF70B5054608460C4643F0FC
:100DD00097FD1D2807D9224628461D230821BDE876
:100DE0007040FFF76FBF224628460921BDE87040DA
:100DF000FFF7DABF38B5C16A00230546436229B15F
:100E0000026B1AB1BDE83840FFF749BF95F835309D
:100E10007BB395F834102846FFF7BBFF0446A96C56
:100E200021B12846FFF76BFF0440E4B2E96B61B1E2
:100E30002B6C53B195F84620EAB10A462846B5F81E
:100E40004410FFF77AFF0440E4B26A6D42B1AB6D23
:100E500033B1B5F850102846FFF785FF0440E4B2DF
:100E6000A96B21B12846FFF7AEFF0440E4B220464B
:100E700038BD0124D3E71A462846FFF759FFE2E7B9
:100E80000D4B10B504460360406840B100F09EFA77
:100E9000002804DC606810B103685B689847A068AC
:100EA00040B100F0A6FF002804DCA06810B1036880
:100EB0005B689847204610BD647B050010B504466A
:100EC000FFF7DEFF20460C2138F0DCFF204610BD86
:100ED000064B10B5C0E9003100230446836011B110
:100EE000084600F06EFA204610BD00BF647B050086
:100EF000064B10B5036000230446C0E9013111B16F
:100F0000084600F071FF204610BD00BF647B05005D
:100F10002DE9F3410446542098460E46174638F012
:100F20007FFF9DF820300093054643463A46314600
:100F300000F01EFB29462046FFF7CAFF204602B0FC
:100F4000BDE8F08110B4446824B120465DF8044B3C
:100F500000F04EBA806818B15DF8044B00F070BF25
:100F60005DF8044B7047406870477047024B186843
:100F700003681B69184700BFAC7E0500024B186868
:100F800003685B69184700BFAC7E050010B4054BD1
:100F900001791B681A685469421D184623465DF89A
:100FA000044B1847247D050010B50B4B0446186808
:100FB00021790368621D9B6A98474FF6FF73984238
:100FC000014606D0054B18680268BDE81040526A19
:100FD000104794F94B0010BD247D0500AC7E050040
:100FE00010B54C21044638F04DFF204610BD0000DE
:100FF00010B58AB0044648794B7A8A7A039088798A
:101000000290C8790190097A009105A8044943F03B
:1010100011FA05A9204605F0AFF920460AB010BD27
:101020006C7B050007B50023062269460530009356
:10103000ADF8043042F0ACFE003018BF012003B020
:101040005DF804FB08B502790B799A4208D10622B3
:101050000531053042F09CFEB0FA80F0400908BD31
:101060000020FCE710B50A4B0446186803681B69AA
:101070009847236820461B6A984740B1054B217961
:1010800018680368621D5B6BBDE81040184710BD0F
:10109000AC7E0500247D050008B502790B799A42E3
:1010A00008D106220531053042F072FE003018BF2B
:1010B000012008BD0120FCE7064A02607F210022D2
:1010C000C272027380F84B10C0F80520A0F8092006
:1010D000704700BF947B050010B501710021C172FB
:1010E0000173064C04607F2180F84B101168C0F832
:1010F00005109288A0F8092010BD00BF947B050060
:101100002DE9F0410F461449064605F035F93A7BC2
:1011100000218A421CDD7B1801F10208597B9B7B70
:10112000083B012B01F1FF340FD82146304605F072
:10113000FCF80025AC420BDD08EB05033B443046D0
:10114000597B05F098F90135F4E704EB0801E0E775
:101150003046BDE8F08100BFA0B305002DE9F04F97
:1011600085B0884622490192834605F005F900249E
:10117000A14698F80C30A34235D908EB0403671C4C
:10118000FFB25E7B08EB07035B7B9A1E012A25D921
:10119000063B012B24D810250234E4B205FB05F3ED
:1011A0000D34009344444FF0000A731EEAB25345D5
:1011B00016DD019989450BD1114620460393029211
:1011C00002F0F6FE0146584605F034F9DDE9022347
:1011D000009909F10109AA440C44E8E70225DBE77C
:1011E0003E44F4B2C5E7584605B0BDE8F08F00BFF5
:1011F000A0B3050010B500220446FFF7AFFF20465C
:1012000010BD08B5134602798A4208D10622194654
:10121000053042F0BDFDB0FA80F0400908BD002065
:10122000FCE710B50446012000FA01F1E1722273D7
:10123000194604F10D0042F0DDFD9DF9083084F8F7
:101240004B3010BD70B50D461146C27A42F0100207
:101250000446C272007B0D302A4620441E4642F0EE
:10126000C9FD237B84F84B601D44257370BDC37A90
:1012700013F0180F14BF0120002070470D4B10B55C
:1012800004460360406840B100F0A0F8002804DC88
:10129000606810B103685B689847A06840B100F0CF
:1012A000A8FD002804DCA06810B103685B689847BB
:1012B000204610BDC87B050010B50446FFF7DEFFD1
:1012C00020460C2138F0DEFD204610BD024A0260A7
:1012D0000022C0E901227047C87B0500064B10B50B
:1012E000C0E9003100230446836011B1084600F0D4
:1012F00068F8204610BD00BFC87B050070B50446E5
:1013000030200E4638F08CFD3146054600F0ACFC2E
:1013100029462046FFF7E2FF204670BD034640689D
:1013200008B100F045B8986808B100F05BBD01480D
:10133000704700BFA0B30500406808B100F0D2BC00
:10134000704740687047000030B585B001250446FD
:1013500000950423FFF7DCFD04A9074B236000235D
:1013600041F8043D04222B462046FFF7EBFD034BDA
:101370002360204605B030BD007A0500107A0500D4
:1013800070470020704710B52021044638F07AFDE0
:10139000204610BD10B5054B044640F8043B02F052
:1013A000C7FD0023E361204610BD00BFD87B0500C8
:1013B000043002F0F6BD043002F0F5BD043002F056
:1013C000F4BDC3690133C36118467047C369013B6B
:1013D000C3611846704742F60300704790F820003A
:1013E0007047406A7047806A7047808D7047000080
:1013F000F8B51546426AAA42A8BF2A460446828525
:1014000092B2806A0E4642F0F5FC94F82E300BB191
:10141000636AA38594F8203098060DD5A28E9107B3
:101420000AD51F4B218E18680368DD6C0131A38D2E
:10143000A26A89B2A847F8BDDA0609D5A38EDB07F0
:1014400006D5174B218E1868036801319D6CEEE7B5
:1014500094F832300BB90120EDE7124B186803689D
:1014600021465B6A9847104B1C68236801461F6B36
:1014700032462B462046B847094B186803681B6B59
:1014800098470028E7D1094B186803689B6898477C
:101490000028E0D0236820465B6D9847DBE700BF5B
:1014A000247D05004C7E0500147C0500007E0500AF
:1014B00038B5054608460C4643F022FA2146024656
:1014C0002846BDE83840FFF793BF01867047008E7D
:1014D0007047008E013080B27047806B7047836B1D
:1014E000994208D2C36B0022914202D05B6801325C
:1014F000FAE71868704700207047000030B5114BBC
:1015000003600B7903710B4601F1490453F8052F71
:10151000C0F805209B88A0F80930CB7AC3720B7BFA
:10152000037300F10D0201F10D0353F8045B42F85F
:10153000045BA342F9D11B88138091F94B3080F8EA
:101540004B3030BD947B050038B5044608200D466D
:1015500038F066FC0023C0E9005363682BB9606073
:101560002368A0600133236038BDA3685860F7E7A3
:1015700070B504461D461646FFF70CFFB5F5007F13
:101580001A4B23602B46A8BF4FF4007300216362FF
:101590009DF8103084F82060A18584F82E302186D3
:1015A00084F8321084F83310A186C4E90E11216446
:1015B000102204F1440042F01BFD16F0300F0ED053
:1015C0002C2038F02DFC0A490646022304F134028F
:1015D00000F0D6F8314604F13800FFF7B5FF284691
:1015E00042F0B6F8A062204670BD00BFF47B050053
:1015F000E47B050070B50446406800252368AB42D3
:1016000006D94668082138F03DFC01353046F5E73B
:101610000023C4E90033A36070BD0000164B70B511
:10162000044603600025A36B9D4213D2E36B0022A6
:10163000954202D05B680132FAE71E683046FFF738
:10164000C5FE002804DC1EB1336830465B6898474D
:101650000135E8E704F138052846FFF7CBFFA06A1B
:1016600008B142F07DF82846FFF7C4FF2046FFF797
:1016700087FE204670BD00BFF47B050010B5044610
:10168000FFF7CCFF2046542138F0FCFB204610BD6C
:10169000F0B5C56C97B0044617461E467DB103A849
:1016A000FFF72CFF21466846FFF712FC694603A8A6
:1016B000A8476846FFF7E4FB03A8FFF756FCA16ABA
:1016C0001C9A3944304642F095FB17B0F0BD70B516
:1016D00004460E461146012280F8332096B01A4681
:1016E000FFF786FE256D85B1314603A8FFF706FF9B
:1016F00021466846FFF7ECFB694603A8A847684601
:10170000FFF7BEFB03A8FFF730FC16B070BD30B585
:10171000838E02F00302934297B0044617D082866C
:10172000002A0CBF44224022024455687DB103A820
:10173000FFF7E4FE21466846FFF7CAFB694603A8A7
:10174000A8476846FFF79CFB03A8FFF70EFC17B0FD
:1017500030BD4FF42450704710B5034B036004466E
:10176000FFF70EFE204610BD087C050010B50446AC
:10177000FFF7F2FF20462C2138F084FB204610BDF5
:1017800070B504461D461646FFF704FE064B23605F
:10179000B5F5007FA8BF4FF400750023266265628F
:1017A0002385204670BD00BF087C0500406A704755
:1017B000006A704701857047064B1868036810B5CA
:1017C000DB689847044B18680368BDE81040DB6885
:1017D000184700BF4C7E0500AC7E0500024B186820
:1017E00003681B69184700BFAC7E0500024B1868F0
:1017F00003685B69184700BFAC7E050010B5064B57
:10180000186803681B699847044B18680368BDE8AB
:1018100010401B6B184700BFAC7E0500247D0500FF
:10182000024B186803681B6C184700BF247D050035
:101830000430704760307047024B186803681B69BA
:10184000184700BF4C7E0500024B186803685B69AF
:10185000184700BF4C7E0500024B186803689B695F
:10186000184700BF4C7E0500024B186803681B69CF
:10187000184700BF007E0500024B186803685B69CB
:10188000184700BF007E0500024B186803685B6ABA
:10189000184700BF007E050010B5074B04461868C6
:1018A00003681B699847054B19680B6820465B6CF9
:1018B0009847204610BD00BFAC7E0500247D050082
:1018C00010B5074B0446186803681B699847054B19
:1018D00019680B6820469B6A9847204610BD00BFD8
:1018E000AC7E0500007E0500024B18680368DB6AC9
:1018F000184700BF007E0500024B186803685B694B
:10190000184700BF1C800500024B186803689B69DC
:10191000184700BF1C800500024B186803681B6B4A
:10192000184700BF007E0500024B18680368DB689B
:10193000184700BF247D0500024B186803681B6E22
:10194000184700BFAC7E0500024B186803685B6E49
:10195000184700BFAC7E0500F0B5264B1D682B680C
:1019600087B004469B6828469847064620B92368F6
:101970002046DB6898470DE0642004F065FA2B6888
:1019800028469B699847064638B123682046DB689D
:1019900098470026304607B0F0BD05AA2B68019293
:1019A0000DF112020092DF6904AA0DF10E030DF190
:1019B0000D012846B8470028D9D12B684FF0FF32D7
:1019C000996A28466FF04043884706460028DCD1D4
:1019D0002B680DF10F02DB6A0DF1160128469847BE
:1019E0000028C4D1044B186803689B6898470126F7
:1019F000D0E700BFAC7E05004C7E050010B58CB072
:101A000000230593ADF81830104B0446186803689E
:101A100005A91B6A98479DF8141003919DF81510AD
:101A200002919DF8161001919DF817109DF818303D
:101A30009DF81920009107A8054942F0FBFC07A971
:101A4000204604F099FC20460CB010BDAC7E050089
:101A50006C7B05000430FFF78AB870B50368044654
:101A600008469D6AFFF75AFC2B4601462046BDE812
:101A7000704018470430FFF7CAB80430FFF796B833
:101A80000430FFF7ABB86030FFF7D5B86030FFF730
:101A90006AB810B5041D2046FFF765F82046FFF729
:101AA000FBF828B920460621BDE81040FFF7DCB856
:101AB00010BD00002DE9F743051D0446603428469B
:101AC000FFF798F92046FFF795F90E4B1E6833682B
:101AD0002846DF68FFF7DCF880462846FFF7DAF88B
:101AE00005462046FFF7D4F881462046FFF7D2F896
:101AF000C0B200904B46EAB241463046B84703B008
:101B0000BDE8F083007E05007FB5094B1C682368A3
:101B1000164601A89D6904F07BFC324601A92046C7
:101B2000A847044601A804F0E1FB204604B070BDBC
:101B3000007E05007FB5094B1C682368164601A886
:101B4000DD6904F065FC324601A92046A847044639
:101B500001A804F0CBFB204604B070BD007E050058
:101B60007FB5094B1C682368164601A81D6A04F05E
:101B70004FFC324601A92046A847044601A804F0BC
:101B8000B5FB204604B070BD007E050002290BBFE6
:101B9000044B054B186818680BBF036803685B6B40
:101BA0001B6D1847007E0500247D050038B50446EE
:101BB000084B44F8043B05462046FEF791FF05F12B
:101BC0006000FEF78DFF06212046FFF74DF82846FE
:101BD00038BD00BF207C050010B5054C2046FFF73E
:101BE000E5FF2046034A0449BDE8104037F009BF2D
:101BF000CC11002000020020FD1B010010B5054B98
:101C0000044640F8603BFEF763FF201DFEF760FFCF
:101C1000204610BD207C050010B50446FFF7EEFFFE
:101C20002046BC2138F02EF9204610BD10B50B4BD4
:101C300019680B6894B001A85B6C984701A8FFF77E
:101C4000F1F948B101A8FFF7AFF9044601A8FFF781
:101C50008CF9204614B010BD7F24F7E7247D0500E1
:101C60004FF420507047000010B50446FFF792FB78
:101C7000044B23600023C4E90833C4E90A33204637
:101C800010BD00BFC87C0500018442847047008CF1
:101C90007047408C7047406A7047436A994208D247
:101CA000836A0022914202D05B680132FAE7186829
:101CB00070470020704738B5044608460D46FFF7C8
:101CC00080FB082038F0ACF80023C0E90053A36A79
:101CD0002BB9A062636AE0620133636238BDE36AD4
:101CE0005860F7E710B504460846FFF73CF901468F
:101CF00020B12046BDE81040FFF7DDBF10BD70B534
:101D00000446406800252368AB4206D9466808218E
:101D100038F0B8F801353046F5E70023C4E9003360
:101D2000A36070BD144B70B5044603600025636A60
:101D30009D4213D2A36A0022954202D05B68013211
:101D4000FAE71E683046FFF741FB002804DC1EB1AD
:101D5000336830465B6898470135E8E704F12405AD
:101D60002846FFF7CCFF2846FFF7C9FF2046FFF7BC
:101D700007FB204670BD00BFC87C050010B50446B7
:101D8000FFF7D0FF2046302138F07CF8204610BD08
:101D900010B5044B044640F8043B04F0A7FA204673
:101DA00010BD00BFDC7C050010B50446FFF7F0FF56
:101DB0002046142138F066F8204610BD38B5044698
:101DC0002546074B45F8043B0846114602F0F0F85B
:101DD0000146284604F0D0FA00232361204638BD8E
:101DE000DC7C0500406870470369013303611846D5
:101DF00070470369013B03611846704738B50446D4
:101E00001D46FFF7DBFF0D4B2360BDF81030E3826A
:101E10009DF814302376BDF8183063830122002327
:101E2000A582C4E9073384F8243084F82520C4E966
:101E30000A33C4E90C33204638BD00BFEC7C0500F2
:101E40002DE9F0439846274B1E68336885B0044659
:101E50000F469B6B818A30469146984718B90020FF
:101E600005B0BDE8F0833368A18ADB6B3046984744
:101E7000033885B24D45A8BF4D462946E06942F07A
:101E800017F9E0610028EAD0237E1A071CD5B8F1C3
:101E9000000F19D003A833680190E8B20090D3F87E
:101EA0005880628BA18A3B463046C0470028D7D075
:101EB0009DF80C30012BD2D02A463946E06941F01A
:101EC00099FF25620120CBE75B07C8D53368628B99
:101ED000A18AE8B20090D3F85C8030463B46C04708
:101EE000EAE700BF247D0500408B704738B5044603
:101EF00008460D46FFF778FF082037F091FF0023D2
:101F0000C0E90053E36A2BB9E062A36A206301339E
:101F1000A36238BD236B5860F7E770B5044640688C
:101F200000252368AB4206D94668082137F0AAFF8E
:101F300001353046F5E70023C4E90033A36070BDE6
:101F400003688B4208D9436800228A4202D05B684A
:101F50000132FAE71868704700207047F8B5054667
:101F6000144B45F8283B04460026A36A9E420FD234
:101F700031462846FFF7E4FF0746FFF73AFF0028FF
:101F800004DC1FB13B6838465B6898470136ECE7D4
:101F90002846FFF7C2FFE06918B141F0E1FB0023DA
:101FA000E3612846FFF7B9FF2046FFF7F1FE204620
:101FB000F8BD00BFEC7C050010B50446FFF7CEFF6E
:101FC0002046382137F05EFF204610BD70B504462C
:101FD000036296B00D46C0691946164642F068F88D
:101FE000E06110B9206216B070BD012384F824307E
:101FF0000023314684F82530226A41F0FBFE666BEF
:10200000002EF0D0194B03932B798DF810302B460E
:1020100005F1490153F8052FCDF811209B88ADF843
:102020001530EB7A8DF817302B7B8DF818300DF1C9
:10203000190205F10D0353F8040B42F8040B8B420F
:10204000F9D11B88138095F84B308DF85730214615
:102050006846FEF74DFF694603A8B0476846FEF79D
:102060000FFF03A8FEF781FFBDE700BF947B0500CB
:10207000074B10B504460360806918B141F070FB4E
:102080000023A3612046FFF783FE204610BD00BF5A
:10209000FC7C050010B50446FFF7EAFF204620212E
:1020A00037F0F0FE204610BD38B504461D46FFF758
:1020B00085FE054B2360BDF81030E3820023A58226
:1020C000C4E90633204638BDFC7C0500034A0260A3
:1020D0000022C0E90122C260704700BF0C7D0500EC
:1020E00038B5044608460D46FFF77EFE082037F057
:1020F00097FE0023C0E90053A3682BB9A060636872
:10210000E0600133636038BDE3685860F7E740681A
:1021100070474368994208D283680022914202D0F6
:102120005B680132FAE7186870470020704770B5A5
:102130000446406800252368AB4206D9466808215A
:1021400037F0A0FE01353046F5E70023C4E900333F
:10215000A36070BD70B50646002473689C4213D21C
:10216000B3680022944202D05B680132FAE71D682E
:102170002846FFF73EFE002804DC1DB12B682846E8
:102180005B6898470134E8E7301DFFF7D0FF70BD6A
:1021900038B50446054B44F8043B0546FFF7DAFF23
:1021A0002046FFF7C4FF284638BD00BF0C7D050060
:1021B00010B50446FFF7ECFF2046102137F062FE11
:1021C000204610BD38B504461D46FFF7F7FD084B05
:1021D0002360BDF81030E382A582064904F118009F
:1021E00004F0CAF80023C4E90933E362204638BD8D
:1021F0001C7D0500A0B30500808A7047C08A704727
:10220000406A7047436A994208D2836A0022914229
:1022100002D05B680132FAE7186870470020704707
:1022200038B5044608460D46FFF7DEFD082037F0B6
:10223000F7FD0023C0E90053A36A2BB9A062636ACB
:10224000E0620133636238BDE36A5860F7E770B556
:102250000446406800252368AB4206D94668082139
:1022600037F010FE01353046F5E70023C4E90033AE
:10227000A36070BD164B70B5044603600025636A09
:102280009D4213D2A36A0022954202D05B680132BC
:10229000FAE71E683046FFF7ACFD002804DC1EB1EB
:1022A000336830465B6898470135E8E704F1240558
:1022B0002846FFF7CCFF2846FFF7C9FF04F11800B6
:1022C00004F014F82046FFF763FD204670BD00BF00
:1022D0001C7D050010B50446FFF7CCFF20463021D9
:1022E00037F0D0FD204610BD818070478160704777
:1022F0002DE9FF41013A13F8014BD6B20268CDE94E
:102300000233D26B05460F4690470C2C02462968D3
:10231000029B73D02ED8052C65D019D8022C5ED024
:102320000BD8012C52D006230093D1F8B8600023BB
:10233000224639462846B04768E0032C51D0042C89
:10234000F1D100930C6F334639462846A0475DE033
:10235000092C4DD007D8062C47D0082CE3D1009388
:10236000D1F88040EFE70A2C48D00B2CDBD1D1F814
:1023700090402CE0162C4CD00FD8112C3BD005D817
:10238000102CD0D10093D1F89440DCE7122C18D057
:10239000132CC8D1D1F8A44019E01D2C04D00CD8BE
:1023A000182C3AD01B2CBED10093D1F8B080334604
:1023B000224639462846C04728E01E2C31D0522CF0
:1023C000B1D1CDE90063D1F8A0601BE00C6E3246BC
:1023D00039462846A44604B0BDE8F04160474C6E3B
:1023E000F5E7CC6EF3E78C6FF1E70093CC6FAAE7CB
:1023F000D1F88840EBE7D1F89C40E8E7CDE90063ED
:10240000D1F88C60234639462846B04704B0BDE871
:10241000F0810093D1F8A84095E70093D1F8AC4043
:1024200091E7D1F8B440D2E782894FF6FF739A4220
:1024300007D1838B934204D1808DC01A18BF01202D
:1024400070470120704708B503689B6A98474FF6AC
:10245000FF73C01A18BF012008BD000038B50A4B31
:102460000546186803681B690C469847AB89A34268
:1024700007D0AB8BA34204D0A88D031B5842584110
:1024800038BD0120FCE700BFAC7E050083898B428C
:102490000AD0838B8B4209D0838D8B4208D10223D3
:1024A00000EB0310C08A70470023F9E70123F7E728
:1024B000172070471FB5ADF80D2002680093022465
:1024C0008DF80C400323D2F8CC4003AAA04704B0F7
:1024D00010BD1FB5ADF80920ADF80B30069A0368A2
:1024E000009204248DF8084002AAD3F8CC400523BA
:1024F000A04704B010BD1FB5ADF80B30BDF81830C3
:10250000ADF80920ADF80D30079A03680092102449
:102510008DF8084002AAD3F8CC400723A04704B0A6
:1025200010BD1FB5ADF80B30BDF81830ADF809205F
:10253000ADF80D30079A0368009208248DF8084022
:1025400002AAD3F8CC400723A04704B010BD012352
:1025500080F83C30704700001FB5ADF80A309DF898
:1025600018308DF80C30084B8DF8092001208DF8BB
:102570000800186802AA036800929C6D04220523D3
:10258000A04704B010BD00BFAC7E050001299CBF70
:1025900000EB8100426570471FB5ADF80D20026861
:1025A00000930A248DF80C400323D2F8CC4003AAF0
:1025B000A04704B010BD00002DE9F843DFF85C80AF
:1025C00000F1100400F1400500264FF6FF774FF0B0
:1025D000170934F8041CB94217D0D8F80000036872
:1025E000DB6D984788B904F8020C04F8010C2060F0
:1025F000A080A06824F8047C0136A4F8069010B1ED
:1026000003685B6898470023A3601034AC42E0D1B4
:10261000002ED4BF00200120BDE8F883AC7E050069
:1026200010B5044B03600446006C08B141F098F803
:10263000204610BD307D050010B50446FFF7F0FFC1
:1026400020465C2137F01EFC204610BD2DE9F043EA
:102650001C4B1D688BB006230F46042100249046B6
:102660002A680097CDE90713C821CDE905410C215F
:10267000CDE90331CDE901840646D2F84C902346DA
:10268000302260212846C847D0B903F0CBFB04466E
:1026900003F0C8FBB368001B98422B680DD21B697E
:1026A00028469847336842465B6B39463046984720
:1026B0000028EDD00BB0BDE8F0835B6D284698474D
:1026C0000020F7E7AC7E0500F8B503689B6A044676
:1026D00098474FF6FF73984206461CD00F4B1D6873
:1026E0002B680146DB6D2846984703F09BFB0746A5
:1026F00003F098FBA368C01B98420CD22B682846B5
:102700001B699847236831469B6B204698470028F1
:10271000EED10120F8BD0020FCE700BFAC7E050033
:102720002DE9F3410546089CA5F848101078EC64A3
:10273000013085F84A00002085F8500018480668E6
:1027400030680092D0F85880DBB2042230460F4641
:10275000C0471CB303F066FB044603F063FBAB68A1
:10276000001B984214D2336830461B6998472B6887
:1027700039469B6B2846984750B195F85000002881
:10278000EBD04FF6FF73A5F8483002B0BDE8F081FA
:102790004FF6FF73A5F848300020F6E72046F4E72F
:1027A000AC7E05002DE9F047994603689B6A044614
:1027B00098474FF6FF739842054604D14FF0000842
:1027C0004046BDE8F08723680146D3F8BC30204678
:1027D000984780460028F1D0A389AB4236D0A38B1E
:1027E000AB4235D0A38DAB42E8D1022604EB0616EE
:1027F000B36933B9102037F013FB0746FFF766FCC7
:10280000B761B669002ED9D03046B9F1000F21D199
:10281000FFF7A0FC23683246D3F8C07029464B4628
:102820002046B8470028C9D023683246D3F8C430C0
:102830002946204698470028C0D0236832462946BA
:102840002046D3F8C830BDE8F04718470026CDE74A
:102850000126CBE7FFF75BFC002782465745D9DA14
:1028600039463046FFF755FCFFF7BCFA494641F0C0
:1028700047FE0028A4D00137F0E7F0B5C5B0044604
:102880009DF82851ADF80D200F4612218DF80C103F
:102890002A4619460DF10F0041F0ACFA23684B9A15
:1028A0000092D3F8CC6003AAEB1C39462046B0470F
:1028B00045B0F0BDF0B5C5B004469DF82851ADF85F
:1028C0000D200F4652218DF80C102A4619460DF1A5
:1028D0000F0041F08FFA236800220092D3F8CC60F9
:1028E00003AAEB1C39462046B04745B0F0BD70B591
:1028F000858994B04FF6FF74A5421646189A07D002
:10290000858BA54220D0858DA5421BD1022400E0F5
:10291000002400EB041501342401A9810119AE73D0
:102920001726CE80EB731568055194888C80446D12
:1029300044B1194601A8FEF7CFFB01A8A04701A8A2
:10294000FEF713FB14B070BD0124E2E72DE9F0415E
:1029500006460F46904600F11005002415F8013C8C
:10296000BB420AD106224146284641F011FA20B95D
:1029700006EB0414A089BDE8F0810134032C05F1B5
:102980001005EBD14FF6FF70F5E72DE9F041064653
:1029900000F110050F469046002015F8013CBB429F
:1029A00000F101040AD106224146284641F0F0F91F
:1029B00020B906EB04108068BDE8F081032C2046A6
:1029C00005F11005E9D10020F6E770B500230446B3
:1029D0004FF6FF7508468289AA4203F1010202D030
:1029E000867B012E08D0032A134600F11000F2D195
:1029F0002046FEF761FB07E001EB031301EB021237
:102A00002046D97BFEF768FB204670BD98B58288CA
:102A1000D31DEC46DB08ACEBC30300AF9D46036857
:102A20009C6E6B46A047003018BF0120BD4698BD84
:102A30002DE9F04F87B002AF1D46DFF890A0B960D6
:102A400000F1300391460446FB600026B4F80C8088
:102A5000C7F804D04FF6FF7398452AD0E38ADA1DF1
:102A60006946D208A1EBC202033B95469BB2ADB2C8
:102A70009D424FF01B0228BF1D468DF808203A8961
:102A8000ADF8092049462A460DF10B0041F0B2F994
:102A9000DAF800000DF1080B0268CDF800B0EB1C6D
:102AA000D2F858B0DBB204224146D847D7F804D058
:102AB0000136FB6810349C42C8D1002ED4BF0020E0
:102AC00001201437BD46BDE8F08F00BFAC7E050085
:102AD0002DE9F04F87B002AFC7E900211E4600F193
:102AE0004003054600F11004BB604FF0000934F8C4
:102AF00004ACC7F80CD04FF6FF739A4542D0E38878
:102B0000DA1D6946D208A1EBC202033B95469BB28F
:102B1000B6B29E424FF01D0228BF1E468DF8082017
:102B2000BA88ADF80920396832460DF10B0041F042
:102B300061F9002385F83C30194BD3F800800DF182
:102B4000080BD8F80020CDF800B0F31CD2F858B02C
:102B5000DBB2042251464046D84795F83C306BB969
:102B6000D8F8003040461B6998472B6814F8011CC0
:102B70005B6B2246284698470028EED1D7F80CD048
:102B800009F10109BB681034A342B0D1B9F1000FBB
:102B9000D4BF002001201437BD46BDE8F08F00BF30
:102BA000AC7E05002DE9F04F89B002AF042BFA602E
:102BB0003A6CC7F808D0C7E9041014880AD0036833
:102BC00004220092D3F8B8502346A8471C37BD46CC
:102BD000BDE8F08FFB6807336A46DB08A2EBC3034E
:102BE0009D460DF1080805238DF80830002388F86C
:102BF0000130484B013CD3F800A0A4B20225DAF81A
:102C000000305046DB699847844258D23B6C5B8861
:102C1000A34254D9DAF8003021461B6A504698473F
:102C200003689B688346984742F603030134984241
:102C3000A4B255D15846FEF74CFC231A59425941CB
:102C4000DBF8003079609B685846984779680246FF
:102C500011B9B0F5245F45D15846C7E90012FEF717
:102C6000ADFBD7E900120228064614BF0223012358
:102C700098F8010008B988F8013098F801009842E6
:102C80001DD105F102091FFA89F928F8054008EB62
:102C9000090311B9B2F5245F27D158467B60FEF7CE
:102CA0008AFB7B6801463246184641F0A3F809EBDF
:102CB0000605ADB20236FB682E44B3429FDA022D00
:102CC0001CD17A693B6C12681B880A210091D2F8EA
:102CD000B840D7E904100422A047D7F808D075E718
:102CE0000021ADE702260123C2E7DBF80030584699
:102CF0009B689847043528F80900DAE7064B1868FE
:102D00000368CDF800809C6D3969EBB20422A047BE
:102D1000E3E700BF4C7E0500AC7E05002DE9F04FD7
:102D200089B002AF052B3E6CC7F808D08346C7E9CF
:102D3000032134880BD8036804220092D3F8B850DA
:102D400006222346A8471C37BD46BDE8F08FFA6827
:102D500007326946D208A1EBC202954607228DF8D8
:102D60000820B288B2F5205F0DF1080A0DD0DBF81B
:102D7000002033880A210091D2F8B8403969062230
:102D80005846A047D7F808D0DDE7063B9BB27B61E9
:102D9000274B013CD3F80090B31DA4B201257B6002
:102DA000D9F800304846DB699847844232D27388AC
:102DB000A3422FD9D9F8003021461B6A48469847CC
:102DC00003689B6880469847B38883421BD140467E
:102DD000FEF7F4FA7B69984215D14046FEF7EBFA0C
:102DE0007A69796840F0D4FF68B94046FEF74FFF32
:102DF0002AF805004046FEF74CFFAB1C9BB2043599
:102E00002AF80300ADB2FA68EB1C9A4202DD0134E5
:102E1000A4B2C5E7012DAAD0064B18680368CDF807
:102E200000A09C6D3969EBB20422A047AAE700BF5D
:102E30004C7E0500AC7E05002DE9F04F89B002AF55
:102E4000062BBA603A6CC7F80CD081468B461588C1
:102E500004D19388A3F52053012B0FD9D9F8003062
:102E600010220092D3F8B8402B4659464846A04756
:102E7000D7F80CD01C37BD46BDE8F08FBB680733D0
:102E80006A46DB08A2EBC3039D4602AE11238DF810
:102E9000083000237370354B013DD3F800A0ADB26C
:102EA0000224DAF800305046DB699847854247D261
:102EB0003B6C5B88AB4243D9DAF8003029461B6A89
:102EC000504698473B6C02689B887B6192688046BD
:102ED00090477B69834230D14046FEF76FFA022863
:102EE000034614BF142306233B61737878610BB942
:102EF0003B7C737073783A69934221D14046FEF768
:102F0000C6FE30534046FEF7C4FEA31C9BB20434F9
:102F1000A4B2F052331940467B60FEF74CFA7B684E
:102F20007A690146184640F065FF7B69BA681C441F
:102F30003B69A4B223449A4202DB0135ADB2B0E74B
:102F4000022C09D13B6CD9F800201B880A21009182
:102F5000D2F8B840102288E7054B1868036800963D
:102F60009D6D0422E3B25946A84781E74C7E0500D7
:102F7000AC7E05002DE9F04F9BB09B4602AFBBF144
:102F80000A0F15460446884697F88820D7F88C30F3
:102F9000C7F80CD00FD1022A17D003680422009280
:102FA000D3F8B8405A460023A047D7F80CD064376E
:102FB000BD46BDE8F08F042A07D0036804220092C2
:102FC000D3F8B8400C220023EEE7BBF10A0FB3F8A8
:102FD000009018BF5E88714B1B68BB601A6818466A
:102FE000D26908BF0026904709F1FF318AB28242B8
:102FF000BB6807D923680A220092D3F8B8505A4612
:103000004B4622E06A1E0735BA60ED086A46A2EB1D
:10301000C5029546BBF10A0FEA460CBF0B220D22F2
:103020000AF8082F1A681846126A904703689B68C6
:1030300005469847B0F5205F25D156B12368042294
:103040000092D3F8B8500B224B4641462046A84781
:10305000ABE72846FEF7B2F904462846FEF7ABF97F
:10306000224601460DF1090040F0C4FE0134A4B22D
:103070004B4B18680368CDF800A09D6D0422E3B2A5
:103080004146A84791E742F60303984264D1284697
:10309000FEF71DFA48451BD116B123680B22ABE79A
:1030A0002846FEF79BF98AF801002846FEF711FA38
:1030B000AAF802002846FEF781F904462846FEF7E2
:1030C0007AF92246014603A840F094FE0434CEE784
:1030D0002846FEF783F9830702D4236802228BE790
:1030E0002846FEF782F983B29E4202D32368072264
:1030F00082E7BB6880B2801B8342A8BF03469B4621
:103100009BB2BB6004F1400304F110097B60012411
:103110001FFA8BFB39F8043C434517D14A4619F88E
:10312000011C07F11400FDF7D7FF0AEB0403324638
:1031300007F114012846CDF800B0FEF7A9FA07F10F
:103140001400FDF712FFBB681C44A4B27B6809F1B0
:1031500010099945DED18BE7B0F5245F1BD12846D5
:10316000FEF724FB83B29E42C0D2BB6880B2841BB0
:10317000A342A8BF234628469B46FEF719FB1FFA29
:103180008BF281190BF1010B0DF1090040F032FEB9
:103190001FFA8BF46CE701246AE700BF4C7E050040
:1031A000AC7E05002DE9F04F89B002AF91463A6C34
:1031B000C7F808D0062BC7E9031015880BD00368A1
:1031C00004220092D3F8B84008222B46A0471C37AF
:1031D000BD46BDE8F08F09F107036A46DB08A2EBA4
:1031E000C3039D460DF1080809238DF8083000231C
:1031F00088F801306C4B1B687B613B6C013D0433EC
:10320000ADB202247B607B6978691B68DB699847F3
:10321000854280F083803B6C5B88AB427ED97B69C2
:1032200078691B6829461B6A984703689B680646AD
:1032300098473B6C9B888342336805F1010A1FFA6B
:103240008AFA9B6830467AD1984742F6030398423F
:103250003DD13046FEF73DF9824535D03046FEF788
:10326000ADF898F801200228034614BF4FF0150B63
:103270004FF0070B0AB988F801B098F801203B60BD
:103280005A454BD128F804A03046FEF7A7F8A21CF7
:1032900092B2023508F80200E21C92B2304628F8D9
:1032A0000250FEF788F805343B68A4B208EB040529
:1032B0001A460146284640F09DFD3B681C44A4B2D6
:1032C000A344D9452ADB55460135ADB29BE73368A7
:1032D00030469B68984742F602139842F4D128F88A
:1032E00004A03046FEF762FA0234A4B2A9EB040946
:1032F00080B21FFA89F9814528BF8146304608EB24
:103300000405FEF755FA4A4601464C44284609F1A1
:10331000020940F06FFDA4B288F80190022C38D168
:103320003A693B6C12681B880A210091D2F8B840B8
:10333000D7E903100822A047D7F808D047E79847F5
:1033400042F603039842BFD13046FEF737F8022811
:103350008346B9D13046FEF72EF85A4601467868C2
:1033600040F016FD0028AFD128F804A03046FEF743
:103370003CF80234A4B2A9EB04091FFA89F980B21F
:10338000814528BF8146304608EB0405FEF72BF83F
:10339000B9E7064B18680368CDF800809D6DF968A1
:1033A000E3B20422A847C7E74C7E0500AC7E0500C7
:1033B0002DE9F047012B96B0044602AF8846164629
:1033C0001D46E9460BD0036804220092D3F8B840AA
:1033D00018220023A0475037BD46BDE8F087C18FB3
:1033E00039B33B6F1B78DB0723D5204B1868036884
:1033F00001391B6A9847A3894345824632D0A38B83
:10340000434531D0A38D434513D102235A1C04EB0D
:10341000031304EB0212D97B381DFDF75DFE504605
:10342000B4F84430226C391DFEF751F9381DFDF710
:103430009CFD00230736E387A4F84430F6086B466A
:10344000A3EBC6039D4619238DF80830084B186876
:1034500002AA036800929C6D042201234146A04702
:10346000CD46B8E70023D1E72B46CFE74C7E0500D9
:10347000AC7E05002DE9F04F87B002AF032B044668
:103480000D467A601E46C7F80CD00DD8036804229A
:103490000092D3F8B84016220023A047D7F80CD0EA
:1034A0001437BD46BDE8F08FBB6B1B883B811FFA0C
:1034B00083F8BB6BB3F802B0484BD3F80090D9F84F
:1034C00000304846DB69984708F1FF318BB28342F0
:1034D00006D923680A220092D3F8B860434620E058
:1034E000D9F8003048461B6A984703689B688146B4
:1034F000984742F60303984202D023680B22EAE77A
:103500004846FDF7E6FF40458246F6D14846FDF7BE
:1035100065FF03070AD4236803210091D3F8B8603C
:103520005346162229462046B047B7E7E38FCBB96A
:1035300048463B60FDF755FF01468246206C40F04F
:10354000B7FD3B683A89E2872064A4F844305246CC
:10355000194640F04DFDB4F844305B4507D0236870
:103560000722B8E75345F6D023680E21D5E7331F6D
:103570005FFA83FA0BEB0A024846BA60FDF731FFA7
:10358000BA6880B28242EADCBB6B206C5246191DDD
:10359000584440F02FFCB4F84420B96B0AEB020306
:1035A000A4F844307B6807336A46DB08A2EBC30308
:1035B0009D4617238DF8083032460DF1090040F082
:1035C00019FC074B186802AC02680094731C946DD8
:1035D000DBB204222946A04760E700BF4C7E05000D
:1035E000AC7E05002DE9F04F8FB002AFC7E9002196
:1035F000FB608388F96807336A46DB08A2EBC303E4
:1036000007F118059D468346284600F091FC0DF110
:1036100008090124BD60DBF80030CDF804904FF4B8
:1036200020520092D3F8985079684FF6FF732246E3
:103630005846A847054620B199F80030112B04D010
:1036400001203437BD46BDE8F08F99F801307B6129
:10365000A3F1040802235FFA88F809F102063B612E
:103660004FF6FF7A3B69AB4204DB4FF6FF739A4596
:10367000D1D0E5E7FB68E3B9302036F0D1FB314625
:10368000728831F8043B009204464246FEF79AFDE8
:1036900021463868FEF724FD7488D7E904320134E6
:1036A000A4B2002C134408BF4FF0000A3B6116443B
:1036B000D8E7B86800F079FC4045EDD1B86800F073
:1036C00072FC42460146301D40F062FB0028D3D018
:1036D000E2E72DE9F04F8DB0838804AFC7E90421FC
:1036E00007336A46DB08A2EBC3039D46824638696E
:1036F000FEF70DFD0DF11009F8604FF00008FB68B2
:1037000098454ADA41463869FEF703FDB861FEF78D
:1037100073FD0646B869FEF771FDB860DAF800304F
:10372000CDF8049042F603020092D3F88440796900
:10373000BB6832465046A047054678B399F800303A
:10374000092B27D199F80130FB61053BDBB27B6087
:1037500009F102044FF0020BAB45DFDA382036F0F6
:103760005FFBB4F803300293A3780193238800939E
:1037700006467B697A68611DFEF740FB3146B869F1
:10378000FEF74EFDB4F80360FB690136B6B29B4408
:103790001C44E1E708F10108B1E701202437BD46E8
:1037A000BDE8F08F2DE9F04F8FB0838802AF07336B
:1037B000C7E90421DB086A46A2EBC3039D4602ABBE
:1037C00082463869FB62FEF7A2FC4FF0000BF860FE
:1037D000FB689B456DDA59463869FEF79AFC7862BA
:1037E000FEF70CFDB860786AFEF70AFD431E3862EA
:1037F00000267B603B6A9E4258DA3146786AFEF7C3
:1038000001FD7B68F8619E4249D0711C786AFEF721
:10381000F9FC0546F869FEF767FB013084B2002D1C
:103820003FD02846FEF760FBB862BB6AA3423BD399
:10383000DAF80030FA6A00925D6F7969BB6A224655
:103840005046A8470546002834D0FB6A1B78052B54
:103850002AD1FB6A93F801904FEA8903BB61FB6AA6
:103860004FF0020903F10208A945E1DA202036F001
:10387000D7FAB8F800300093022208EB02010446A0
:103880007B69FEF711FC2146F869FEF72FFBB8F8BB
:103890000040BB690134A4B299449844E4E7002590
:1038A000B8E7BB68BB62C0E70136A3E70BF1010BC9
:1038B0008EE701203437BD46BDE8F08F30B5022ACF
:1038C00085B004460D4609D0036804220092D3F85F
:1038D000B84002220023A04705B030BD1B88818874
:1038E000994228BF19468389AB4217D0838BAB42DC
:1038F00016D0838DAB4202D104EB0214E182094A57
:10390000ADF80D10032310688DF80C30026803A980
:103910000091946D29460422A047DDE70022EBE7E1
:103920000122E9E7AC7E0500042A13D1B0F8482053
:103930008A420FD190F84A201978013A8A4209D177
:10394000C26C01211170C26C1B68C2F801300523E2
:1039500080F850307047022A10B51CD184898C42FF
:103960001AD0848B8C4219D0848D8C4203D100EB09
:1039700002121C88D482B0F848208A420BD190F8F9
:103980004A20032A07D1C16C0A70C16C1B88A1F8B8
:10399000013080F8502010BD0022E8E70122E6E760
:1039A000012A38B50446154611D9B0F848008842B6
:1039B0000DD194F84A00052809D1E16C0870E06C3B
:1039C00019460130013540F015FA84F8505038BDE1
:1039D000012A38B50446154611D9B0F84800884286
:1039E0000DD194F84A00112809D1E16C0870E06CFF
:1039F00019460130013540F0FDF984F8505038BDCA
:103A000038B50446B0F84800884215460DD194F800
:103A10004A100B2909D1E06C0170E06C19460130A5
:103A2000013540F0E7F984F8505038BD38B5044608
:103A300015468AB1B0F8480088420DD194F84A0082
:103A4000092809D1E16C0870E06C19460130013594
:103A500040F0D0F984F8505038BD62B9B0F8483021
:103A60008B4208D190F84A30132B01BFC26C1370FF
:103A7000012380F8503070472DE9F04F99B002AF24
:103A8000044697F880B07A60BBF1010F0E461D46E0
:103A90000DD8122B07D1036804220092D3F8B84046
:103AA0002A460023A0475C37BD46BDE8F08FD7F813
:103AB0008430B3F80090614BD3F800A0DAF80030FE
:103AC0005046DB69984709F1FF318BB283420CD92C
:103AD000122DE8D123680A220092D3F8B8802A4632
:103AE0004B4631462046C047DDE7DAF80030504605
:103AF0001B6A984703689B688046984742F6030311
:103B000098424FD14046FDF7E4FC8145404601D143
:103B1000122D38D1FDF762FC020750D5A389B342BC
:103B200036D100235A1C04EB031304EB0212D97B99
:103B300007F10C00FDF7D0FAD7F88420ABF10203AF
:103B4000DBB2023207F10C014046FDF7C0FD07F180
:103B50000C00FDF70AFA122DA5D17B6807336C46DD
:103B6000DB08A4EBC3039D4613238DF80830344BC8
:103B7000186802AA036800929D6D04220123314651
:103B8000A847A5468FE7FDF729FC43078BD5C5E776
:103B9000A38BB34204D0A38DB342DCD10223C1E78F
:103BA0000123BFE7D8F8003040469B689847B0F53E
:103BB000245F04D14046FDF701FC022805D0122DF8
:103BC0007FF471AF2368032286E74046FDF7F3FBDD
:103BD000028842F602139A42F1D1DAF80030A9F1D4
:103BE00002011B6A5046984703689B6880469847C5
:103BF00042F603039842E2D1A389B34207D0A38BD4
:103C0000B34218D0A38DB342A5D1022300E0002314
:103C10005A1C04EB031304EB0212D97B07F10C00CE
:103C2000FDF75AFAD7F8843007F10C015A8840465C
:103C3000FDF76DFD8BE70123EAE700BF4C7E050031
:103C4000AC7E05002DE9F04F9DB0012B07468A465A
:103C50000792039365D9269B1E8800F13003054621
:103C60000693F6B2AB89534547D1AC69002C48D0D6
:103C70002046FEF74CFA4FF0000B8046D8453CDD5D
:103C800059462046FEF745FA8146FEF7B5FAB0429E
:103C900030D24846FEF7B2FA86422BD84846FEF7A5
:103CA000AFFA0BF1010307EB0313049005934FF0F8
:103CB000000807EB0B14049B43451EDD41464846B4
:103CC000FEF7A0FA8346FEF70FF986420FD1059A58
:103CD000E17B09A8FDF700FA039B269A5846023BB0
:103CE000023209A9FEF772F909A8FDF73EF908F1B9
:103CF0000108E0E70BF1010BC0E7069B1035AB4272
:103D0000B0D1079B1D2B0CD11CAB1E2203F84C2DF0
:103D1000054A106802680093946D012304225146FD
:103D2000A0471DB0BDE8F08FAC7E05002DE9F04F37
:103D300000230446A9B098464FF0FF354FF6FF70B8
:103D400004EB031292898A4208BF1D46824203F1A6
:103D5000010318BF08F10108032BF1D16B1C00F01F
:103D6000A8806E1C2F01E319360104EB060A5246A7
:103D7000D97B02A8FDF7B0F9B8F1010F54D14E4B31
:103D8000D3F800804FF0000942F6030BD8F800305A
:103D90001FFA89F10191DB694046984701998842F1
:103DA0003ED9D8F8003040461B6A98470268019017
:103DB000926890475845019B2FD1404A15929DF833
:103DC0000C208DF8582028AA0DF1510052F8931DAF
:103DD000CDF859109288ADF85D209DF813208DF82C
:103DE0005F209DF814208DF860200DF161010DF128
:103DF000150252F804CB41F804CB8242F9D1128863
:103E00000A809DF853208DF89F201846002215A99E
:103E1000FDF77DFC15A8FDF7A8F809F10109B5E744
:103E20000023E387A4F84430A16D61B3234B1593BD
:103E30009DF80C308DF8583028AB0DF1510053F837
:103E4000932DCDF859209B88ADF85D309DF8133047
:103E50008DF85F309DF814308DF860300DF16102FF
:103E60000DF1150353F804CB42F804CB8342F9D18A
:103E70001B8813809DF853308DF89F3015A8884714
:103E800015A8FDF772F827444FF6FF73FB60002377
:103E9000A35104EB0514AAF80430A0691723E382A8
:103EA00010B103685B6898470023A36102A8FDF77F
:103EB0005CF829B0BDE8F08F4C7E0500947B0500CE
:103EC000114B036041F2883317218360002330B522
:103ED0008180C3870364A0F8443000F1100200F130
:103EE00040044FF6FF7522F8045C02F8023C02F829
:103EF000013C13609380D18093601032A242F2D1D2
:103F00004365836530BD00BF307D050010B5054CAD
:103F10002046FFF7D5FF2046034A0449BDE810407C
:103F200035F06FBD8812002000020020212601001C
:103F300073B5002504460E4640F8041B102229469E
:103F4000ADF804508DF8065040F052F82575304613
:103F500040F0D6FC451E002D237D19DB0F2B1ED80B
:103F6000735D2D2B02D10135023DF4E7721900215A
:103F700012F8012C8DF8042001A810228DF80530CC
:103F800043F066FC237DE218013310712375EBE7E3
:103F9000022B04D802232046237502B070BD1023E3
:103FA000F9E70068704704307047007D70470000F3
:103FB0002DE9F047144C80464D1E4FF4AA594FF09E
:103FC0002D0A6A1C1AD018F80570102221463809EB
:103FD00001F0BDFD1022611C07F00F0001F0B7FDDC
:103FE0000C2D04F1020606DC29FA05F3DB0744BFB9
:103FF000E61C84F802A0013D3446E2E7002323706A
:104000000148BDE8F08700BFE41200200079704746
:104010002DE9F04F89B090460DF1180B027A9DF80A
:1040200048601F460023054689460693ABF80430D6
:10403000FAB99E4214BF4FF0020A4FF0030A2B68F0
:1040400028461B699847194BEA881C6800210720FD
:1040500023680091CDE90301CDE9011B2046D3F887
:1040600034B011465346D84728B1002009B0BDE806
:10407000F08F9A46E3E723684A469B6B4146204609
:1040800098470028F1D123683A46DB6B3146204639
:1040900098470028E9D1236801211B6C20469847E6
:1040A0000028E2D101202871E0E700BFAC7E0500C6
:1040B000034B00210171186803681B6C184700BF8F
:1040C000AC7E05002DE9F341124B1D682B680122DF
:1040D0009B6C07460E4628460021002498472B6813
:1040E000CDE90044D3F8448010231A460121284624
:1040F000C04768B9012179712B6886EA01029B6C7F
:1041000028469847B0FA80F0400902B0BDE8F08137
:104110002046FAE7AC7E0500C18070470172704707
:10412000022908BFC260704770B50B4D04461C30B1
:10413000164602F05EF9294604F1280002F07AF9E9
:10414000294604F1340002F075F92368314620460F
:104150005B69BDE870401847A0B305002DE9F04148
:104160000C4D04460F461C302946164602F062F9F3
:10417000394604F1280002F03CF9294604F13400E4
:1041800002F058F92368314620465B69BDE8F041EA
:10419000184700BFA0B305002DE9F0410C4D0446BF
:1041A0000F461C302946164602F044F9294604F110
:1041B000280002F03FF9394604F1340002F019F901
:1041C0002368314620465B69BDE8F041184700BFCF
:1041D000A0B305007FB5C36B04460D4683B10B68E1
:1041E00001A89B69984701A904F1340002F084F901
:1041F000064601A802F07AF816B9002004B070BD96
:10420000636A73B1294601A8FCF77AFF01A904F19A
:104210001C0002F052F9064601A802F067F8002ED1
:10422000EBD0236B83B1294601A8FCF7E3FF01A97A
:1042300004F1280002F060F9044601A802F056F8E3
:10424000201C18BF0120D9E70120D7E738B5A022EC
:104250000E4D0F4B0360C280002301220446037100
:1042600043710272C0E90333C0E9053329461C30AB
:1042700002F082F8294604F1280002F07DF8294670
:1042800004F1340002F078F8204638BDA0B30500F0
:104290000C7E050003688B4208D9436800228A42DD
:1042A00002D05B680132FAE7186870470020704757
:1042B00070B50446406800252368AB4206D94668BD
:1042C000082135F0DFFD01353046F5E70023C4E96C
:1042D0000033A36070BD000010B50A4B044640F8DF
:1042E000343B02F003F804F1280001F0FFFF04F171
:1042F0001C0001F0FBFF04F11000FFF7D9FF20467E
:1043000010BD00BF0C7E050010B50446FFF7E4FFAA
:104310002046402135F0B6FD204610BD70B50E4B4D
:1043200005461868036800229B6C114600249847D4
:1043300005F110066C712B699C4209D2214630466A
:10434000FFF7A8FF10B103685B6898470134F2E7F4
:104350003046FFF7ADFF70BDAC7E050003688B42B1
:1043600070B504461AD90022406813468A4245684F
:1043700003D0034601322846F8E7066863B9656052
:10438000A268824208BFA360082135F07BFD236844
:10439000013B2360304670BD5D60F1E70026F9E720
:1043A0002DE9F041074694B00D46002401F11008B4
:1043B0002B699C422AD221464046FFF76BFF0646F6
:1043C000FCF755FF00B3314601A8FDF797F82146E9
:1043D0004046FFF7C3FF1EB1336830465B6898471D
:1043E0002B6801A9DB6B2846984750B101A93846D4
:1043F000FDF784F801A8FCF7B8FD384614B0BDE815
:10440000F08101A8FCF7B1FD0134D1E73846FCF793
:1044100053FEF2E72DE9F04FC568ABB004460F46F6
:1044200092469B469DF8D0809DF9D8902DB30329E4
:1044300022D11A46514604A8FCF74EFECDF8009052
:10444000359B4246394604A8FCF7EBFE236804A9D5
:10445000DB6B2046984748B104A917A8E468FDF72C
:104460004DF817A8A04717A8FCF77FFD04A8FCF794
:104470007CFD2BB0BDE8F08F002504F1100322690C
:10448000AA420DD9184629460393FFF703FF5A465F
:1044900051460646FCF7B5FE039B002838D0BEB94E
:1044A0002369042BE5D84C2035F0BAFC5A46514616
:1044B0000646FCF711FE082035F0B2FC0023C0E9E7
:1044C0000063636933BB60612569A0616B1C236174
:1044D000042F22D0CDF80090359B42463946304615
:1044E000FCF79FFE3046FCF7C2FE0028C1D0E3680F
:1044F000002BBED0314604A8FDF700F8294604F190
:104500001000FFF72BFF336830465B6898479DE744
:104510000135B4E7A3695860D6E74B46359A414662
:104520003046FCF78FFEDDE770B446799DF80C400D
:104530009DF9145026B10595039470BCFFF76ABF2E
:1045400070BC704710B5054C2046FFF77FFE204633
:10455000034A0449BDE8104035F053BA0C1300205B
:1045600000020020D9420100406870474368994228
:1045700008D283680022914202D05B680132FAE7D8
:10458000186870470020704773B50446302035F036
:1045900047FC32490546FDF767FB2561542035F09D
:1045A0003FFC00250646142302222D490095FCF706
:1045B000DFFF6661542035F033FC02231A460646BD
:1045C00028490095FCF7D4FFA661302035F028FC7F
:1045D00025490646FDF748FBE661542035F020FCEE
:1045E00020220423214900950646FCF7C1FF2662DC
:1045F0002069FCF7E6FE6069FCF7E3FEA069FCF7C2
:10460000E0FEE069FCF7DDFE206AFCF7DAFED4E9A3
:104610000401FDF750FBA1692069FDF74CFBD4E9CB
:104620000701FDF748FB236811491B69204698479D
:104630002368294620465B69984723682046DB6A41
:104640009847236821699B6A204698472368E16957
:104650009B6A204602B0BDE870401847507E0500B6
:10466000557E05005A7E05005F7E0500647E0500CC
:10467000697E05004069FCF71BBF07B502AB02224B
:1046800023F8021D80691946FCF7B2FE03B05DF8FD
:1046900004FB10B504460846FCF753FE014628B15A
:1046A000236820469B6ABDE81040184710BD2DE9DD
:1046B000F0410025074688462C463B683846DB69B2
:1046C0009847A84211D93B6829461B6A3846984743
:1046D00003689B6806469847B0F5205F02D04645C0
:1046E00003D0264601353446E7E720463CB1FCF7C7
:1046F00065FE0228204604D1FCF75DFE0088BDE877
:10470000F081FCF758FE4089F9E70000054A026095
:104710000022C0E90122C0E90322C0E90522C0E964
:10472000072270477C7E050070B50446406800256E
:104730002368AB4206D94668082135F0A3FB013552
:104740003046F5E70023C4E90033A36070BD08B527
:104750000430FFF7E9FF08BD70B504460025236863
:104760002046DB699847A84210D9236829461B6A6E
:10477000204698470646FCF729FE002804DC1EB1B7
:10478000336830465B6898470135E8E7201DFFF73E
:10479000CBFF70BD38B50446054B44F8043B0546D5
:1047A000FFF7DAFF2046FFF7BFFF284638BD00BFFE
:1047B0007C7E050010B50446FFF7ECFF204624215F
:1047C00035F060FB204610BD38B5044608200D4684
:1047D00035F026FB0023C0E9005363682BB9606005
:1047E0002368A0600133236038BDA3685860F7E7F1
:1047F0002DE9F84F04460D46084604F10408FCF77D
:10480000E0FD29464046FFF7DFFF23682046DB69CD
:10481000984700271FFA80FB2846FDF73CFAB8426C
:1048200035D939462846FDF738FA0646FCF7C9FD62
:1048300031464046FFF7C8FF23682046DB699847AA
:1048400081B23046FCF741FE31464046FFF7BCFFDF
:104850004FF000093046FCF740FE484515D949465F
:104860003046FCF73CFE8246FCF7ABFD5146404625
:10487000FFF7AAFF23682046DB69984781B25046BC
:10488000FCF798FF09F10109E4E70137C4E7236861
:104890002046DB699847594682B22846BDE8F84F62
:1048A000FDF7F2B908B5054B1846FFF72FFF044A8C
:1048B00004491846BDE8084035F0A3B84C13002061
:1048C000000200209547010070470000002383602C
:1048D000024B186803681B68184700BF8C7F0500EF
:1048E000024B186803685B68184700BF8C7F05009F
:1048F000036800215B69184710B403689C6E0023AD
:10490000A4461A4640F603415DF8044B604737B5AC
:10491000026802AB956E23F8021D022241F20541A6
:104920000446A84750B9D4F81831BDF806201988B4
:10493000914203D193F9020003B030BD7F20FBE721
:1049400013B502A961E90223036808229C6E0B4695
:1049500040F60141A04702B010BD10B403689C6E40
:1049600006220B46A44642F205015DF8044B60475F
:104970001FB5089C8DF804309DF818308DF805306F
:104980009DF81C308DF806302368CDF80730A388D9
:10499000ADF80B309DF824308DF80D309DF828309F
:1049A0008DF80E300368ADF80010ADF802209C6E53
:1049B0000F226B4642F20601A04704B010BD13B5AA
:1049C00002AB026803F8011D946E42F20A01012253
:1049D000A04702B010BD13B5ADF803309DF81030FC
:1049E0008DF805309DF814308DF8063003688DF889
:1049F0000010ADF801209C6E07226B4642F20B01BD
:104A0000A04702B010BD13B503688DF804108DF8EF
:104A100005209C6E022201AB42F20C01A04702B0BD
:104A200010BD10B588B00B9C8DF808309DF828306B
:104A30008DF809302368CDF80A30A388ADF80E3020
:104A40009DF830308DF81030BDF83430ADF81130AD
:104A5000BDF83830ADF81330BDF83C30ADF8153046
:104A6000BDF84030ADF81730BDF84430ADF819301E
:104A7000BDF84830ADF81B300368ADF80410ADF850
:104A800006209C6E192201AB42F20D01A04708B02E
:104A900010BD10B403689C6E0023A4461A4642F26F
:104AA0000E015DF8044B60471FB5ADF80430BDF84A
:104AB0001830ADF80630BDF81C30ADF808300423CE
:104AC000ADF80A300623ADF80C300368ADF80010DD
:104AD000ADF802209C6E0E226B4642F21301A047F5
:104AE00004B010BD13B513238DF80630026802AB75
:104AF000946E23F8041D032240F20641A04702B041
:104B000010BD416070470023436070473AB190F890
:104B10001D31934203DD9B1A80F81D31704700233D
:104B2000FAE70000F0B51378052B87B00546144668
:104B300017D1464BB4F803101868527903685B6AC2
:104B40009847434BB4F80310186862790368C9B2F8
:104B50001B6998473F48012107B0BDE8F040FFF7C7
:104B60002EBF0E2B0FD1B2F80330A0F80E315379BF
:104B7000C0F8103153780634043B80F81431C0F883
:104B8000184107B0F0BD0F2B09D19388A0F80E3162
:104B90009378C0F81031002380F81431F1E7132B1B
:104BA00010D193780734D61C04EB83040436A64254
:104BB000E7D02B6836F8022C1B6F36F8041C284609
:104BC0009847F3E73E2BDCD19378012B27D1D3789C
:104BD000002BD6D11D4B277D1868A188D379066894
:104BE00002F1080592790497678A0397278A02974A
:104BF000E789CDE90057F669B047154B277D18685E
:104C0000A279E379A18806680497678A0397278ABF
:104C10000297E489CDE90054B468A047B1E7022BBC
:104C2000AFD1D378012BACD1137B0B4A217910681B
:104C300062790568E61896F90D60029604F10D0692
:104C4000CDE90036A31DAD6BA8479AE7247D05008A
:104C50001C80050070130020007E050010B54FF485
:104C60000871044635F00EF9204610BD2DE9F843D1
:104C7000304B04461D6819B12B6828469B6898473D
:104C80002D4FDFF8B88000262B682846DB68984750
:104C900000284CD02B6828465B699847A3685A1CAB
:104CA0002344C1B2A2601973237B022B1ED1052AB3
:104CB000EADD217CE37B03EB012304339A42E3DD4D
:104CC000636843B12368D2B2D3F87890414604F1C7
:104CD0000C032046C8472368A168A660DB6E013933
:104CE00004F10D02C9B220469847CDE7042B16D136
:104CF000032AC9DDA37B02339A42C5DD636843B151
:104D00002368D2B2D3F87890394604F10C032046D8
:104D1000C847A1682368A66001395B6FE0E7606857
:104D2000A6600028B0D0102201F0E6F9ACE7BDE89B
:104D3000F88300BF8C7F0500E97E0500D67E050064
:104D4000F0B5154616885288AB88111F994287B076
:104D500004464FEA163609D0012E00F58F771FD092
:104D600000F10D01043238463FF044F86A88AB8800
:104D7000043A9A4212D1E888298883B2042BC1F3FD
:104D80000B011ED1204B18680368012E1D6AD2B298
:104D90000CBF04F5937304F11503A84707B0F0BDE9
:104DA000B0F8200100F5917004F1110120443FF0AA
:104DB00021F86A88B4F820311344A4F820313D4624
:104DC000D4E7052B07D1114B18680368D2B2DD6810
:104DD00004F11503E1E700220392ADF8142001224B
:104DE0008DF80C200622ADF80E20022203ABADF8A0
:104DF000102022680093ADF81200956D0A23052259
:104E00002046A847CAE700BF247D05001C80050096
:104E1000F0B5202589B004460E46174600212A46E3
:104E200068463FF0E5F8324639460DF101008DF84D
:104E300000603EF0DFFF23682A469E6E42F20801C2
:104E40006B462046B04709B0F0BDF0B5202589B0CB
:104E500004460E46174600212A4668463FF0C8F829
:104E6000324639460DF101008DF800603EF0C2FF78
:104E700023682A469E6E42F209016B462046B047DF
:104E800009B0F0BD2DE9F047044600AF8A469146CF
:104E90001D4694F81D2194F81C319A4204D32368CE
:104EA00020461B699847F4E705F1100303F4FC73EF
:104EB000ADEB030D02238DF800302B1DDBB22A462B
:104EC000396AADF803300DF10900ADF801A0ADF875
:104ED0000550ADF807903EF08DFF636805F10906B7
:104EE000E84633B123680B499D6FF2B26B4620460A
:104EF000A84794F81D31013384F81D31064B18681A
:104F0000036832469B69414698470020BD46BDE88C
:104F1000F08700BFB07E05008C7F05002DE9F043CF
:104F20000D46114683B00B3101F4FC7100AF04460D
:104F3000ADEB010D01203871A7F80550FA716846F4
:104F4000796840F8041B1946161D3EF053FF63684C
:104F5000E8463BB123681649D3F87890F2B26B4625
:104F60002046C847134B1868036832469B69414680
:104F700098474FF6FF73A4F80E314FF0FF33C4F893
:104F8000103100F04FFF00F57A76B4F80E31AB42E5
:104F900008D000F047FFB04204D2236820461B69C6
:104FA0009847F2E7D4F810010C37BD46BDE8F0830E
:104FB000C37E05008C7F05002DE9F0411D46036886
:104FC000D3F8688000230F46164641F201011A46C5
:104FD0000446C04770B9D4F818311A783A70B3F85B
:104FE00001203280DA782A70069A99881180DA884E
:104FF000079B1A80BDE8F081F8B503689D6E002319
:105000000E46174642F202011A460446A8470546D4
:1050100078B9D4F818311A8832809B783B7084F8BC
:105020001C31054B31881868036809399B6889B2BF
:1050300098472846F8BD00BF247D050070B5036879
:105040009E6E00230C461A4641F209010546B04700
:1050500028B9D5F818311A6822609B88A38070BDE2
:105060002DE9F0410546406816461C46E8B100F0BF
:10507000F5FF013CDFF838802644A64268680CD072
:1050800014F8017F0F2F02D8414600F0E7FF1022ED
:105090003946686801F02EF8EFE700F0E7FF68682E
:1050A0000368BDE8F041DB681847BDE8F08100BF48
:1050B000EC7F05000548064B0360064A06490023BD
:1050C000C0E9013380F81D3134F09BBC701300201F
:1050D000047F050000020020C948010070477047A6
:1050E000D0F810017047D0F8103123B1D0F80C314E
:1050F0001844007A70474FF0FF307047D0F81031F5
:1051000083B1D0F80C3103441A7AD0F80C31013352
:10511000DBB2C0F80C31D0F81031013BC0F81031CF
:10512000104670474FF0FF3070470368184710B5BE
:105130004FF48A71044634F0A5FE204610BD2DE9D7
:10514000F04F89B002A803F0A3FC02A803F026FCEC
:105150000024002542F20F7A4FF0000B02A803F062
:105160006AFC24184D4102A803F06FFC42F2107251
:105170000023204629463DF0D1FA50B115F0B2FC8B
:10518000204629464FF47A7200233DF0C7FA1446B0
:105190001D4615F07FFE01A833F038FB15F070FEB8
:1051A000064601A833F03AFB02A803F044FC002EA7
:1051B000D4D08B4508BF8245D0D342F21076361A40
:1051C0004FF0000767EB01074FF47A720023304677
:1051D00039463DF0A3FA4FF47A728046894630464C
:1051E000394600233DF09AFA1F4658EA090316464D
:1051F00002D0404637F0DAFA56EA0703AED030461E
:1052000034F058FFAAE70B6803604B6843608B6873
:105210008360704738B50A4C0546206840B137F0C6
:1052200091FB206810B103685B68984700232360F6
:1052300031F00CFC05F018FC00232B7138BD00BFC9
:10524000B816002010B50368DB680C46984738B9DB
:105250000123224619460348BDE8104034F082BFBE
:1052600010BD00BFA4160020F8B50079C0B1013A06
:10527000D4B20D46102C2046B8BF102015F8016B93
:1052800015F0FEFA2946224607463EF0B3FD31F0FE
:10529000DDFB4069036822461D6931463B46A8474D
:1052A000F8BD000038B5114B1A78EAB90122104D4B
:1052B0001A70104C03682B6081684368007B236080
:1052C00015F022FA83B223B963220B490B4833F05D
:1052D00079FF2B6880B203442B602368181A206082
:1052E000BDE8384015F0D0BB38BD00BFBC1600206B
:1052F000E4270020E0270020907F0500DE7F0500E6
:10530000F0B500238BB0C0F80831C0F80C31C0F8FC
:105310001031064631F09AFB0368204F9B68014626
:1053200002A8984702A8FFF7BDFF31F08FFB05F0F8
:105330008FFB3D6845BBBC2034F072FD184B036009
:10534000044629460561403034F0BCFF04F15400A6
:1053500034F056FF2B464FF480521821204600951A
:1053600037F080FA3C600F4B09930AAF0E4B47F8B9
:10537000103D20463946CDE9075537F07FFA099BA5
:1053800013B19B683846984731F060FB074805F039
:10539000FFFC012030710BB0F0BD00BFB81600203B
:1053A0008CBD0500807F05003F5101003554010090
:1053B0007047000038B504460025084B03600571AE
:1053C0004FF48072294608303EF012FEC4F80851AE
:1053D0002046C4F80C51C4F8105138BDF87F0500C0
:1053E00030B4D0F81031C3F580739A421EDC00242B
:1053F000A24216DDD0F81031B3F5807F0FD0D0F87F
:1054000008310D5D03441D72D0F808310133DBB261
:10541000C0F80831D0F810310133C0F81031013430
:10542000E6E70121024830BC34F07EBE30BC704754
:10543000A41600200A4601460148FFF7D1BF00BF6D
:105440009015002038B50A4C0A4D204634F05CFE19
:105450002046094C09492A4634F0D3FA2046FFF782
:10546000A9FF2A4620460649BDE8384034F0C9BAAB
:10547000A416002000020020901500202FA1040097
:10548000DF500100704770478180C2807047018102
:105490007047704710B50C21044634F0F3FC2046E9
:1054A00010BD000070B586B0012ABDF82C30BDF8E3
:1054B000346023D185882DB1C4881CB1AB421FD381
:1054C000A3421DD81C460022008908B1864201D1A2
:1054D000A2B13046ADF810300A4BADF816000022EC
:1054E000ADF814201868084A0392ADF8124003681A
:1054F00003AA00929C6D05220C23A04706B070BD44
:105500002B46E1E7AC7E050012010800032AF7B53F
:105510000ED95D882C1DA2420AD11F785A78122F0D
:1055200003F1040406D103680094DC69EBB2A047E0
:1055300003B0F0BD132FFBD1036800941C6AF5E79C
:10554000F0B585B0072B0E460A9C38D90023ADF87C
:105550000C308DF80920132382888DF8083002233F
:10556000ADF80A3052B1C38843B12188914202D3C9
:1055700062889A4202D90123ADF80C3003892BB11D
:10558000E2889A421CBF0123ADF80C300D4B1D6818
:1055900002AA2B6800929F6D0522062331462846F9
:1055A000B847BDF80C3053B9E08829686388228871
:1055B0000190A08800900C6D28463146A04705B0A8
:1055C000F0BD00BFAC7E05000448054B036000231E
:1055D00043600381034A044934F013BAC016002023
:1055E000288005000002002085540100002070473B
:1055F000490000230162C0F830327047036801217E
:105600001B6B184710B403689C6B0123A4465DF81C
:10561000044B6047D0F83032B3F5807F1FBF5A1C6F
:10562000C0F83022C01880F8301114BF01200020CB
:105630007047D0F82C0170477047C0F8341270479B
:10564000C0F838127047D0F82C312BB1D0F828317F
:10565000184490F8240070474FF0FF30704703461D
:10566000D0F82C01A8B1D3F82C2182B1D3F828218D
:105670001A4492F82400D3F828210132D2B2C3F898
:105680002821D3F82C21013AC3F82C2170474FF080
:10569000FF30704710B5044B0360044600F50F70EF
:1056A00037F072F9204610BD6080050038B5044619
:1056B000802034F0B5FB94F91C2094F918100546AD
:1056C00002F064FD656138BD7FB5044648200E4692
:1056D00034F0A6FB94F91C2094F91810054602F04A
:1056E0008FFD71002846256102F0A6FD094B03934A
:1056F000094B01936946002304F50F70029300944F
:1057000037F0BCF8039B13B19B686846984704B018
:1057100070BD00BF4C8005002758010038B5D0F897
:10572000303214461A44B2F5807F88BFC3F58074C6
:10573000054600F59870224618443EF05BFBD5F80C
:1057400030322344C5F83032204638BD10B5044607
:10575000406910B10368DB689847206920B148218F
:10576000BDE8104034F08EBB10BD38B5044640692A
:105770000D4608B102F014FC206920B12946BDE8AD
:10578000384002F057BD38BD07B581F001010091E6
:10579000D0F83032016A00F59872406902F02EFCB0
:1057A000002814BF0220002003B05DF804FB70B590
:1057B000C2B083F00103009302AE044615461346BF
:1057C00049003246406902F03AFCC8B9A84218D0F4
:1057D000D4F82C31B3F5807F10D0D4F82431325C6A
:1057E000234483F82420D4F824310133DBB2C4F8F5
:1057F0002431D4F82C310133C4F82C310130E5E7E1
:105800000025284642B070BD10B4D0E901340168CB
:105810006210E40701EB020048BF8A585DF8044BB0
:1058200048BFD358184730B5044685B000252069D5
:1058300002F009FD012829D0F9DB0328F7DCC4F8C0
:105840002451C4F82851C4F82C511022694620690B
:1058500002F0FBFC002282422ADAD4F82C31B3F5A4
:10586000807F11D0D4F824311DF80210234483F82E
:105870002410D4F824310133DBB2C4F82431D4F835
:105880002C310133C4F82C310132E4E7D4F838323A
:1058900003B19847D4F8302232B104F598712069E9
:1058A00002F0D5FCC4F83052206902F0D8FCBEE703
:1058B0001028CAD8D4F82C31002BF5DDD4F83432B6
:1058C000002BF1D0D4F82C019847EDE773B54FF4D5
:1058D0007A730025C0E90153184B03600446C0E900
:1058E00006124FF48072294624303EF081FB144B9F
:1058F000C4F82451C4F83C322946C4F82851C4F8ED
:105900003052C4F82C51C4F83452C4F83852C4F898
:105910004C5204F51F7034F0D5FC04F50F7604F5F5
:10592000247034F06DFC304600952B464FF48052C5
:10593000182136F097FF204602B070BD6080050048
:105940008CBD050010B500F056F812288ABF1B4B1D
:105950004FF0FF3493F9204100F04DF8132888BF31
:10596000164B17488CBF93F930214FF0FF32214678
:10597000FFF7ACFF134A1449114834F042F800F025
:105980003AF81E288ABF0D4B4FF0FF3493F9E041DF
:1059900000F031F81F2888BF084B0C4888BF93F9E6
:1059A000F021214698BF4FF0FF32FFF78FFF054AE5
:1059B00005490648BDE8104034F023B80402002031
:1059C000CC1600200002002095560100C4190020CA
:1059D00030B5A1F11004002500F00F02D3B2092A5E
:1059E000CCBF373330338B73CD7302398C424FEADF
:1059F0001010F1D130BD22207047000030B50121D8
:105A000085B0192000F066FA0121192000F09EFAF5
:105A1000204A0023D3604FF080420121C2F85C3558
:105A200003F1804303F588334FF48032C3F84823F1
:105A30002120C3F8082300F04DFA0121202000F0B6
:105A400049FA0121212000F081FA0121202000F0F3
:105A50007DFA114B01221A60104A1368002BFCD00A
:105A60000F4B0024C3F80045C3F800450D4B0FCB86
:105A70006D4685E80F00234620464FF0FF3155F86C
:105A800023200133042BC2F80005C2F86015F6D1BB
:105A900005B030BDF0ED00E004200040442100409E
:105AA00000200040AC80050038B54FF0805504461A
:105AB0002146D5F8A800FFF78BFFD5F8A40004F124
:105AC0001001FFF785FF202038BD000072B64FF0AF
:105AD0008043B022C3F81C25BFF34F8F0549064B06
