:020000021000EC
:100000000000042041D8040079D80400359604008B
:100010007DD80400419604004796040000000000CB
:1000200000000000000000000000000001AF04001C
:1000300085D804000000000099AF0400A9AF0400B7
:10004000E1140500C97304008BD804008BD80400A8
:100050008BD804008BD804008BD804008BD8040004
:100060008BD804008BD804008BD804008BD80400F4
:100070008BD80400751605008BD804007980040025
:100080008BD804008BD804008BD804008BD80400D4
:100090008BD804008BD804008BD804008BD80400C4
:1000A0008BD804008BD804008BD804008BD80400B4
:1000B0008BD804008BD80400000000000000000072
:1000C0008BD804008BD804008BD804008BD8040094
:1000D0008BD804008BD804008BD804008BD8040084
:1000E0008BD804008BD804008BD8040000000000DB
:1000F000000000008BD80400000000008BD8040032
:1001000010B5054C237833B9044B13B10448AFF351
:1001100000800123237010BD30110020000000007A
:100120000CF2050008B5034B1BB103490348AFF3BC
:10013000008008BD00000000341100200CF2050012
:10014000154B002B08BF134B9D46A3F5803A0021A9
:100150008B460F461348144A121A46F0D9FA0F4B31
:10016000002B00D098470E4B002B00D09847002062
:10017000002104000D000D48002802D00C483AF080
:1001800059F845F0B7FD200029003AF031FD3AF06A
:100190004EF800BF0000080000000420000000002E
:1001A0004DAB040030110020D816012035A2040008
:1001B0000000000010B5034B0360044601F032FC60
:1001C000204610BD58A5050010B5034B036004463A
:1001D00001F028FC204610BD68A5050010B5034BB2
:1001E00003600446FFF7F0FF204610BD78A5050028
:1001F00010B50446FFF7DEFF20460C213AF056FA10
:10020000204610BD10B50446FFF7DEFF20460C2146
:100210003AF04CFA204610BD10B50446FFF7DEFF59
:1002200020460C213AF042FA204610BD014906F062
:100230003DBC00BF04E00500F0B587B016460C4693
:1002400005461649684606F0C9FB304606F020FD13
:10025000D4E90347A7421CD0214603A806F014FCAA
:1002600003A9304606F0DEFC002804F10C040CDB88
:1002700003A9284606F0EFFB03A806F069FB6846D1
:1002800006F066FB284607B0F0BD03A806F060FB49
:10029000E0E76946284606F0DEFBF0E704E00500EB
:1002A00070B5D0E900560446AE4204D0284606F0A8
:1002B0004FFB0C35F8E7206808B13AF0EBF920461F
:1002C00070BD10B504461830FFF7EAFF04F10C00CA
:1002D000FFF7E6FF204606F03BFB204610BD00007E
:1002E0002DE9F04107468846164615460446444522
:1002F00007D01DB12146284606F0C6FB0C340C354C
:10030000F5E7E41B0448A408444324F040440C20CF
:1003100000FB0460BDE8F081ABAAAA2A2DE9F843EE
:10032000D0E90064A41BA3101F4C5C4314BF2346F8
:100330000123E41805460F469146A1EB06061B4B28
:100340002AD29C4228D844BBA04618EB060002D013
:10035000494606F099FB394642462868FFF7C0FF38
:10036000696800F10C023846FFF7BAFFD5E9006969
:100370000746B14504D0304606F0EAFA0C36F8E7F5
:10038000286808B13AF086F90C2303FB0484C5E918
:100390000087AC60BDE8F8831C460C2060433AF04F
:1003A00053F98046D1E700BFABAAAAAA5555551507
:1003B00038B5D0E90135AB4204460A4607D013B13F
:1003C000184606F061FB63680C33636038BD19465C
:1003D000FFF7A4FFFAE70000F7B502AB03E9060058
:1003E0000023C0E900338360019B0F4A009E0C2468
:1003F0005C430546A010424306EB040708D00B4BB4
:100400009A4201D942F072F820463AF01DF90246AC
:1004100014442A60AC6039463046FFF761FF6860DB
:10042000284603B0F0BD00BFABAAAAAA5555551582
:10043000F0B58BB00025144606461046CDE90155AF
:10044000039506F025FC2946204606F0BDFB0378FF
:10045000282B07AD15D02F49284606F0BFFA0123F7
:100460000593049504AA6B4606CA3046FFF7B4FF0D
:10047000284606F06DFA01A8FFF712FF30460BB0D0
:10048000F0BDA1682046013906F09EFB0378292BB8
:10049000E1D1A3680122013B2146284606F0C6FBB4
:1004A0002946204606F0FAFA284606F051FA2C2191
:1004B000204606F0A5FB002820DD204606F0E8FBDC
:1004C0002C21204606F09CFB0022034607462146CD
:1004D00004A806F0ABFB04A901A8FFF769FFA36815
:1004E0007A1C2146284606F0A1FB2946204606F044
:1004F000D5FA284606F02CFA04A8D6E7019B029A02
:10050000336072600023039A01930293B2600393F5
:10051000B1E700BF80A505002DE9F0439BB0174669
:100520004FF00008064610460D46CDE90888CDF884
:10053000288006F0A1FB3B21384606F061FB4045D0
:1005400030DB3B21384606F05BFB14AC03464246E9
:100550003946204606F06AFB2146284606F0C7FACF
:10056000204606F0F5F9284606F092FB20212846A1
:1005700006F046FBB0F1000911AF22DA2846FFF77A
:1005800055FE8D49204606F029FA01230193009477
:100590006A463B4606CA3046FFF71EFF204606F075
:1005A000D7F907E03946284606F0A1FAC6E90088DF
:1005B000C6F8088008A8FFF773FE30461BB0BDE8F8
:1005C000F0834B46424629460BA806F02FFB0BA8AA
:1005D00006F05EFBAB684A462946204606F026FB3D
:1005E0002146284606F05AFA204606F0B1F9284678
:1005F00006F04EFB71490BA806F0B8FA00283AD075
:100600000BA908A8FFF7D4FE294638462A46FFF76B
:1006100013FE6B49384606F0A9FAB0B12846FFF739
:1006200005FE6849204606F0D9F901230F930E9480
:100630000EAA06AB06CA3046FFF7CEFE204606F0ED
:1006400087F9384606F084F913E008A83946FFF721
:10065000AFFE384606F07CF92846FFF7E7FD089B19
:10066000099A3360726000230A9A08930993B26072
:100670000A930BA893E754490BA806F077FA0028D1
:1006800000F088800BA908A8FFF792FE29460EA863
:100690002A46FFF7D1FD4A490EA806F067FAA0B135
:1006A0002846FFF7C3FD4749204606F097F9012386
:1006B000039302943B4602AA06CA3046FFF78CFE1B
:1006C000204606F045F90EA8BCE70EA908A8FFF7DA
:1006D0006FFE284606F0DCFA2021284606F090FA44
:1006E000021E0CDA2846FFF7A1FD3849204606F025
:1006F00075F90123059304943B4604AADCE7AB6833
:100700002946204606F092FA2146284606F0C6F908
:10071000204606F01DF9284606F0BAFA2A46294670
:100720003846FFF785FEDDE9113999451DD1284688
:10073000FFF77CFD2946204606F0A6F9244917A8B4
:1007400006F04CF902230793069406AA04AB06CAE6
:100750003046FFF741FE17A806F0FAF8204606F0EB
:10076000F7F83846FFF79CFDADE79846414620462E
:1007700006F08AF9214608A8FFF71AFE08F10C08CE
:10078000204606F0E5F8C145F0D13846FFF788FD70
:100790000EA85FE72846FFF749FD0E49204606F000
:1007A0001DF90123129311940EAB97E80600304611
:1007B000FFF712FE204645E78DA5050098A5050028
:1007C00004E005009CA50500ACA50500B7A5050043
:1007D000C1A50500D9A50500F0B593B006AC2A491E
:1007E000054606F0FBF82949204606F0F7F82849A7
:1007F00009A806F0F3F827490CA806F0EFF804273B
:1008000025490FA806F0EAF804AE0294039702AA5D
:10081000334606CA05F10C00FFF7DEFD0FA806F00F
:1008200097F80CA806F094F809A806F091F820466D
:1008300006F08EF81949204606F0D0F8184909A8A4
:1008400006F0CCF817490CA806F0C8F816490FA80E
:1008500006F0C4F8CDE904470DEB070396E806005F
:1008600005F11800FFF7B8FD0FA806F071F80CA805
:1008700006F06EF809A806F06BF8204606F068F856
:10088000284613B0F0BD00BF04E00500E8A5050050
:10089000F4A50500FDA5050001A6050007A60500B5
:1008A000BFE705000BA6050010A6050038B50B4BE9
:1008B0000B4C19680B4D204600F068F920460A4C95
:1008C0000A492A4639F0B1FC2046FFF785FF2A463F
:1008D00020460749BDE8384039F0A7BCE4A8050028
:1008E00070110020000200204C110020D90A0100E4
:1008F000C30201001FB54FF416512348224C07F0E4
:10090000CBF9012005F0C2FE204607F0F6FA0028D8
:10091000F7D01E4B1C68236820469B68984720B977
:100920001B491C4805F0D4FFFEE723681A49DB6B1E
:1009300020469847194800F07BFE20B91849154811
:1009400005F0C6FFFEE71749124805F0A9FF236826
:1009500021461B6A01A8984701A90E4805F0AEFF81
:1009600001A805F0F5FF104800F0A2F90F49094869
:1009700005F0AEFF236820465B6D98470C4905489B
:1009800005F0A6FF04B010BDC8230020E4A80500B0
:100990004DA605000025002060A60500CC1700200C
:1009A0006AA605007DA60500701100208FA605002F
:1009B000A7A605002DE9F0473F4B404D19680B688D
:1009C000A0B01B6F0DA898473D4901A806F006F896
:1009D0000DA801F013F9002852D0012339493A48F3
:1009E0002B7005F05DFF0DA90AA801F0EDF80AA92A
:1009F0003548364E324FDFF8DC8005F05FFF0AA83D
:100A000005F0A6FF0DA801F019F9002838D03146ED
:100A100004A800F0EDF9394604A806F0A7F858BB81
:100A200004AA414607A8FFF777FDDDE9074ADFF88A
:100A3000989054450CD021460AA806F025F80AA93A
:100A4000484605F03BFF0AA805F082FF0C34F0E7AA
:100A500031460AA807AA00F0E7F939460AA806F0C5
:100A600085F818B90AA9184805F028FF0AA805F062
:100A70006FFF07A8FFF714FC04A805F069FFC1E7A2
:100A80002B7883B11249104805F00AFF0DA90AA876
:100A900001F09AF80AA90C4805F010FF0AA805F021
:100AA00057FF00232B7001A805F052FF0DA801F09D
:100AB00047F820B0BDE8F087E4A80500D811002071
:100AC00004E0050015A60500002500207011002097
:100AD00035A605004C11002010B504465C30FFF728
:100AE000DFFB04F15000FFF7DBFB04F14400FFF7EC
:100AF00061FB04F13800FFF75DFB04F12C00FFF708
:100B00006DFB04F12000FFF769FB04F1140001F014
:100B1000A1F904F1080001F09DF9204610BD000084
:100B20002DE9F843561A164CB3105C4307460D46A0
:100B3000904608D0134B9C4201D941F0D7FC304677
:100B400039F082FD0446A3193C60BB60A146A8456C
:100B50000AD0B9F1000F03D02946484605F094FFAA
:100B60000C3509F10C09F2E7074BB608734323F083
:100B700040430C2202FB03447C60BDE8F88300BFC5
:100B8000ABAAAAAA55555515ABAAAA2A30B5002575
:100B90008DB00446057041603749083001F092F984
:100BA000364904F1140001F08DF91222344904F1A0
:100BB000200001F0DBF91222324904F12C0001F08F
:100BC000D5F932230222304904F1380001F0A0F9AE
:100BD000C8230A222D4904F1440001F099F92C4957
:100BE000684605F0FBFE2B4903A805F0F7FE2A49ED
:100BF00006A805F0F3FE294909A805F0EFFE0CAAA6
:100C0000694604F15000C4E91455A565FFF788FF53
:100C100009A805F09DFE06A805F09AFE03A805F0B8
:100C200097FE684605F094FE1D49684605F0D6FE1D
:100C30001C4903A805F0D2FE1B4906A805F0CEFE0C
:100C40001A4909A805F0CAFE0CAA694604F15C001D
:100C5000C4E917556566FFF763FF09A805F078FE3C
:100C600006A805F075FE03A805F072FE684605F0BB
:100C70006FFE20460DB030BD3CA7050041A7050022
:100C800066A705006BA7050070A7050095A70500DE
:100C9000E8A50500F4A50500FDA5050001A60500D1
:100CA00007A60500BFE705000BA6050010A6050076
:100CB00038B500F11405044600F13801284601F06A
:100CC0001FF904F14401284601F01AF9606803682D
:100CD0002946DB6A98476068036829461B6D04F162
:100CE0000805984704F12001284601F009F904F1AC
:100CF0002C01284601F004F9606803682946DB6A84
:100D000098476068036829461B6D98470123237044
:100D1000022038BD70B52DED028B184EDFED188A1C
:100D200082B005460A240121304600F05FFB07EE41
:100D3000900AC82078EEA78A05F0A8FC013CF2D101
:100D4000F2EE047A88EEA78A02A90123042205F1B3
:100D50002000F1EE047A38EE678ADFED0A7A68EE59
:100D6000277AFDEEE77A61ED017A00F0D1FE18EE08
:100D7000100A02B0BDEC028B70BD00BFCC17002082
:100D8000000000000000C84270B52DED028B154E2A
:100D90009FED158A82B005460A24304600F064FBB8
:100DA00007EE900AC82038EE278A05F06FFC013C58
:100DB000F3D1F2EE047AC8EE278A02A901230422B5
:100DC00005F12C00DFED097A68EEA77AFDEEE77AEF
:100DD00061ED017A00F09CFE18EE900A02B0BDECC5
:100DE000028B70BDCC170020000000000000C8423C
:100DF00030B50C4685B00B494434054605F0EEFD90
:100E0000204600F096FE50B1214601A801F08EF870
:100E100001A9284605F042FE01A805F099FD2846E3
:100E200005B030BD04E0050070B590B004460E4634
:100E300001A83849154605F0D1FD364904A805F04A
:100E4000CDFD344907A805F0C9FDD5E90013994245
:100E500004D13149204605F0C1FD45E004A805F064
:100E600004FE296807A80C3105F0FFFD2B4904A8F2
:100E700005F07CFE002843D0294907A805F076FE3E
:100E800038B13046FFF746FF01A9204605F0E3FDE3
:100E90002AE0244907A805F069FE18B13046FFF79B
:100EA00073FFF1E7204907A805F060FE0028EBD1A9
:100EB0001E4907A805F05AFE0028E5D11C490AA8DA
:100EC00005F08CFD0AA90DA805F0DEFD07A90DA807
:100ED00005F01EFE0146204605F0D6FD0DA805F0E2
:100EE00037FD0AA805F034FD07A805F031FD04A878
:100EF00005F02EFD01A805F02BFD204610B070BDB9
:100F00000C4904A805F032FE08B10B49A2E70B49D1
:100F1000A0E700BF04E00500C7A6050098A50500EE
:100F2000E8A50500F4A50500FDA5050001A605003E
:100F3000DAA60500ACA50500EFA605000EA7050082
:100F4000704700207047490000230162C0F830322A
:100F50007047036801211B6B184710B403689C6B32
:100F60000123A4465DF8044B6047D0F83032B3F556
:100F7000807F1FBF5A1CC0F83022C01880F8301183
:100F800014BF012000207047D0F82C017047704733
:100F9000C0F834127047C0F838127047D0F82C31BE
:100FA0002BB1D0F82831184490F8240070474FF046
:100FB000FF3070470346D0F82C01A8B1D3F82C219C
:100FC00082B1D3F828211A4492F82400D3F82821BA
:100FD0000132D2B2C3F82821D3F82C21013AC3F848
:100FE0002C2170474FF0FF307047000010B5044BC4
:100FF0000360044600F50F703CF0DAF8204610BD9F
:10100000D0A7050038B50446802039F01DFB94F9BF
:101010001C2094F91810054607F0C0FC656138BD26
:101020007FB5044648200E4639F00EFB94F91C208B
:1010300094F91810054607F0EBFC7100284625616D
:1010400007F002FD094B0393094B01936946002306
:1010500004F50F70029300943CF024F8039B13B145
:101060009B686846984704B070BD00BFBCA70500E8
:101070008D1101000B6803604B6843608B688360CF
:10108000704738B5D0F8303214461A44B2F5807F34
:1010900088BFC3F58074054600F598702246184451
:1010A00045F038FAD5F830322344C5F830322046BE
:1010B00038BD10B50446406910B10368DB68984735
:1010C000206920B14821BDE8104039F0EFBA10BDC9
:1010D00038B5044640690D4608B107F069FB206940
:1010E00020B12946BDE8384007F0ACBC38BD07B593
:1010F00081F001010091D0F83032016A00F5987258
:10110000406907F083FB002814BF0220002003B0D1
:101110005DF804FB70B5C2B083F00103009302AE2A
:1011200004461546134649003246406907F08FFBD6
:10113000C8B9A84218D0D4F82C31B3F5807F10D0AC
:10114000D4F82431325C234483F82420D4F82431A9
:101150000133DBB2C4F82431D4F82C310133C4F8A4
:101160002C310130E5E70025284642B070BD10B4AF
:10117000D0E9013401686210E40701EB020048BFC6
:101180008A585DF8044B48BFD358184730B5044619
:1011900085B00025206907F05EFC012829D0F9DB25
:1011A0000328F7DCC4F82451C4F82851C4F82C51A2
:1011B00010226946206907F050FC002282422ADA98
:1011C000D4F82C31B3F5807F11D0D4F824311DF838
:1011D0000210234483F82410D4F824310133DBB205
:1011E000C4F82431D4F82C310133C4F82C31013245
:1011F000E4E7D4F8383203B19847D4F8302232B15A
:1012000004F59871206907F02AFCC4F8305220696F
:1012100007F02DFCBEE71028CAD8D4F82C31002BDB
:10122000F5DDD4F83432002BF1D0D4F82C019847F6
:10123000EDE7000073B54FF47A730025C0E9015360
:10124000184B03600446C0E906124FF48072294629
:10125000243045F05DFA144BC4F82451C4F83C32F4
:101260002946C4F82851C4F83052C4F82C51C4F8A7
:101270003452C4F83852C4F84C5204F51F7039F097
:1012800035FC04F50F7604F5247039F0CDFB3046BB
:1012900000952B464FF4805218213BF0F7FE204674
:1012A00002B070BDD0A70500FCE9050010B504F040
:1012B000C4FF12288ABF1B4B4FF0FF3493F9204123
:1012C00004F0BBFF132888BF164B17488CBF93F957
:1012D00030214FF0FF322146FFF7ACFF134A14498B
:1012E000114838F0A2FF04F0A8FF1E288ABF0D4B5A
:1012F0004FF0FF3493F9E04104F09FFF1F2888BFAF
:10130000084B0C4888BF93F9F021214698BF4FF055
:10131000FF32FFF78FFF054A05490648BDE8104038
:1013200038F083BF04020020DC11002000020020FE
:10133000ED0F0100D414002070B504460068036866
:101340000D46DB6A5F2198472068036829461B68C1
:1013500098472068036800211B6B984768B920688C
:1013600003680122DB6B5F219847012805D12068C3
:101370000368BDE870405B6918474FF0FF3070BDEF
:1013800070B506460C46FFF7D7FF611C0546C9B28B
:101390003046FFF7D1FF45EA002070BD70B5044626
:1013A000006803680E46DB6A5F211546984720688F
:1013B000036831461B6898472068036829461B6804
:1013C0009847206803685B6B9847B0FA80F0400943
:1013D00070BD10B5044600222021FFF7DFFF206812
:1013E0000368BDE810405B6A1847000038B5012269
:1013F0000D4621210446FFF7D1FF27212046FFF7A4
:101400009BFFC30702D405F049F9F6E72A212046DD
:10141000FFF7B6FF00B207EE900AD4ED036AB8EE0C
:10142000E77AD4ED047AE7EE267A9DB917EE900AB2
:1014300042F0DCF90022094B42F030FA0022084B5E
:1014400042F056FB0022074B42F072F842F0D6FC05
:1014500007EE900A17EE900A38BD00BF0000224048
:10146000000014400000404010B501222121044634
:10147000FFF794FF27212046FFF75EFF830702D482
:1014800005F00CF9F6E728212046FFF779FF00B2B6
:1014900007EE900AD4ED016A94ED027AF8EEE77A4D
:1014A000A7EEA67A17EE100A10BD00002DE9F04F46
:1014B0002DED048B302183B00446FFF73DFF312131
:1014C00080462046FFF738FF322100902046FFF784
:1014D00033FF352183462046FFF72EFF3321054693
:1014E0002046FFF729FF352182462046FFF724FFDB
:1014F000362106462046FFF743FF3A2103B2204635
:1015000008EE903AFFF73CFF3C2181462046FFF76A
:1015100037FF3E2103B2204608EE103AFFF730FFB6
:10152000009B07465FFA88F8D8B2A0EB080042F0AB
:101530004BF918EE903ACDE900010FFA89F0C01A84
:1015400042F042F902460B4641F0F2FF02460B46DA
:10155000DDE9000142F0CCFA42F050FC09EE100A3D
:101560006060404642F030F9F8EEE88A00222E4BE7
:1015700042F094F968EE897A804617EE900A89461F
:1015800042F034F902460B464046494641F0CEFF50
:1015900042F034FC2D02A060B00105F4407500F467
:1015A000407045EA0B0B40EA0A001FFA8BFB80B241
:1015B000A0EB0B0042F008F918EE103A804638B262
:1015C000C01A894642F000F90022184B42F066F931
:1015D00002460B464046494642F08AFA42F00EFC6B
:1015E00008EE900AE060584642F0EEF8B8EEC88A7D
:1015F00000224FF07F5342F051F968EE287A0646F8
:1016000017EE900A0F4642F0F1F802460B463046BC
:10161000394641F08BFF42F0F1FB206103B0BDEC95
:10162000048BBDE8F08F00BF0000E03F00002040C9
:1016300010B5044600680368DB6998470F2120460F
:10164000FFF77AFEBC28204603D0FFF7C2FE002039
:1016500010BDFFF72BFF802220212046FFF79EFEC2
:101660000120F5E7014B024A1A607047CC170020B1
:10167000D4140020704710B55C21044639F016F8E8
:10168000204610BD0B4A02601F210022C0E909213B
:10169000C0E90B2280F8342080F83520C0E90E2202
:1016A0000264A0F8442080F84620C0E91222C0E974
:1016B0001522704724A805008B6A8362CB6AC36237
:1016C0000B6B036391F8343080F8343091F8353087
:1016D00080F835308B6B8363CB6BC3630B6C036417
:1016E000B1F84430A0F8443091F8463080F84630E4
:1016F0008B6C8364CB6CC364B1F85030A0F850306D
:101700004B6D43658B6D8365704708B5FFF7D4FF5C
:1017100008BD70B5054686B068460E4603F024FA4B
:10172000EC6C6846002CCCBF0234002403F059FA5C
:101730000230241AA86A241808D4AC62AE64684641
:1017400003F04FFAE864012006B070BD0020FBE70B
:1017500010B5036C23B190F84640023304B1023354
:10176000941C1B1B846A1B1958BFC0E90F124FF051
:1017700000045BBF80F8464083622046012010BD14
:1017800030B5046C24B190F84650023405B10234EF
:101790001D1D641B856A64195FBFC0E90F23012307
:1017A000A0F8441080F8463056BF846200201846E6
:1017B00030BD30B5846D002CCCBF043400241D1D19
:1017C000641B856A64195DBFC0E91523A0F8501039
:1017D0008462002058BF012030BD70B50546806B83
:1017E0000E4688B1047814B145F08AFC841C30465A
:1017F00045F086FC0230241AA86A24185DBFAC624A
:10180000AE630120002070BD0446F0E790F835304B
:10181000826A002B0CBF6FF0020300239B185FBF8E
:101820008362012380F8353080F8341054BF1846A5
:101830000020704704307047406A704790F83500C8
:10184000704738B50446406AC0F11F0393421546FD
:1018500008DB0430204444F05DFE626A2A44626280
:10186000012038BD0020FCE770B50446406A0E46F2
:101870001D4611460233C0F11F029A420FDB2318A6
:101880006A1C1A71821C0630626220445E712A460C
:1018900044F040FE636A2B446362012070BD002067
:1018A000FCE770B586B00546684603F05DF968460A
:1018B00003F097F9022804466846CCBF06260226A4
:1018C00003F08DF92346024631462846FFF7CCFF48
:1018D00006B070BD13460A46FF21FFF7C5BF70B5BD
:1018E00088B008AC064624F8201D10461D461A464E
:1018F00001460DF1020044F00DFEAB1C2246FF2113
:101900003046FFF7B1FF08B070BD70B588B008ACC5
:10191000064624F8201D10461D461A4601460DF1C4
:10192000020044F0F7FDAB1C224616213046FFF7BB
:101930009BFF08B070BD07B502AA012302F8011D84
:101940001946FFF791FF03B05DF804FB70B505463B
:1019500010460E46144645F0D3FB22460346314658
:101960002846BDE87040FFF77FBF70B505460846C2
:101970000C4645F0C5FB1D2807D9224628461D23E5
:101980000821BDE87040FFF76FBF224628460921B5
:10199000BDE87040FFF7DABF38B5C16A00230546DD
:1019A000436229B1026B1AB1BDE83840FFF749BF65
:1019B00095F835307BB395F834102846FFF7BBFF18
:1019C0000446A96C21B12846FFF76BFF0440E4B23E
:1019D000E96B61B12B6C53B195F84620EAB10A4628
:1019E0002846B5F84410FFF77AFF0440E4B26A6D68
:1019F00042B1AB6D33B1B5F850102846FFF785FF03
:101A00000440E4B2A96B21B12846FFF7AEFF0440C1
:101A1000E4B2204638BD0124D3E71A462846FFF732
:101A200059FFE2E70D4B10B504460360406840B132
:101A300000F0DEFA002804DC606810B103685B681F
:101A40009847A06840B100F0ECFF002804DCA068D3
:101A500010B103685B689847204610BD34A80500A4
:101A600010B50446FFF7DEFF20460C2138F01EFEBD
:101A7000204610BD064B10B5C0E9003100230446D6
:101A8000836011B1084600F0AEFA204610BD00BFD9
:101A900034A80500064B10B5036000230446C0E9D6
:101AA000013111B1084600F0B7FF204610BD00BF5C
:101AB00034A805002DE9F3410446542098460E460B
:101AC000174638F0C1FD9DF8203000930546434687
:101AD0003A46314600F064FB29462046FFF7CAFF2C
:101AE000204602B0BDE8F0810346406808B100F02E
:101AF0008CBA986808B100F0BBBF704703464068D5
:101B000008B100F084BA986808B100F0B3BF70471C
:101B100010B4446824B120465DF8044B00F07ABA52
:101B2000806818B15DF8044B00F0A6BF5DF8044B67
:101B30007047406808B100F0DABA704740687047F3
:101B400070470000024B186803681B69184700BF04
:101B50007CAB0500024B186803685B69184700BF3F
:101B60007CAB050010B4054B01791B681A685469F9
:101B7000421D184623465DF8044B1847F4A905009A
:101B800010B50B4B0446186821790368621D9B6AE7
:101B900098474FF6FF739842014606D0054B1868E8
:101BA0000268BDE81040526A104794F94B0010BD1E
:101BB000F4A905007CAB050010B54C21044638F0B3
:101BC00075FD204610BD000010B58AB00446487966
:101BD0004B7A8A7A039088790290C8790190097AC1
:101BE000009105A8044944F0B5FF05A9204604F07A
:101BF000F5FE20460AB010BD3CA8050007B500233D
:101C00000622694605300093ADF8043044F050FCDC
:101C1000003018BF012003B05DF804FB08B502795D
:101C20000B799A4208D106220531053044F040FC78
:101C3000B0FA80F0400908BD0020FCE710B50A4B5F
:101C40000446186803681B699847236820461B6A86
:101C5000984740B1054B217918680368621D5B6B9A
:101C6000BDE81040184710BD7CAB0500F4A9050085
:101C700008B502790B799A4208D106220531053060
:101C800044F016FC003018BF012008BD0120FCE71D
:101C9000064A02607F210022C272027380F84B1054
:101CA000C0F80520A0F80920704700BF64A805000F
:101CB00010B501710021C1720173064C04607F21CF
:101CC00080F84B101168C0F805109288A0F8092020
:101CD00010BD00BF64A805002DE9F0410F4614496E
:101CE000064604F07BFE3A7B00218A421CDD7B180D
:101CF00001F10208597B9B7B083B012B01F1FF346A
:101D00000FD82146304604F042FE0025AC420BDDE0
:101D100008EB05033B443046597B04F0ECFE0135EB
:101D2000F4E704EB0801E0E73046BDE8F08100BFCE
:101D300004E005002DE9F04F85B088462249019264
:101D4000834604F04BFE0024A14698F80C30A342D1
:101D500035D908EB0403671CFFB25E7B08EB070371
:101D60005B7B9A1E012A25D9063B012B24D810251E
:101D70000234E4B205FB05F30D34009344444FF004
:101D8000000A731EEAB2534516DD019989450BD14D
:101D9000114620460393029202F026FF0146584660
:101DA00004F084FEDDE90223009909F10109AA4447
:101DB0000C44E8E70225DBE73E44F4B2C5E75846A9
:101DC00005B0BDE8F08F00BF04E0050010B50022AB
:101DD0000446FFF7AFFF204610BD08B51346027951
:101DE0008A4208D106221946053044F061FBB0FA58
:101DF00080F0400908BD0020FCE710B50446012032
:101E000000FA01F1E1722273194604F10D0044F069
:101E100081FB9DF9083084F84B3010BD70B50D463C
:101E20001146C27A42F010020446C272007B0D30A5
:101E30002A4620441E4644F06DFB237B84F84B6009
:101E40001D44257370BDC37A13F0180F14BF012011
:101E5000002070470D4B10B504460360406840B148
:101E600000F0C6F8002804DC606810B103685B6805
:101E70009847A06840B100F0D4FD002804DCA068B9
:101E800010B103685B689847204610BD98A805000C
:101E900010B50446FFF7DEFF20460C2138F006FCA3
:101EA000204610BD064B10B5C0E9003100230446A2
:101EB000836011B1084600F096F8204610BD00BFBF
:101EC00098A8050070B5044630200E4638F0BCFBDB
:101ED0003146054600F0E0FC29462046FFF7E2FFC8
:101EE000204670BD0346406808B100F073B898689A
:101EF00008B100F08FBD0148704700BF04E0050045
:101F0000406808B100F006BD7047406870470000A7
:101F100037B5002500950446FFF7CCFD024B236042
:101F2000204603B030BD00BF58A50500F8B50D46EA
:101F30000D49044604F052FD2846FFF7DFFD064632
:101F40002846FFF7D1FD31460746204604F01FFD25
:101F50003D46EB1B9E4205DD15F8011B204604F0B3
:101F6000CAFDF6E72046F8BD04E0050030B585B0AF
:101F70000125044600950423FFF79CFD04A9074BA7
:101F80002360002341F8043D04222B462046FFF73E
:101F9000BFFD034B2360204605B030BD68A505009A
:101FA00078A5050070470020704710B52021044631
:101FB00038F07CFB204610BD10B5054B044640F8B8
:101FC000043B02F0D1FD0023E361204610BD00BFB9
:101FD000A8A80500043002F000BE043002F0FFBDE6
:101FE000043002F0FEBDC3690133C3611846704777
:101FF000C369013BC3611846704742F6030070474E
:1020000090F820007047406A7047806A7047808D62
:1020100070470000F8B51546426AAA42A8BF2A4692
:102020000446828592B2806A0E4644F073FA94F8B0
:102030002E300BB1636AA38594F8203098060DD535
:10204000A28E91070AD51F4B218E18680368DD6C9C
:102050000131A38DA26A89B2A847F8BDDA0609D575
:10206000A38EDB0706D5174B218E18680368013154
:102070009D6CEEE794F832300BB90120EDE7124B7E
:102080001868036821465B6A9847104B1C682368F0
:1020900001461F6B32462B462046B847094B18684D
:1020A00003681B6B98470028E7D1094B1868036841
:1020B0009B6898470028E0D0236820465B6D9847CE
:1020C000DBE700BFF4A905001CAB0500E4A8050090
:1020D000D0AA050038B5054608460C4645F010F86C
:1020E000214602462846BDE83840FFF793BF034625
:1020F000002290F8330083F8332070470186704740
:10210000008E7047008E013080B27047806B704740
:10211000836B994208D2C36B0022914202D05B6864
:102120000132FAE7186870470020704730B5114B4C
:1021300003600B7903710B4601F1490453F8052F35
:10214000C0F805209B88A0F80930CB7AC3720B7BBE
:10215000037300F10D0201F10D0353F8045B42F823
:10216000045BA342F9D11B88138091F94B3080F8AE
:102170004B3030BD64A8050038B5044608200D4634
:1021800038F062FA0023C0E9005363682BB960603D
:102190002368A0600133236038BDA3685860F7E767
:1021A00070B504461D461646FFF706FFB5F5007FDD
:1021B0001A4B23602B46A8BF4FF4007300216362C3
:1021C0009DF8103084F82060A18584F82E30218697
:1021D00084F8321084F83310A186C4E90E1121640A
:1021E000102204F1440044F093FA16F0300F0ED0A0
:1021F0002C2038F029FA0A490646022304F1340259
:1022000000F0D6F8314604F13800FFF7B5FF284654
:1022100043F030FEA062204670BD00BFC4A8050098
:10222000B4A8050070B50446406800252368AB4299
:1022300006D94668082138F039FA01353046F5E705
:102240000023C4E90033A36070BD0000164B70B5D5
:10225000044603600025A36B9D4213D2E36B00226A
:10226000954202D05B680132FAE71E683046FFF7FC
:10227000BFFE002804DC1EB1336830465B68984717
:102280000135E8E704F138052846FFF7CBFFA06ADF
:1022900008B143F0F7FD2846FFF7C4FF2046FFF7DB
:1022A00081FE204670BD00BFC4A8050010B50446DD
:1022B000FFF7CCFF2046542138F0F8F9204610BD36
:1022C000F0B5C56C97B0044617461E467DB103A80D
:1022D000FFF72CFF21466846FFF7CCFB694603A8B1
:1022E000A8476846FFF79EFB03A8FFF729FCA16AF1
:1022F0001C9A3944304644F00DF917B0F0BD70B562
:1023000004460E461146012280F8332096B01A4644
:10231000FFF780FE256D85B1314603A8FFF706FF64
:1023200021466846FFF7A6FB694603A8A84768460A
:10233000FFF778FB03A8FFF703FC16B070BD30B5BC
:10234000838E02F00302934297B0044617D0828630
:10235000002A0CBF44224022024455687DB103A8E4
:10236000FFF7E4FE21466846FFF784FB694603A8B1
:10237000A8476846FFF756FB03A8FFF7E1FB17B035
:1023800030BD4FF42450704710B5034B0360044632
:10239000FFF708FE204610BDD8A8050010B504467A
:1023A000FFF7F2FF20462C2138F080F9204610BDBF
:1023B00070B504461D461646FFF7FEFD064B23602A
:1023C000B5F5007FA8BF4FF4007500232662656253
:1023D0002385204670BD00BFD8A80500406A70471D
:1023E000006A704701857047064B1868036810B58E
:1023F000DB689847044B18680368BDE81040DB6849
:10240000184700BF1CAB05007CAB0500024B1868E9
:1024100003681B69184700BF7CAB0500024B1868B6
:1024200003685B69184700BF7CAB050010B5064B1D
:10243000186803681B699847044B18680368BDE86F
:1024400010401B6B184700BF7CAB0500F4A90500CA
:10245000024B186803681B6C184700BFF4A90500FD
:102460000430704760307047024B186803681B697E
:10247000184700BF1CAB0500024B186803685B6976
:10248000184700BF1CAB0500024B186803689B6926
:10249000184700BF1CAB0500024B186803681B6996
:1024A000184700BFD0AA0500024B186803685B6993
:1024B000184700BFD0AA0500024B186803685B6A82
:1024C000184700BFD0AA050010B5074B044618688E
:1024D00003681B699847054B19680B6820465B6CBD
:1024E0009847204610BD00BF7CAB0500F4A905004D
:1024F00010B5074B0446186803681B699847054BDD
:1025000019680B6820469B6A9847204610BD00BF9B
:102510007CAB0500D0AA0500024B18680368DB6A93
:10252000184700BFD0AA0500024B186803685B6912
:10253000184700BFECAC0500024B186803689B69A4
:10254000184700BFECAC0500024B186803681B6B12
:10255000184700BFD0AA0500024B18680368DB6863
:10256000184700BFF4A90500024B186803681B6EEA
:10257000184700BF7CAB0500024B186803685B6E10
:10258000184700BF7CAB0500F0B5264B1D682B68D3
:1025900087B004469B6828469847064620B92368BA
:1025A0002046DB6898470DE0642004F06FF82B6844
:1025B00028469B699847064638B123682046DB6861
:1025C00098470026304607B0F0BD05AA2B68019257
:1025D0000DF112020092DF6904AA0DF10E030DF154
:1025E0000D012846B8470028D9D12B684FF0FF329B
:1025F000996A28466FF04043884706460028DCD198
:102600002B680DF10F02DB6A0DF116012846984781
:102610000028C4D1044B186803689B6898470126BA
:10262000D0E700BF7CAB05001CAB050010B58CB03B
:1026300000230593ADF81830104B04461868036862
:1026400005A91B6A98479DF8141003919DF8151071
:1026500002919DF8161001919DF817109DF8183001
:102660009DF81920009107A8054944F073FA07A9BD
:10267000204604F0B3F920460CB010BD7CAB050039
:102680003CA805000430FFF744B870B50368044661
:1026900008469D6AFFF726FC2B4601462046BDE80A
:1026A000704018470430FFF784B80430FFF750B883
:1026B0000430FFF765B86030FFF78FB86030FFF780
:1026C00024B810B5041D2046FFF71FF82046FFF779
:1026D000B5F828B920460621BDE81040FFF796B8A6
:1026E00010BD00002DE9F743051D0446603428465F
:1026F000FFF752F92046FFF74FF90E4B1E6833687B
:102700002846DF68FFF796F880462846FFF794F8DA
:1027100005462046FFF78EF881462046FFF78CF8E5
:10272000C0B200904B46EAB241463046B84703B0CB
:10273000BDE8F083D0AA05007FB5094B1C6823686B
:10274000164601A89D6904F09FF9324601A920466A
:10275000A847044601A804F0FBF8204604B070BD69
:10276000D0AA05007FB5094B1C682368164601A84E
:10277000DD6904F089F9324601A92046A8470446DC
:1027800001A804F0E5F8204604B070BDD0AA050009
:102790007FB5094B1C682368164601A81D6A04F022
:1027A00073F9324601A92046A847044601A804F05F
:1027B000CFF8204604B070BDD0AA050002290BBF97
:1027C000044B054B186818680BBF036803685B6B04
:1027D0001B6D1847D0AA0500F4A9050038B50446BA
:1027E000084B44F8043B05462046FEF74BFF05F135
:1027F0006000FEF747FF06212046FFF707F828464E
:1028000038BD00BFF0A8050010B5054C2046FFF705
:10281000E5FF2046034A0449BDE8104037F005BDF6
:10282000E0170020000200202D28010010B5054B04
:10283000044640F8603BFEF71DFF201DFEF71AFF1F
:10284000204610BDF0A8050010B50446FFF7EEFFC6
:102850002046BC2137F02AFF204610BD10B50B4B97
:1028600019680B6894B001A85B6C984701A8FFF742
:10287000C5F948B101A8FFF783F9044601A8FFF79D
:102880005FF9204614B010BD7F24F7E7F4A90500D6
:102890004FF420507047000010B50446FFF78CFB42
:1028A000044B23600023C4E90833C4E90A332046FB
:1028B00010BD00BF98A90500018442847047008CB8
:1028C0007047408C7047406A7047436A994208D20B
:1028D000836A0022914202D05B680132FAE71868ED
:1028E00070470020704738B5044608460D46FFF78C
:1028F0007AFB082037F0A8FE0023C0E90053A36A42
:102900002BB9A062636AE0620133636238BDE36A97
:102910005860F7E710B504460846FFF70FF901467F
:1029200020B12046BDE81040FFF7DDBF10BD70B5F7
:102930000446406800252368AB4206D94668082152
:1029400037F0B4FE01353046F5E70023C4E9003323
:10295000A36070BD144B70B5044603600025636A24
:102960009D4213D2A36A0022954202D05B680132D5
:10297000FAE71E683046FFF73BFB002804DC1EB177
:10298000336830465B6898470135E8E704F1240571
:102990002846FFF7CCFF2846FFF7C9FF2046FFF780
:1029A00001FB204670BD00BF98A9050010B5044684
:1029B000FFF7D0FF2046302137F078FE204610BDCB
:1029C00010B5044B044640F8043B03F0C1FF204619
:1029D00010BD00BFACA9050010B50446FFF7F0FF1D
:1029E0002046142137F062FE204610BD38B504465B
:1029F0002546074B45F8043B0846114602F0F4F81B
:102A00000146284603F0EAFF00232361204638BD33
:102A1000ACA905004068704703690133036118469B
:102A200070470369013B03611846704738B5044697
:102A30001D46FFF7DBFF0D4B2360BDF81030E3822E
:102A40009DF814302376BDF81830638301220023EB
:102A5000A582C4E9073384F8243084F82520C4E92A
:102A60000A33C4E90C33204638BD00BFBCA90500B9
:102A7000C0697047006A70472DE9F0439846274BBC
:102A80001E68336885B004460F469B6B818A3046CA
:102A90009146984718B9002005B0BDE8F083336827
:102AA000A18ADB6B30469847033885B24D45A8BFF5
:102AB0004D462946E06943F08BFEE0610028EAD0EC
:102AC000237E1A071CD5B8F1000F19D003A833686C
:102AD0000190E8B20090D3F85880628BA18A3B46FF
:102AE0003046C0470028D7D09DF80C30012BD2D0FB
:102AF0002A463946E06943F00DFD25620120CBE707
:102B00005B07C8D53368628BA18AE8B20090D3F81E
:102B10005C8030463B46C047EAE700BFF4A90500A9
:102B2000408B704738B5044608460D46FFF774FFE2
:102B3000082037F089FD0023C0E90053E36A2BB970
:102B4000E062A36A20630133A36238BD236B58603F
:102B5000F7E770B50446406800252368AB4206D904
:102B60004668082137F0A2FD01353046F5E700231D
:102B7000C4E90033A36070BD03688B4208D9436881
:102B800000228A4202D05B680132FAE71868704777
:102B900000207047F8B50546144B45F8283B04461D
:102BA0000026A36A9E420FD231462846FFF7E4FF73
:102BB0000746FFF736FF002804DC1FB13B683846A4
:102BC0005B6898470136ECE72846FFF7C2FFE069EB
:102BD00018B143F057F90023E3612846FFF7B9FF26
:102BE0002046FFF7EDFE2046F8BD00BFBCA905005A
:102BF00010B50446FFF7CEFF2046382137F056FDCA
:102C0000204610BD70B50446036296B00D46C069FB
:102C10001946164643F0DCFDE06110B9206216B09B
:102C200070BD012384F824300023314684F8253018
:102C3000226A43F06FFC666B002EF0D0194B0393B1
:102C40002B798DF810302B4605F1490153F8052FEB
:102C5000CDF811209B88ADF81530EB7A8DF8173040
:102C60002B7B8DF818300DF1190205F10D0353F887
:102C7000040B42F8040B8B42F9D11B88138095F8A2
:102C80004B308DF8573021466846FEF703FF694602
:102C900003A8B0476846FEF7C5FE03A8FEF750FF3D
:102CA000BDE700BF64A80500074B10B504460360EC
:102CB000806918B143F0E6F80023A3612046FFF7CE
:102CC0007FFE204610BD00BFCCA9050010B504460C
:102CD000FFF7EAFF2046202137F0E8FC204610BD30
:102CE00038B504461D46FFF781FE054B2360BDF84D
:102CF0001030E3820023A582C4E90633204638BDA4
:102D0000CCA90500034A02600022C0E90122C2608A
:102D1000704700BFDCA9050038B5044608460D46DB
:102D2000FFF77AFE082037F08FFC0023C0E900533C
:102D3000A3682BB9A0606368E0600133636038BDAD
:102D4000E3685860F7E7406870474368994208D2E3
:102D500083680022914202D05B680132FAE718686A
:102D600070470020704770B504464068002523680E
:102D7000AB4206D94668082137F098FC0135304649
:102D8000F5E70023C4E90033A36070BD70B50646C3
:102D9000002473689C4213D2B3680022944202D08C
:102DA0005B680132FAE71D682846FFF73AFE002803
:102DB00004DC1DB12B6828465B6898470134E8E7BE
:102DC000301DFFF7D0FF70BD38B50446054B44F801
:102DD000043B0546FFF7DAFF2046FFF7C4FF28460D
:102DE00038BD00BFDCA9050010B50446FFF7ECFFB5
:102DF0002046102137F05AFC204610BD38B5044655
:102E00001D46FFF7F3FD084B2360BDF81030E38249
:102E1000A582064904F1180003F0E0FD0023C4E98F
:102E20000933E362204638BDECA9050004E0050043
:102E3000808A7047C08A7047406A7047436A9942E7
:102E400008D2836A0022914202D05B680132FAE71D
:102E5000186870470020704738B5044608460D468C
:102E6000FFF7DAFD082037F0EFFB0023C0E900533D
:102E7000A36A2BB9A062636AE0620133636238BD62
:102E8000E36A5860F7E770B5044640680025236898
:102E9000AB4206D94668082137F008FC01353046B8
:102EA000F5E70023C4E90033A36070BD164B70B58D
:102EB000044603600025636A9D4213D2A36A002280
:102EC000954202D05B680132FAE71E683046FFF790
:102ED000A8FD002804DC1EB1336830465B689847C3
:102EE0000135E8E704F124052846FFF7CCFF284622
:102EF000FFF7C9FF04F1180003F02AFD2046FFF791
:102F00005FFD204670BD00BFECA9050010B504466A
:102F1000FFF7CCFF2046302137F0C8FB204610BD1C
:102F200081807047816070472DE9FF41013A13F8B5
:102F3000014BD6B20268CDE90233D26B05460F468B
:102F400090470C2C02462968029B73D02ED8052C82
:102F500065D019D8022C5ED00BD8012C52D0062394
:102F60000093D1F8B8600023224639462846B0477E
:102F700068E0032C51D0042CF1D100930C6F334640
:102F800039462846A0475DE0092C4DD007D8062CCD
:102F900047D0082CE3D10093D1F88040EFE70A2C0A
:102FA00048D00B2CDBD1D1F890402CE0162C4CD023
:102FB0000FD8112C3BD005D8102CD0D10093D1F8CC
:102FC0009440DCE7122C18D0132CC8D1D1F8A440BF
:102FD00019E01D2C04D00CD8182C3AD01B2CBED1D3
:102FE0000093D1F8B0803346224639462846C04780
:102FF00028E01E2C31D0522CB1D1CDE90063D1F89C
:10300000A0601BE00C6E324639462846A44604B048
:10301000BDE8F04160474C6EF5E7CC6EF3E78C6F8E
:10302000F1E70093CC6FAAE7D1F88840EBE7D1F83D
:103030009C40E8E7CDE90063D1F88C60234639462F
:103040002846B04704B0BDE8F0810093D1F8A8400D
:1030500095E70093D1F8AC4091E7D1F8B440D2E7BE
:1030600082894FF6FF739A4207D1838B934204D132
:10307000808DC01A18BF012070470120704708B525
:1030800003689B6A98474FF6FF73C01A18BF012068
:1030900008BD000038B50A4B0546186803681B696F
:1030A0000C469847AB89A34207D0AB8BA34204D010
:1030B000A88D031B5842584138BD0120FCE700BFD2
:1030C0007CAB050083898B420AD0838B8B4209D06D
:1030D000838D8B4208D1022300EB0310C08A704716
:1030E0000023F9E70123F7E7172070471FB5ADF874
:1030F0000D200268009302248DF80C400323D2F8BF
:10310000CC4003AAA04704B010BD1FB5ADF80920FC
:10311000ADF80B30069A0368009204248DF808403D
:1031200002AAD3F8CC400523A04704B010BD1FB5B8
:10313000ADF80B30BDF81830ADF80920ADF80D3002
:10314000079A0368009210248DF8084002AAD3F869
:10315000CC400723A04704B010BD1FB5ADF80B301D
:10316000BDF81830ADF80920ADF80D30079A0368A6
:10317000009208248DF8084002AAD3F8CC40072317
:10318000A04704B010BD012380F83C307047000018
:103190001FB5ADF80A309DF818308DF80C30084B8B
:1031A0008DF8092001208DF80800186802AA03682C
:1031B00000929C6D04220523A04704B010BD00BFFF
:1031C0007CAB050001299CBF00EB81004265704784
:1031D0001FB5ADF80D20026800930A248DF80C404D
:1031E0000323D2F8CC4003AAA04704B010BD0000CE
:1031F0002DE9F843DFF85C8000F1100400F1400590
:1032000000264FF6FF774FF0170934F8041CB94237
:1032100017D0D8F800000368DB6D984788B904F828
:10322000020C04F8010C2060A080A06824F8047C43
:103230000136A4F8069010B103685B689847002334
:10324000A3601034AC42E0D1002ED4BF0020012096
:10325000BDE8F8837CAB050010B5044B0360044661
:10326000006C08B142F00EFE204610BD00AA050019
:1032700010B50446FFF7F0FF20465C2137F016FA40
:10328000204610BD2DE9F0431C4B1D688BB0062372
:103290000F460421002490462A680097CDE90713C1
:1032A000C821CDE905410C21CDE90331CDE90184E7
:1032B0000646D2F84C902346302260212846C84763
:1032C000D0B903F0D1F9044603F0CEF9B368001B7E
:1032D00098422B680DD21B692846984733684246AE
:1032E0005B6B3946304698470028EDD00BB0BDE8FF
:1032F000F0835B6D284698470020F7E77CAB05001C
:10330000F8B503689B6A044698474FF6FF739842E6
:1033100006461CD00F4B1D682B680146DB6D284606
:10332000984703F0A1F9074603F09EF9A368C01B74
:1033300098420CD22B6828461B699847236831466F
:103340009B6B204698470028EED10120F8BD002055
:10335000FCE700BF7CAB05002DE9F3410546089C66
:10336000A5F848101078EC64013085F84A00002078
:1033700085F850001848066830680092D0F85880E8
:10338000DBB2042230460F46C0471CB303F06CF991
:10339000044603F069F9AB68001B984214D2336805
:1033A00030461B6998472B6839469B6B28469847DF
:1033B00050B195F850000028EBD04FF6FF73A5F8F8
:1033C000483002B0BDE8F0814FF6FF73A5F84830F1
:1033D0000020F6E72046F4E77CAB05002DE9F04736
:1033E000994603689B6A044698474FF6FF739842D4
:1033F000054604D14FF000084046BDE8F087236839
:103400000146D3F8BC302046984780460028F1D0CA
:10341000A389AB4236D0A38BAB4235D0A38DAB4250
:10342000E8D1022604EB0616B36933B9102037F051
:103430000BF90746FFF766FCB761B669002ED9D0D5
:103440003046B9F1000F21D1FFF7A0FC23683246C6
:10345000D3F8C07029464B462046B8470028C9D04B
:1034600023683246D3F8C4302946204698470028BE
:10347000C0D02368324629462046D3F8C830BDE87C
:10348000F04718470026CDE70126CBE7FFF75BFCA6
:10349000002782465745D9DA39463046FFF755FCB2
:1034A000FFF7B8FA494643F0BBFB0028A4D0013728
:1034B000F0E7F0B5C5B004469DF82851ADF80D20F1
:1034C0000F4612218DF80C102A4619460DF10F00F7
:1034D00043F020F823684B9A0092D3F8CC6003AAFB
:1034E000EB1C39462046B04745B0F0BDF0B5C5B03D
:1034F00004469DF82851ADF80D200F4652218DF855
:103500000C102A4619460DF10F0043F003F823680A
:1035100000220092D3F8CC6003AAEB1C3946204667
:10352000B04745B0F0BD70B5858994B04FF6FF74D3
:10353000A5421646189A07D0858BA54220D0858DC6
:10354000A5421BD1022400E0002400EB0415013445
:103550002401A9810119AE731726CE80EB7315687B
:10356000055194888C80446D44B1194601A8FEF73A
:103570009FFB01A8A04701A8FEF7E2FA14B070BDB6
:103580000124E2E72DE9F04106460F46904600F19E
:103590001005002415F8013CBB420AD10622414621
:1035A000284642F085FF20B906EB0414A089BDE847
:1035B000F0810134032C05F11005EBD14FF6FF70BB
:1035C000F5E72DE9F041064600F110050F4690465B
:1035D000002015F8013CBB4200F101040AD106228B
:1035E0004146284642F064FF20B906EB041080688B
:1035F000BDE8F081032C204605F11005E9D100203B
:10360000F6E770B5002304464FF6FF750846828939
:10361000AA4203F1010202D0867B012E08D0032AC0
:10362000134600F11000F2D12046FEF731FB07E00F
:1036300001EB031301EB02122046D97BFEF738FBA6
:10364000204670BD98B58288D31DEC46DB08ACEBF4
:10365000C30300AF9D4603689C6E6B46A0470030D5
:1036600018BF0120BD4698BD2DE9F04F87B002AFCD
:103670001D46DFF890A0B96000F130039146044682
:10368000FB600026B4F80C80C7F804D04FF6FF7337
:1036900098452AD0E38ADA1D6946D208A1EBC20216
:1036A000033B95469BB2ADB29D424FF01B0228BF33
:1036B0001D468DF808203A89ADF8092049462A466A
:1036C0000DF10B0042F026FFDAF800000DF1080BB7
:1036D0000268CDF800B0EB1CD2F858B0DBB204227F
:1036E0004146D847D7F804D00136FB6810349C42D5
:1036F000C8D1002ED4BF002001201437BD46BDE83C
:10370000F08F00BF7CAB05002DE9F04F87B002AF12
:10371000C7E900211E4600F14003054600F11004F0
:10372000BB604FF0000934F804ACC7F80CD04FF67A
:10373000FF739A4542D0E388DA1D6946D208A1EBAF
:10374000C202033B95469BB2B6B29E424FF01D02A9
:1037500028BF1E468DF80820BA88ADF809203968C0
:1037600032460DF10B0042F0D5FE002385F83C30C7
:10377000194BD3F800800DF1080BD8F80020CDF8D4
:1037800000B0F31CD2F858B0DBB2042251464046D8
:10379000D84795F83C306BB9D8F8003040461B69E3
:1037A00098472B6814F8011C5B6B22462846984703
:1037B0000028EED1D7F80CD009F10109BB6810340C
:1037C000A342B0D1B9F1000FD4BF002001201437BB
:1037D000BD46BDE8F08F00BF7CAB05002DE9F04F82
:1037E00089B002AF042BFA603A6CC7F808D0C7E979
:1037F000041014880AD0036804220092D3F8B85049
:103800002346A8471C37BD46BDE8F08FFB68073349
:103810006A46DB08A2EBC3039D460DF108080523A9
:103820008DF80830002388F80130484B013CD3F86C
:1038300000A0A4B20225DAF800305046DB699847B0
:10384000844258D23B6C5B88A34254D9DAF80030EA
:1038500021461B6A5046984703689B6883469847F1
:1038600042F6030301349842A4B255D15846FEF7FC
:1038700049FC231A59425941DBF8003079609B68B2
:10388000584698477968024611B9B0F5245F45D18A
:103890005846C7E90012FEF7A3FBD7E90012022839
:1038A000064614BF0223012398F8010008B988F8DE
:1038B000013098F8010098421DD105F102091FFA64
:1038C00089F928F8054008EB090311B9B2F5245F1E
:1038D00027D158467B60FEF780FB7B680146324665
:1038E000184642F017FE09EB0605ADB20236FB683A
:1038F0002E44B3429FDA022D1CD17A693B6C1268C8
:103900001B880A210091D2F8B840D7E9041004229C
:10391000A047D7F808D075E70021ADE702260123BC
:10392000C2E7DBF8003058469B689847043528F812
:103930000900DAE7064B18680368CDF800809C6D33
:103940003969EBB20422A047E3E700BF1CAB0500D6
:103950007CAB05002DE9F04F89B002AF052B3E6C22
:10396000C7F808D08346C7E9032134880BD8036819
:1039700004220092D3F8B85006222346A8471C37E9
:10398000BD46BDE8F08FFA6807326946D208A1EB60
:10399000C202954607228DF80820B288B2F5205F52
:1039A0000DF1080A0DD0DBF8002033880A210091C0
:1039B000D2F8B840396906225846A047D7F808D04F
:1039C000DDE7063B9BB27B61274B013CD3F80090BF
:1039D000B31DA4B201257B60D9F800304846DB69ED
:1039E0009847844232D27388A3422FD9D9F8003045
:1039F00021461B6A4846984703689B68804698475B
:103A0000B38883421BD14046FEF7EAFA7B699842AD
:103A100015D14046FEF7E1FA7A69796842F048FD2F
:103A200068B94046FEF74BFF2AF805004046FEF70E
:103A300048FFAB1C9BB204352AF80300ADB2FA680C
:103A4000EB1C9A4202DD0134A4B2C5E7012DAAD0D5
:103A5000064B18680368CDF800A09C6D3969EBB27D
:103A60000422A047AAE700BF1CAB05007CAB050001
:103A70002DE9F04F89B002AF062BBA603A6CC7F857
:103A80000CD081468B46158804D19388A3F520532A
:103A9000012B0FD9D9F8003010220092D3F8B8408A
:103AA0002B4659464846A047D7F80CD01C37BD4690
:103AB000BDE8F08FBB6807336A46DB08A2EBC3039F
:103AC0009D4602AE11238DF8083000237370354BEC
:103AD000013DD3F800A0ADB20224DAF80030504620
:103AE000DB699847854247D23B6C5B88AB4243D940
:103AF000DAF8003029461B6A504698473B6C02684A
:103B00009B887B619268804690477B69834230D175
:103B10004046FEF765FA0228034614BF1423062325
:103B20003B61737878610BB93B7C737073783A6949
:103B3000934221D14046FEF7C2FE30534046FEF785
:103B4000C0FEA31C9BB20434A4B2F0523319404609
:103B50007B60FEF742FA7B687A690146184642F0BC
:103B6000D9FC7B69BA681C443B69A4B223449A42DD
:103B700002DB0135ADB2B0E7022C09D13B6CD9F8BC
:103B800000201B880A210091D2F8B840102288E753
:103B9000054B1868036800969D6D0422E3B25946F0
:103BA000A84781E71CAB05007CAB05002DE9F04F71
:103BB0009BB09B4602AFBBF10A0F154604468846F0
:103BC00097F88820D7F88C30C7F80CD00FD1022A8C
:103BD00017D0036804220092D3F8B8405A46002355
:103BE000A047D7F80CD06437BD46BDE8F08F042A53
:103BF00007D0036804220092D3F8B8400C220023B7
:103C0000EEE7BBF10A0FB3F8009018BF5E88714B66
:103C10001B68BB601A681846D26908BF0026904727
:103C200009F1FF318AB28242BB6807D923680A22B0
:103C30000092D3F8B8505A464B4622E06A1E073528
:103C4000BA60ED086A46A2EBC5029546BBF10A0FC1
:103C5000EA460CBF0B220D220AF8082F1A681846F4
:103C6000126A904703689B6805469847B0F5205F45
:103C700025D156B1236804220092D3F8B8500B2204
:103C80004B4641462046A847ABE72846FEF7A8F931
:103C900004462846FEF7A1F9224601460DF1090027
:103CA00042F038FC0134A4B24B4B18680368CDF8DD
:103CB00000A09D6D0422E3B24146A84791E742F679
:103CC0000303984264D12846FEF71AFA48451BD1EF
:103CD00016B123680B22ABE72846FEF791F98AF864
:103CE00001002846FEF70EFAAAF802002846FEF761
:103CF00077F904462846FEF770F92246014603A8E4
:103D000042F008FC0434CEE72846FEF779F9830731
:103D100002D4236802228BE72846FEF778F983B2A3
:103D20009E4202D32368072282E7BB6880B2801BD1
:103D30008342A8BF03469B469BB2BB6004F140038D
:103D400004F110097B6001241FFA8BFB39F8043C55
:103D5000434517D14A4619F8011C07F11400FDF735
:103D6000A7FF0AEB0403324607F114012846CDF8F9
:103D700000B0FEF7A5FA07F11400FDF7E1FEBB68FD
:103D80001C44A4B27B6809F110099945DED18BE788
:103D9000B0F5245F1BD12846FEF720FB83B29E427C
:103DA000C0D2BB6880B2841BA342A8BF234628466A
:103DB0009B46FEF715FB1FFA8BF281190BF1010BE5
:103DC0000DF1090042F0A6FB1FFA8BF46CE7012409
:103DD0006AE700BF1CAB05007CAB05002DE9F04F86
:103DE00089B002AF91463A6CC7F808D0062BC7E9F4
:103DF000031015880BD0036804220092D3F8B84052
:103E000008222B46A0471C37BD46BDE8F08F09F1BC
:103E100007036A46DB08A2EBC3039D460DF10808C1
:103E200009238DF80830002388F801306C4B1B689B
:103E30007B613B6C013D0433ADB202247B607B6946
:103E400078691B68DB699847854280F083803B6C0A
:103E50005B88AB427ED97B6978691B6829461B6AFF
:103E6000984703689B68064698473B6C9B8883424B
:103E7000336805F1010A1FFA8AFA9B6830467AD145
:103E8000984742F6030398423DD13046FEF73AF98F
:103E9000824535D03046FEF7A3F898F80120022875
:103EA000034614BF4FF0150B4FF0070B0AB988F803
:103EB00001B098F801203B605A454BD128F804A086
:103EC0003046FEF79DF8A21C92B2023508F80200B7
:103ED000E21C92B2304628F80250FEF77EF8053414
:103EE0003B68A4B208EB04051A460146284642F096
:103EF00011FB3B681C44A4B2A344D9452ADB5546B8
:103F00000135ADB29BE7336830469B68984742F66F
:103F100002139842F4D128F804A03046FEF75EFA66
:103F20000234A4B2A9EB040980B21FFA89F98145D1
:103F300028BF8146304608EB0405FEF751FA4A4691
:103F400001464C44284609F1020942F0E3FAA4B2C2
:103F500088F80190022C38D13A693B6C12681B88B2
:103F60000A210091D2F8B840D7E903100822A047EF
:103F7000D7F808D047E7984742F603039842BFD1E5
:103F80003046FEF72DF802288346B9D13046FEF7B9
:103F900024F85A460146786842F08AFA0028AFD1E0
:103FA00028F804A03046FEF732F80234A4B2A9EB98
:103FB00004091FFA89F980B2814528BF814630463D
:103FC00008EB0405FEF721F8B9E7064B186803680B
:103FD000CDF800809D6DF968E3B20422A847C7E7D9
:103FE0001CAB05007CAB05002DE9F047012B96B01A
:103FF000044602AF884616461D46E9460BD00368C4
:1040000004220092D3F8B84018220023A04750376A
:10401000BD46BDE8F087C18F39B33B6F1B78DB0726
:1040200023D5204B1868036801391B6A9847A38978
:104030004345824632D0A38B434531D0A38D4345BF
:1040400013D102235A1C04EB031304EB0212D97B95
:10405000381DFDF72DFE5046B4F84430226C391D52
:10406000FEF74DF9381DFDF76BFD00230736E3879A
:10407000A4F84430F6086B46A3EBC6039D4619230B
:104080008DF80830084B186802AA036800929C6DEE
:10409000042201234146A047CD46B8E70023D1E7DB
:1040A0002B46CFE71CAB05007CAB05002DE9F04F9C
:1040B00087B002AF032B04460D467A601E46C7F850
:1040C0000CD00DD8036804220092D3F8B840162211
:1040D0000023A047D7F80CD01437BD46BDE8F08FB9
:1040E000BB6B1B883B811FFA83F8BB6BB3F802B034
:1040F000484BD3F80090D9F800304846DB69984720
:1041000008F1FF318BB2834206D923680A2200925C
:10411000D3F8B860434620E0D9F8003048461B6A1F
:10412000984703689B688146984742F60303984284
:1041300002D023680B22EAE74846FDF7E3FF40453B
:104140008246F6D14846FDF75BFF03070AD4236891
:1041500003210091D3F8B860534616222946204621
:10416000B047B7E7E38FCBB948463B60FDF74BFF5D
:1041700001468246206C42F02BFB3B683A89E2877D
:104180002064A4F844305246194642F0C1FAB4F80B
:1041900044305B4507D023680722B8E75345F6D083
:1041A00023680E21D5E7331F5FFA83FA0BEB0A026F
:1041B0004846BA60FDF727FFBA6880B28242EADC5F
:1041C000BB6B206C5246191D584442F0A3F9B4F859
:1041D0004420B96B0AEB0203A4F844307B68073330
:1041E0006A46DB08A2EBC3039D4617238DF808300F
:1041F00032460DF1090042F08DF9074B186802AC08
:1042000002680094731C946DDBB204222946A04717
:1042100060E700BF1CAB05007CAB05002DE9F04F4B
:104220008FB002AFC7E90021FB608388F9680733CC
:104230006A46DB08A2EBC30307F118059D468346D7
:10424000284600F091FC0DF108090124BD60DBF85F
:104250000030CDF804904FF420520092D3F89850DB
:1042600079684FF6FF7322465846A847054620B1A5
:1042700099F80030112B04D001203437BD46BDE839
:10428000F08F99F801307B61A3F1040802235FFAF3
:1042900088F809F102063B614FF6FF7A3B69AB42B1
:1042A00004DB4FF6FF739A45D1D0E5E7FB68E3B92D
:1042B000302036F0C9F93146728831F8043B00925B
:1042C00004464246FEF79AFD21463868FEF724FD73
:1042D0007488D7E904320134A4B2002C134408BF17
:1042E0004FF0000A3B611644D8E7B86800F079FC4B
:1042F0004045EDD1B86800F072FC42460146301DE1
:1043000042F0D6F80028D3D0E2E72DE9F04F8DB087
:10431000838804AFC7E9042107336A46DB08A2EBB0
:10432000C3039D4682463869FEF70DFD0DF1100965
:10433000F8604FF00008FB6898454ADA4146386952
:10434000FEF703FDB861FEF773FD0646B869FEF798
:1043500071FDB860DAF80030CDF8049042F603023F
:104360000092D3F884407969BB6832465046A04732
:10437000054678B399F80030092B27D199F8013018
:10438000FB61053BDBB27B6009F102044FF0020BDD
:10439000AB45DFDA382036F057F9B4F80330029332
:1043A000A37801932388009306467B697A68611D90
:1043B000FEF73CFB3146B869FEF74EFDB4F80360EA
:1043C000FB690136B6B29B441C44E1E708F10108E1
:1043D000B1E701202437BD46BDE8F08F2DE9F04F4D
:1043E0008FB0838802AF0733C7E90421DB086A4630
:1043F000A2EBC3039D4602AB82463869FB62FEF71F
:10440000A2FC4FF0000BF860FB689B456DDA594643
:104410003869FEF79AFC7862FEF70CFDB860786A9E
:10442000FEF70AFD431E386200267B603B6A9E420F
:1044300058DA3146786AFEF701FD7B68F8619E42E2
:1044400049D0711C786AFEF7F9FC0546F869FEF759
:1044500067FB013084B2002D3FD02846FEF760FB99
:10446000B862BB6AA3423BD3DAF80030FA6A009222
:104470005D6F7969BB6A22465046A8470546002809
:1044800034D0FB6A1B78052B2AD1FB6A93F8019084
:104490004FEA8903BB61FB6A4FF0020903F102088E
:1044A000A945E1DA202036F0CFF8B8F800300093C3
:1044B000022208EB020104467B69FEF711FC21464B
:1044C000F869FEF72FFBB8F80040BB690134A4B2CD
:1044D00099449844E4E70025B8E7BB68BB62C0E7AD
:1044E0000136A3E70BF1010B8EE701203437BD46FF
:1044F000BDE8F08F30B5022A85B004460D4609D0DC
:10450000036804220092D3F8B84002220023A04797
:1045100005B030BD1B888188994228BF1946838920
:10452000AB4217D0838BAB4216D0838DAB4202D106
:1045300004EB0214E182094AADF80D100323106860
:104540008DF80C30026803A90091946D294604226D
:10455000A047DDE70022EBE70122E9E77CAB05009D
:10456000042A13D1B0F848208A420FD190F84A208B
:104570001978013A8A4209D1C26C01211170C26CCA
:104580001B68C2F80130052380F850307047022ABA
:1045900010B51CD184898C421AD0848B8C4219D0DE
:1045A000848D8C4203D100EB02121C88D482B0F8B7
:1045B00048208A420BD190F84A20032A07D1C16CC7
:1045C0000A70C16C1B88A1F8013080F8502010BD22
:1045D0000022E8E70122E6E7012A38B5044615463D
:1045E00011D9B0F8480088420DD194F84A00052846
:1045F00009D1E16C0870E06C19460130013541F0D9
:1046000089FF84F8505038BD012A38B50446154654
:1046100011D9B0F8480088420DD194F84A00112809
:1046200009D1E16C0870E06C19460130013541F0A8
:1046300071FF84F8505038BD38B50446B0F84800D2
:10464000884215460DD194F84A100B2909D1E06C27
:104650000170E06C19460130013541F05BFF84F8D0
:10466000505038BD38B5044615468AB1B0F84800F8
:1046700088420DD194F84A00092809D1E16C0870EC
:10468000E06C19460130013541F044FF84F8505088
:1046900038BD62B9B0F848308B4208D190F84A3042
:1046A000132B01BFC26C1370012380F85030704788
:1046B0002DE9F04F99B002AF044697F880B07A60C8
:1046C000BBF1010F0E461D460DD8122B07D1036812
:1046D00004220092D3F8B8402A460023A0475C3752
:1046E000BD46BDE8F08FD7F88430B3F80090614B39
:1046F000D3F800A0DAF800305046DB69984709F19A
:10470000FF318BB283420CD9122DE8D123680A22E3
:104710000092D3F8B8802A464B4631462046C0471F
:10472000DDE7DAF8003050461B6A984703689B685B
:104730008046984742F6030398424FD14046FDF722
:10474000E1FC8145404601D1122D38D1FDF758FCDE
:10475000020750D5A389B34236D100235A1C04EB7B
:10476000031304EB0212D97B07F10C00FDF7A0FA4A
:10477000D7F88420ABF10203DBB2023207F10C015F
:104780004046FDF7BCFD07F10C00FDF7D9F9122DED
:10479000A5D17B6807336C46DB08A4EBC3039D46B9
:1047A00013238DF80830344B186802AA036800926E
:1047B0009D6D042201233146A847A5468FE7FDF7EA
:1047C0001FFC43078BD5C5E7A38BB34204D0A38D51
:1047D000B342DCD10223C1E70123BFE7D8F80030A0
:1047E00040469B689847B0F5245F04D14046FDF7EA
:1047F000F7FB022805D0122D7FF471AF2368032246
:1048000086E74046FDF7E9FB028842F602139A422A
:10481000F1D1DAF80030A9F102011B6A504698473D
:1048200003689B688046984742F603039842E2D1AA
:10483000A389B34207D0A38BB34218D0A38DB34250
:10484000A5D1022300E000235A1C04EB031304EB60
:104850000212D97B07F10C00FDF72AFAD7F8843051
:1048600007F10C015A884046FDF769FD8BE70123EB
:10487000EAE700BF1CAB05007CAB05002DE9F04F5B
:104880009DB0012B07468A460792039365D9269B64
:104890001E8800F1300305460693F6B2AB895345F6
:1048A00047D1AC69002C48D02046FEF74CFA4FF0B7
:1048B000000B8046D8453CDD59462046FEF745FAB8
:1048C0008146FEF7B5FAB04230D24846FEF7B2FA5A
:1048D00086422BD84846FEF7AFFA0BF1010307EBEF
:1048E0000313049005934FF0000807EB0B14049B8F
:1048F00043451EDD41464846FEF7A0FA8346FEF7D3
:104900000FF986420FD1059AE17B09A8FDF7D0F98E
:10491000039B269A5846023B023209A9FEF772F918
:1049200009A8FDF70DF908F10108E0E70BF1010B0B
:10493000C0E7069B1035AB42B0D1079B1D2B0CD1B5
:104940001CAB1E2203F84C2D054A10680268009328
:10495000946D012304225146A0471DB0BDE8F08F9D
:104960007CAB05002DE9F04F00230446A9B0984622
:104970004FF0FF354FF6FF7004EB031292898A4225
:1049800008BF1D46824203F1010318BF08F1010868
:10499000032BF1D16B1C00F0A8806E1C2F01E319D2
:1049A000360104EB060A5246D97B02A8FDF780F9CE
:1049B000B8F1010F54D14E4BD3F800804FF00009ED
:1049C00042F6030BD8F800301FFA89F10191DB6938
:1049D00040469847019988423ED9D8F80030404671
:1049E0001B6A984702680190926890475845019B5E
:1049F0002FD1404A15929DF80C208DF8582028AAF6
:104A00000DF1510052F8931DCDF859109288ADF870
:104A10005D209DF813208DF85F209DF814208DF8FF
:104A200060200DF161010DF1150252F804CB41F83F
:104A300004CB8242F9D112880A809DF853208DF868
:104A40009F201846002215A9FDF779FC15A8FDF74F
:104A500077F809F10109B5E70023E387A4F84430AA
:104A6000A16D61B3234B15939DF80C308DF8583030
:104A700028AB0DF1510053F8932DCDF859209B88A8
:104A8000ADF85D309DF813308DF85F309DF814302F
:104A90008DF860300DF161020DF1150353F804CB70
:104AA00042F804CB8342F9D11B8813809DF8533020
:104AB0008DF89F3015A8884715A8FDF741F82744C1
:104AC0004FF6FF73FB600023A35104EB0514AAF813
:104AD0000430A0691723E38210B103685B6898472C
:104AE0000023A36102A8FDF72BF829B0BDE8F08FE1
:104AF0001CAB050064A80500114B036041F288332C
:104B000017218360002330B58180C3870364A0F838
:104B1000443000F1100200F140044FF6FF7522F816
:104B2000045C02F8023C02F8013C13609380D180DF
:104B300093601032A242F2D14365836530BD00BF5D
:104B400000AA050010B5054C2046FFF7D5FF20460A
:104B5000034A0449BDE8104035F067BB9C180020AB
:104B6000000200205932010073B5002504460E46AC
:104B700040F8041B10222946ADF804508DF8065069
:104B800041F0C6FD2575304642F0BAFA451E002DAB
:104B9000237D19DB0F2B1ED8735D2D2B02D1013520
:104BA000023DF4E77219002112F8012C8DF804205F
:104BB00001A810228DF8053042F022FE237DE21874
:104BC000013310712375EBE7022B04D80223204632
:104BD000237502B070BD1023F9E7006870470430F8
:104BE0007047007D704700002DE9F047144C804667
:104BF0004D1E4FF4AA594FF02D0A6A1C1AD018F80E
:104C0000057010222146380901F0C3FB1022611CF7
:104C100007F00F0001F0BDFB0C2D04F1020606DCCD
:104C200029FA05F3DB0744BFE61C84F802A0013D26
:104C30003446E2E7002323700148BDE8F08700BF57
:104C4000F8180020007970472DE9F04F89B09046A0
:104C50000DF1180B027A9DF848601F4600230546A7
:104C600089460693ABF80430FAB99E4214BF4FF060
:104C7000020A4FF0030A2B6828461B699847194B14
:104C8000EA881C680021072023680091CDE9030110
:104C9000CDE9011B2046D3F834B011465346D8471E
:104CA00028B1002009B0BDE8F08F9A46E3E72368F9
:104CB0004A469B6B4146204698470028F1D123681D
:104CC0003A46DB6B3146204698470028E9D12368F5
:104CD00001211B6C204698470028E2D10120287151
:104CE000E0E700BF7CAB0500034B002101711868B1
:104CF00003681B6C184700BF7CAB05002DE9F3412E
:104D0000124B1D682B6801229B6C07460E462846F5
:104D10000021002498472B68CDE90044D3F8448053
:104D200010231A4601212846C04768B9012179712C
:104D30002B6886EA01029B6C28469847B0FA80F0FF
:104D4000400902B0BDE8F0812046FAE77CAB0500DF
:104D5000C180704701727047022908BFC260704766
:104D600070B50B4D04461C30164601F07EFE2946F8
:104D700004F1280001F09AFE294604F1340001F004
:104D800095FE2368314620465B69BDE870401847B0
:104D900004E005002DE9F0410C4D04460F461C309F
:104DA0002946164601F082FE394604F1280001F03A
:104DB0005CFE294604F1340001F078FE2368314698
:104DC00020465B69BDE8F041184700BF04E00500DC
:104DD0002DE9F0410C4D04460F461C30294616467D
:104DE00001F064FE294604F1280001F05FFE394617
:104DF00004F1340001F039FE2368314620465B6936
:104E0000BDE8F041184700BF04E005007FB5C36B63
:104E100004460D4683B10B6801A89B69984701A918
:104E200004F1340001F0B4FE064601A801F090FD43
:104E300016B9002004B070BD636A73B1294601A899
:104E4000FCF74AFF01A904F11C0001F082FE0646AE
:104E500001A801F07DFD002EEBD0236B83B1294624
:104E600001A8FCF7B3FF01A904F1280001F090FEAE
:104E7000044601A801F06CFD201C18BF0120D9E7F1
:104E80000120D7E738B5A0220E4D0F4B0360C2803A
:104E9000002301220446037143710272C0E9033307
:104EA000C0E9053329461C3001F098FD294604F17C
:104EB000280001F093FD294604F1340001F08EFD35
:104EC000204638BD04E00500DCAA050003688B42DB
:104ED00008D9436800228A4202D05B680132FAE7AF
:104EE000186870470020704770B504464068002578
:104EF0002368AB4206D94668082135F0D7FB013557
:104F00003046F5E70023C4E90033A36070BD00001C
:104F100010B50A4B044640F8343B01F019FD04F18A
:104F2000280001F015FD04F11C0001F011FD04F151
:104F30001000FFF7D9FF204610BD00BFDCAA050016
:104F400010B50446FFF7E4FF2046402135F0AEFBE4
:104F5000204610BD70B50E4B054618680368002248
:104F60009B6C11460024984705F110066C712B6963
:104F70009C4209D221463046FFF7A8FF10B10368D2
:104F80005B6898470134F2E73046FFF7ADFF70BD2C
:104F90007CAB050003688B4270B504461AD9002229
:104FA000406813468A42456803D0034601322846CA
:104FB000F8E7066863B96560A268824208BFA3602B
:104FC000082135F073FB2368013B2360304670BD38
:104FD0005D60F1E70026F9E72DE9F041074694B05E
:104FE0000D46002401F110082B699C422AD221466B
:104FF0004046FFF76BFF0646FCF725FF00B331463E
:1050000001A8FDF793F821464046FFF7C3FF1EB104
:10501000336830465B6898472B6801A9DB6B2846EC
:10502000984750B101A93846FDF780F801A8FCF770
:1050300087FD384614B0BDE8F08101A8FCF780FD7B
:105040000134D1E73846FCF723FEF2E72DE9F04FB3
:10505000C568ABB004460F4692469B469DF8D0808B
:105060009DF9D8902DB3032922D11A46514604A8A0
:10507000FCF71EFECDF80090359B4246394604A849
:10508000FCF7BBFE236804A9DB6B2046984748B1B8
:1050900004A917A8E468FDF749F817A8A04717A8BE
:1050A000FCF74EFD04A8FCF74BFD2BB0BDE8F08FDC
:1050B000002504F110032269AA420DD91846294699
:1050C0000393FFF703FF5A4651460646FCF785FE59
:1050D000039B002838D0BEB92369042BE5D84C20A7
:1050E00035F0B2FA5A4651460646FCF7E1FD082073
:1050F00035F0AAFA0023C0E90063636933BB60613D
:105100002569A0616B1C2361042F22D0CDF800908B
:10511000359B424639463046FCF76FFE3046FCF779
:1051200092FE0028C1D0E368002BBED0314604A80F
:10513000FCF7FCFF294604F11000FFF72BFF336852
:1051400030465B6898479DE70135B4E7A36958602E
:10515000D6E74B46359A41463046FCF75FFEDDE721
:1051600070B446799DF80C409DF9145026B1059510
:10517000039470BCFFF76ABF70BC704710B5054C54
:105180002046FFF77FFE2046034A0449BDE8104051
:1051900035F04BB82019002000020020114F01000B
:1051A000406870474368994208D283680022914260
:1051B00002D05B680132FAE7186870470020704738
:1051C00073B50446302035F03FFA32490546FDF705
:1051D00063FB2561542035F037FA00250646142379
:1051E00002222D490095FCF7DBFF6661542035F063
:1051F0002BFA02231A46064628490095FCF7D0FFF1
:10520000A661302035F020FA25490646FDF744FB1B
:10521000E661542035F018FA202204232149009534
:105220000646FCF7BDFF26622069FCF7DCFE6069DC
:10523000FCF7D9FEA069FCF7D6FEE069FCF7D3FEC7
:10524000206AFCF7D0FED4E90401FDF74CFBA1690C
:105250002069FDF748FBD4E90701FDF744FB23680B
:1052600011491B69204698472368294620465B69F7
:10527000984723682046DB6A9847236821699B6A20
:10528000204698472368E1699B6A204602B0BDE842
:105290007040184720AB050025AB05002AAB050080
:1052A0002FAB050034AB050039AB05004069FCF7B6
:1052B00011BF07B502AB022223F8021D806919460F
:1052C000FCF7A8FE03B05DF804FB10B504460846E1
:1052D000FCF71BFE014628B1236820469B6ABDE807
:1052E0001040184710BD2DE9F041002507468846BB
:1052F0002C463B683846DB699847A84211D93B6881
:1053000029461B6A3846984703689B6806469847B3
:10531000B0F5205F02D0464503D02646013534461D
:10532000E7E720463CB1FCF75BFE0228204604D1AB
:10533000FCF753FE0088BDE8F081FCF74EFE408983
:10534000F9E70000054A02600022C0E90122C0E935
:105350000322C0E90522C0E9072270474CAB0500D3
:1053600070B50446406800252368AB4206D94668FC
:10537000082135F09BF901353046F5E70023C4E9F3
:105380000033A36070BD08B50430FFF7E9FF08BD26
:1053900070B50446002523682046DB699847A8427B
:1053A00010D9236829461B6A204698470646FCF711
:1053B0001FFE002804DC1EB1336830465B68984746
:1053C0000135E8E7201DFFF7CBFF70BD38B5044677
:1053D000054B44F8043B0546FFF7DAFF2046FFF78C
:1053E000BFFF284638BD00BF4CAB050010B50446D2
:1053F000FFF7ECFF2046242135F058F9204610BD78
:1054000038B5044608200D4635F01EF90023C0E9E2
:10541000005363682BB960602368A0600133236088
:1054200038BDA3685860F7E72DE9F84F04460D46EC
:10543000084604F10408FCF7D6FD29464046FFF76C
:10544000DFFF23682046DB69984700271FFA80FBAF
:105450002846FDF738FAB84235D939462846FDF7CF
:1054600034FA0646FCF7BFFD31464046FFF7C8FF59
:1054700023682046DB69984781B23046FCF73EFE40
:1054800031464046FFF7BCFF4FF000093046FCF7BD
:105490003DFE484515D949463046FCF739FE82465F
:1054A000FCF7A1FD51464046FFF7AAFF23682046BE
:1054B000DB69984781B25046FCF794FF09F1010976
:1054C000E4E70137C4E723682046DB69984759467B
:1054D00082B22846BDE8F84FFDF7EEB908B5054B96
:1054E0001846FFF72FFF044A04491846BDE8084054
:1054F00034F09BBE6019002000020020CD53010053
:105500007047000000238360024B186803681B6823
:10551000184700BF5CAC0500024B186803685B6865
:10552000184700BF5CAC0500036800215B691847A1
:1055300010B403689C6E0023A4461A4640F603414B
:105540005DF8044B604737B5026802AB956E23F8EF
:10555000021D022241F205410446A84750B9D4F881
:105560001831BDF806201988914203D193F9020041
:1055700003B030BD7F20FBE713B502A961E9022328
:10558000036808229C6E0B4640F60141A04702B01A
:1055900010BD10B403689C6E06220B46A44642F26E
:1055A00005015DF8044B60471FB5089C8DF8043079
:1055B0009DF818308DF805309DF81C308DF80630B8
:1055C0002368CDF80730A388ADF80B309DF8243060
:1055D0008DF80D309DF828308DF80E300368ADF849
:1055E0000010ADF802209C6E0F226B4642F20601BD
:1055F000A04704B010BD13B502AB026803F8011D4B
:10560000946E42F20A010122A04702B010BD13B508
:10561000ADF803309DF810308DF805309DF814304A
:105620008DF8063003688DF80010ADF801209C6EEF
:1056300007226B4642F20B01A04702B010BD13B522
:1056400003688DF804108DF805209C6E022201ABD2
:1056500042F20C01A04702B010BD10B588B00B9CFF
:105660008DF808309DF828308DF809302368CDF882
:105670000A30A388ADF80E309DF830308DF8103028
:10568000BDF83430ADF81130BDF83830ADF8133016
:10569000BDF83C30ADF81530BDF84030ADF81730EE
:1056A000BDF84430ADF81930BDF84830ADF81B30C6
:1056B0000368ADF80410ADF806209C6E192201AB0A
:1056C00042F20D01A04708B010BD10B403689C6EF3
:1056D0000023A4461A4642F20E015DF8044B6047CF
:1056E0001FB5ADF80430BDF81830ADF80630BDF880
:1056F0001C30ADF808300423ADF80A300623ADF8AD
:105700000C300368ADF80010ADF802209C6E0E223C
:105710006B4642F21301A04704B010BD13B513232A
:105720008DF80630026802AB946E23F8041D032244
:1057300040F20641A04702B010BD4160704700230F
:10574000436070473AB190F81D31934203DD9B1AD4
:1057500080F81D3170470023FAE70000F0B5137898
:10576000052B87B00546144617D1464BB4F80310F5
:105770001868527903685B6A9847434BB4F8031082
:10578000186862790368C9B21B6998473F480121CC
:1057900007B0BDE8F040FFF72EBF0E2B0FD1B2F8D7
:1057A0000330A0F80E315379C0F810315378063425
:1057B000043B80F81431C0F8184107B0F0BD0F2B3E
:1057C00009D19388A0F80E319378C0F810310023E6
:1057D00080F81431F1E7132B10D193780734D61CDD
:1057E00004EB83040436A642E7D02B6836F8022C7B
:1057F0001B6F36F8041C28469847F3E73E2BDCD194
:105800009378012B27D1D378002BD6D11D4B277D40
:105810001868A188D379066802F10805927904977F
:10582000678A0397278A0297E789CDE90057F669C7
:10583000B047154B277D1868A279E379A1880668DF
:105840000497678A0397278A0297E489CDE9005471
:10585000B468A047B1E7022BAFD1D378012BACD10C
:10586000137B0B4A2179106862790568E61896F96E
:105870000D60029604F10D06CDE90036A31DAD6B57
:10588000A8479AE7F4A90500ECAC050084190020AC
:10589000D0AA050010B54FF40871044634F006FF95
:1058A000204610BD2DE9F843304B04461D6819B160
:1058B0002B6828469B6898472D4FDFF8B880002654
:1058C0002B682846DB68984700284CD02B68284670
:1058D0005B699847A3685A1C2344C1B2A26019733C
:1058E000237B022B1ED1052AEADD217CE37B03EB1F
:1058F000012304339A42E3DD636843B12368D2B2E3
:10590000D3F87890414604F10C032046C847236839
:10591000A168A660DB6E013904F10D02C9B2204610
:105920009847CDE7042B16D1032AC9DDA37B0233A8
:105930009A42C5DD636843B12368D2B2D3F8789048
:10594000394604F10C032046C847A1682368A660C5
:1059500001395B6FE0E76068A6600028B0D01022D4
:1059600000F0ECFFACE7BDE8F88300BF5CAC0500DD
:10597000B9AB0500A6AB0500F0B5154616885288F0
:10598000AB88111F994287B004464FEA163609D0FA
:10599000012E00F58F771FD000F10D01043238463B
:1059A00040F0B8FD6A88AB88043A9A4212D1E88880
:1059B000298883B2042BC1F30B011ED1204B186838
:1059C0000368012E1D6AD2B20CBF04F5937304F173
:1059D0001503A84707B0F0BDB0F8200100F591709D
:1059E00004F11101204440F095FD6A88B4F820319B
:1059F0001344A4F820313D46D4E7052B07D1114BC1
:105A000018680368D2B2DD6804F11503E1E70022EB
:105A10000392ADF8142001228DF80C200622ADF877
:105A20000E20022203ABADF8102022680093ADF8DF
:105A30001200956D0A2305222046A847CAE700BF39
:105A4000F4A90500ECAC0500F0B5202589B00446AA
:105A50000E46174600212A46684640F059FE324657
:105A600039460DF101008DF8006040F053FD2368C8
:105A70002A469E6E42F208016B462046B04709B0A6
:105A8000F0BDF0B5202589B004460E46174600212A
:105A90002A46684640F03CFE324639460DF1010088
:105AA0008DF8006040F036FD23682A469E6E42F273
:105AB00009016B462046B04709B0F0BD2DE9F0471B
:105AC000044600AF8A4691461D4694F81D2194F87D
:105AD0001C319A4204D3236820461B699847F4E797
