:020000021000EC
:100000000000042091D60400C9D6040085940400A1
:10001000CDD60400919404009794040000000000E1
:1000200000000000000000000000000051AD0400CE
:10003000D5D6040000000000E9AD0400F9AD0400CD
:100040003113050019720400DBD60400DBD604006E
:10005000DBD60400DBD60400DBD60400DBD60400CC
:10006000DBD60400DBD60400DBD60400DBD60400BC
:10007000DBD60400C5140500DBD60400C97E0400ED
:10008000DBD60400DBD60400DBD60400DBD604009C
:10009000DBD60400DBD60400DBD60400DBD604008C
:1000A000DBD60400DBD60400DBD60400DBD604007C
:1000B000DBD60400DBD604000000000000000000D6
:1000C000DBD60400DBD60400DBD60400DBD604005C
:1000D000DBD60400DBD60400DBD60400DBD604004C
:1000E000DBD60400DBD60400DBD6040000000000F1
:1000F00000000000DBD6040000000000DBD6040096
:1001000010B5054C237833B9044B13B10448AFF351
:1001100000800123237010BD30110020000000007A
:1001200034F0050008B5034B1BB103490348AFF396
:10013000008008BD000000003411002034F00500EC
:10014000154B002B08BF134B9D46A3F5803A0021A9
:100150008B460F461348144A121A46F021FA0F4BE9
:10016000002B00D098470E4B002B00D09847002062
:10017000002104000D000D48002802D00C4839F081
:1001800081FF45F0FFFC200029003AF059FC39F0CE
:1001900076FF00BF000008000000042000000000FF
:1001A0009DA9040030110020A016012085A00400A4
:1001B0000000000010B5034B0360044601F02AFA6A
:1001C000204610BDD8A3050010B5034B03600446BC
:1001D00001F020FA204610BDE8A3050010B5034B3E
:1001E00003600446FFF7F0FF204610BDF8A30500AA
:1001F00010B50446FFF7DEFF20460C213AF07EF9E9
:10020000204610BD10B50446FFF7DEFF20460C2146
:100210003AF074F9204610BD10B50446FFF7DEFF32
:1002200020460C213AF06AF9204610BD70B5D0E99D
:1002300000560446AE4204D0284606F0DDFA0C35DE
:10024000F8E7206808B13AF04DF9204670BD10B5C6
:100250000446FFF7EBFF204610BD00002DE9F041FA
:1002600007468846164615460446444507D01DB144
:100270002146284606F05CFB0C340C35F5E7E41B00
:100280000448A408444324F040440C2000FB0460CC
:10029000BDE8F081ABAAAA2A2DE9F843D0E90064B1
:1002A000A41BA3101F4C5C4314BF23460123E41876
:1002B00005460F469146A1EB06061B4B2AD29C42EF
:1002C00028D844BBA04618EB060002D0494606F0E9
:1002D0002FFB394642462868FFF7C0FF696800F1E6
:1002E0000C023846FFF7BAFFD5E900690746B14569
:1002F00004D0304606F080FA0C36F8E7286808B1DA
:100300003AF0F0F80C2303FB0484C5E90087AC60E5
:10031000BDE8F8831C460C2060433AF0BDF88046E7
:10032000D1E700BFABAAAAAA5555551538B5D0E9F3
:100330000135AB4204460A4607D013B1184606F011
:10034000F7FA63680C33636038BD1946FFF7A4FF02
:10035000FAE70000F8B5541A17460C4A0546A010F3
:1003600042430E4608D00A4B9A4201D941F0E6FFBB
:1003700020463AF091F8024614442A60AC603946AF
:100380003046FFF76BFF6860F8BD00BFABAAAAAAB2
:100390005555551510B58CB004461449684606F0FD
:1003A00071FA134903A806F06DFA124906A806F07F
:1003B00069FA114909A806F065FA0023C4E9003377
:1003C000A3600CAA69462046FFF7C4FF09A806F0FF
:1003D00013FA06A806F010FA03A806F00DFA68460C
:1003E00006F00AFA20460CB010BD00BF39A4050083
:1003F00045A405004EA4050052A405002DE9F041D6
:1004000090B015460026044610460F46CDE9016619
:10041000039606F065FB2021284606F026FBB0F186
:10042000000815DA51490DA806F02CFA2046C4E957
:100430000066A66010AA0DA9FFF78CFF0DA806F0B4
:10044000DBF901A8FFF7F2FE204610B0BDE8F0810D
:1004500043463246294604A806F01CFB04A806F0D1
:100460003FFBAB68424629460DA806F013FB0DA9D9
:10047000284606F067FA0DA806F0BEF9284606F0F1
:100480002FFB3B4904A806F0B5FA002859D004A96F
:1004900001A8FFF74BFF37490AA806F0F3F92846F1
:1004A00006F01EFBD7E90068B04533D031460DA8F1
:1004B00006F03EFA0DA9284606F0E9FA002806F1F2
:1004C0000C0623DB0DA907A806F019FA0DA806F003
:1004D00093F90AA806F090F9264907A806F08AFAC7
:1004E000E8B125490DA806F0CDF90023C4E9003391
:1004F000A36010AA0DA92046FFF72CFF0DA806F057
:100500007BF907A806F078F904A898E70DA806F08B
:1005100073F9C9E70AA907A806F0F1F9D9E701A814
:1005200007A9FFF703FF07A806F066F9019B029AE7
:10053000236062600023039A01930293A2600393F5
:10054000E2E70E4904A806F055FA05460028EDD169
:100550000B490DA806F096F92046C4E90055A560A0
:1005600010AA0DA9FFF7F6FE0DA8CBE700A4050021
:100570000BA4050028DE05000FA405001FA405003C
:100580002AA4050038B50B4B0B4C19680B4D2046BF
:1005900000F0D6F920460A4C0A492A4639F06DFD8A
:1005A0002046FFF7F7FE2A4620460749BDE83840B7
:1005B00039F063BDFCA605005811002000020020A0
:1005C0004C1100208D0601004F0201001FB54FF4B1
:1005D00016512348224C07F087FA012005F08EFEC1
:1005E000204607F0B2FB0028F7D01E4B1C6823689A
:1005F00020469B68984720B91B491C4805F0A0FF7E
:10060000FEE723681A49DB6B20469847194800F03B
:1006100007FE20B91849154805F092FFFEE7174973
:10062000124805F075FF236821461B6A01A8984708
:1006300001A90E4805F07AFF01A806F0DDF8104880
:1006400000F0B4F90F49094805F07AFF2368204605
:100650005B6D98470C49054805F072FF04B010BD6A
:1006600094230020FCA60500DAA40500CC24002079
:10067000EDA405009C170020F7A405000AA50500BD
:10068000581100201CA5050034A5050010B504462E
:100690004430FFF78FFD04F13800FFF78BFD04F1C4
:1006A0002C00FFF79BFD04F12000FFF797FD04F1FC
:1006B000140001F0F3F904F1080001F0EFF920460D
:1006C00010BD00002DE9F0418C4B8D4F19680B686F
:1006D000A2B01B6F0FA898478A4903A806F0D2F86A
:1006E0000FA801F08DF8002800F0EB800123864967
:1006F00086483B7005F00CFF0FA90CA801F066F8C6
:100700000CA98248824C05F011FF0CA806F074F881
:100710000FA801F065F90A2201467C4805F059FF4F
:1007200004F59C750FA801F08BF8002800F0C98033
:10073000D4F85032B3F5807F1CD0204607F090FAF1
:10074000C0B1204607F0E2F8D4F85032B3F5807F0C
:10075000EED0D4F84832234483F84801D4F8483224
:100760000133DBB2C4F84832D4F850320133C4F854
:100770005032DDE7D4F85032002B7CD029460CA84B
:1007800006F026F80CA903A806F0DCF80CA806F081
:1007900033F803A806F0A4F95E49284605F0B8FE30
:1007A00003A9284605F0C2FE5B4903A806F022F91A
:1007B00088B15A4800F02CF959490646284605F0F8
:1007C000A7FE304642F03AFF0223009302460B4652
:1007D000284605F0DBFF534903A806F00BF988B162
:1007E0004E4800F04FF950490646284605F090FE65
:1007F000304642F023FF0223009302460B46284670
:1008000005F0C4FF494903A806F0F4F850B148497F
:100810000CA806F037F80CA9404800F067F90CA8BE
:1008200005F0EAFF434903A806F0E4F818B33B4992
:1008300006A800F061F906A9284605F077FE06AA89
:100840003D4909A8FFF7DAFDDDE90968B0450CD09C
:1008500031460CA806F06CF80CA9284605F066FE97
:100860000CA805F0C9FF0C36F0E709A8FFF7DEFC7D
:1008700006A805F0C1FF294906A800F03DF9214965
:1008800006A806F0B7F8C0B906AA2B4909A8FFF7D1
:10089000B5FDDDE9096846450CD031460CA806F0E7
:1008A00047F80CA9284605F041FE0CA805F0A4FF66
:1008B0000C36F0E709A8FFF7B9FC06A805F09CFF85
:1008C00030E73B7883B11D49104805F021FE0FA9A0
:1008D0000CA800F07BFF0CA90C4805F027FE0CA823
:1008E00005F08AFF00233B7003A805F085FF0FA8E1
:1008F00000F028FF22B0BDE8F08100BFFCA6050093
:10090000A811002028DE050058A40500CC240020F2
:100910009423002078A4050039A405005811002074
:100920008BA4050045A40500A1A40500B4A40500FE
:10093000BCA4050003A405004C110020C2A40500BE
:10094000002310B50446037041601249083001F0DD
:10095000DDF8114904F1140001F0D8F812220F4912
:1009600004F1200001F02AF912220D4904F12C00B3
:1009700001F024F9322302220A4904F1380001F07F
:10098000EBF8C8230A22084904F1440001F0E4F816
:10099000204610BD54A5050059A505007EA50500FB
:1009A00083A5050088A50500ADA5050038B500F1B3
:1009B0001405044600F13801284601F0C5F804F199
:1009C0004401284601F0C0F8606803682946DB6AE4
:1009D00098476068036829461B6D04F1080598472D
:1009E00004F12001284601F0AFF804F12C0128465B
:1009F00001F0AAF8606803682946DB6A98476068D6
:100A0000036829461B6D984701232370022038BDD7
:100A100070B52DED028B184EDFED188A82B00546B9
:100A20000A240121304600F0D9FA07EE900AC820C6
:100A300078EEA78A05F062FC013CF2D1F2EE047A6E
:100A400088EEA78A02A90123042205F12000F1EE15
:100A5000047A38EE678ADFED0A7A68EE277AFDEECF
:100A6000E77A61ED017A00F04BFE18EE100A02B051
:100A7000BDEC028B70BD00BF9C1700200000000081
:100A80000000C84270B52DED028B154E9FED158A02
:100A900082B005460A24304600F0DEFA07EE900ADE
:100AA000C82038EE278A05F029FC013CF3D1F2EE8C
:100AB000047AC8EE278A02A90123042205F12C003A
:100AC000DFED097A68EEA77AFDEEE77A61ED017A4B
:100AD00000F016FE18EE900A02B0BDEC028B70BD5D
:100AE0009C170020000000000000C84208B5383004
:100AF00001F040F8012008BD30B50C4685B00B4927
:100B00004434054605F0BEFE204600F014FE50B108
:100B1000214601A801F032F801A9284605F012FF8C
:100B200001A805F069FE284605B030BD28DE0500A5
:100B3000704700207047490000230162C0F830323E
:100B40007047036801211B6B184710B403689C6B46
:100B50000123A4465DF8044B6047D0F83032B3F56A
:100B6000807F1FBF5A1CC0F83022C01880F8301197
:100B700014BF012000207047D0F82C017047704747
:100B8000C0F834127047C0F838127047D0F82C31D2
:100B90002BB1D0F82831184490F8240070474FF05A
:100BA000FF3070470346D0F82C01A8B1D3F82C21B0
:100BB00082B1D3F828211A4492F82400D3F82821CE
:100BC0000132D2B2C3F82821D3F82C21013AC3F85C
:100BD0002C2170474FF0FF307047000010B5044BD8
:100BE0000360044600F50F703CF00AFA204610BD81
:100BF000E8A5050038B50446802039F04DFC94F98D
:100C00001C2094F91810054607F0F0FD656138BD09
:100C10007FB5044648200E4639F03EFC94F91C206E
:100C200094F91810054607F01BFE7100284625614F
:100C300007F032FE094B0393094B019369460023E9
:100C400004F50F70029300943CF054F9039B13B128
:100C50009B686846984704B070BD00BFD4A50500E6
:100C60007D0D01000B6803604B6843608B688360F7
:100C7000704738B5D0F8303214461A44B2F5807F48
:100C800088BFC3F58074054600F598702246184465
:100C900045F088FBD5F830322344C5F83032204681
:100CA00038BD10B50446406910B10368DB68984749
:100CB000206920B14821BDE8104039F01FBC10BDAB
:100CC00038B5044640690D4608B107F099FC206923
:100CD00020B12946BDE8384007F0DCBD38BD07B576
:100CE00081F001010091D0F83032016A00F598726C
:100CF000406907F0B3FC002814BF0220002003B0B5
:100D00005DF804FB70B5C2B083F00103009302AE3E
:100D100004461546134649003246406907F0BFFCB9
:100D2000C8B9A84218D0D4F82C31B3F5807F10D0C0
:100D3000D4F82431325C234483F82420D4F82431BD
:100D40000133DBB2C4F82431D4F82C310133C4F8B8
:100D50002C310130E5E70025284642B070BD10B4C3
:100D6000D0E9013401686210E40701EB020048BFDA
:100D70008A585DF8044B48BFD358184730B504462D
:100D800085B00025206907F08EFD012829D0F9DB08
:100D90000328F7DCC4F82451C4F82851C4F82C51B6
:100DA00010226946206907F080FD002282422ADA7B
:100DB000D4F82C31B3F5807F11D0D4F824311DF84C
:100DC0000210234483F82410D4F824310133DBB219
:100DD000C4F82431D4F82C310133C4F82C31013259
:100DE000E4E7D4F8383203B19847D4F8302232B16E
:100DF00004F59871206907F05AFDC4F83052206953
:100E000007F05DFDBEE71028CAD8D4F82C31002BBE
:100E1000F5DDD4F83432002BF1D0D4F82C0198470A
:100E2000EDE7000073B54FF47A730025C0E9015374
:100E3000184B03600446C0E906124FF4807229463D
:100E4000243045F0ADFB144BC4F82451C4F83C32B7
:100E50002946C4F82851C4F83052C4F82C51C4F8BB
:100E60003452C4F83852C4F84C5204F51F7039F0AB
:100E700065FD04F50F7604F5247039F0FDFC30466D
:100E800000952B464FF4805218213CF027F820465D
:100E900002B070BDE8A5050020E8050010B505F01A
:100EA00004F812288ABF1B4B4FF0FF3493F92041FE
:100EB00004F0FBFF132888BF164B17488CBF93F92B
:100EC00030214FF0FF322146FFF7ACFF134A14499F
:100ED000114839F0D2F804F0E8FF1E288ABF0D4B04
:100EE0004FF0FF3493F9E04104F0DFFF1F2888BF83
:100EF000084B0C4888BF93F9F021214698BF4FF06A
:100F0000FF32FFF78FFF054A05490648BDE810404C
:100F100039F0B3B804020020AC1100200002002018
:100F2000DD0B0100A414002070B5044600680368BE
:100F30000D46DB6A5F2198472068036829461B68D5
:100F400098472068036800211B6B984768B92068A0
:100F500003680122DB6B5F219847012805D12068D7
:100F60000368BDE870405B6918474FF0FF3070BD03
:100F700070B506460C46FFF7D7FF611C0546C9B29F
:100F80003046FFF7D1FF45EA002070BD70B504463A
:100F9000006803680E46DB6A5F21154698472068A3
:100FA000036831461B6898472068036829461B6818
:100FB0009847206803685B6B9847B0FA80F0400957
:100FC00070BD10B5044600222021FFF7DFFF206826
:100FD0000368BDE810405B6A1847000038B501227D
:100FE0000D4621210446FFF7D1FF27212046FFF7B8
:100FF0009BFFC30702D405F089F9F6E72A212046B2
:10100000FFF7B6FF00B207EE900AD4ED036AB8EE20
:10101000E77AD4ED047AE7EE267A9DB917EE900AC6
:1010200042F00CFB0022094B42F060FB0022084B0F
:1010300042F086FC0022074B42F0A2F942F026FE65
:1010400007EE900A17EE900A38BD00BF000022405C
:10105000000014400000404010B501222121044648
:10106000FFF794FF27212046FFF75EFF830702D496
:1010700005F04CF9F6E728212046FFF779FF00B28A
:1010800007EE900AD4ED016A94ED027AF8EEE77A61
:10109000A7EEA67A17EE100A10BD00002DE9F04F5A
:1010A0002DED048B302183B00446FFF73DFF312145
:1010B00080462046FFF738FF322100902046FFF798
:1010C00033FF352183462046FFF72EFF33210546A7
:1010D0002046FFF729FF352182462046FFF724FFEF
:1010E000362106462046FFF743FF3A2103B2204649
:1010F00008EE903AFFF73CFF3C2181462046FFF77F
:1011000037FF3E2103B2204608EE103AFFF730FFCA
:10111000009B07465FFA88F8D8B2A0EB080042F0BF
:101120007BFA18EE903ACDE900010FFA89F0C01A67
:1011300042F072FA02460B4642F022F902460B4692
:10114000DDE9000142F0FCFB42F0A0FD09EE100ACF
:101150006060404642F060FAF8EEE88A00222E4BCA
:1011600042F0C4FA68EE897A804617EE900A894602
:1011700042F064FA02460B464046494642F0FEF809
:1011800042F084FD2D02A060B00105F4407500F42A
:10119000407045EA0B0B40EA0A001FFA8BFB80B255
:1011A000A0EB0B0042F038FA18EE103A804638B245
:1011B000C01A894642F030FA0022184B42F096FAE3
:1011C00002460B464046494642F0BAFB42F05EFDFD
:1011D00008EE900AE060584642F01EFAB8EEC88A5F
:1011E00000224FF07F5342F081FA68EE287A0646DB
:1011F00017EE900A0F4642F021FA02460B4630469F
:10120000394642F0BBF842F041FD206103B0BDEC2D
:10121000048BBDE8F08F00BF0000E03F00002040DD
:1012200010B5044600680368DB6998470F21204623
:10123000FFF77AFEBC28204603D0FFF7C2FE00204D
:1012400010BDFFF72BFF802220212046FFF79EFED6
:101250000120F5E7014B024A1A6070479C170020F5
:10126000A4140020704710B55C21044639F046F9FB
:10127000204610BD0B4A02601F210022C0E909214F
:10128000C0E90B2280F8342080F83520C0E90E2216
:101290000264A0F8442080F84620C0E91222C0E988
:1012A000152270473CA605008B6A8362CB6AC36235
:1012B0000B6B036391F8343080F8343091F835309B
:1012C00080F835308B6B8363CB6BC3630B6C03642B
:1012D000B1F84430A0F8443091F8463080F84630F8
:1012E0008B6C8364CB6CC364B1F85030A0F8503081
:1012F0004B6D43658B6D8365704708B5FFF7D4FF71
:1013000008BD70B5054686B068460E4603F064FA1F
:10131000EC6C6846002CCCBF0234002403F099FA30
:101320000230241AA86A241808D4AC62AE64684655
:1013300003F08FFAE864012006B070BD0020FBE7DF
:1013400010B5036C23B190F84640023304B1023368
:10135000941C1B1B846A1B1958BFC0E90F124FF065
:1013600000045BBF80F8464083622046012010BD28
:1013700030B5046C24B190F84650023405B1023403
:101380001D1D641B856A64195FBFC0E90F2301231B
:10139000A0F8441080F8463056BF846200201846FA
:1013A00030BD30B5846D002CCCBF043400241D1D2D
:1013B000641B856A64195DBFC0E91523A0F850104D
:1013C0008462002058BF012030BD70B50546806B97
:1013D0000E4688B1047814B145F0D2FD841C304625
:1013E00045F0CEFD0230241AA86A24185DBFAC6215
:1013F000AE630120002070BD0446F0E790F8353060
:10140000826A002B0CBF6FF0020300239B185FBFA2
:101410008362012380F8353080F8341054BF1846B9
:101420000020704704307047406A704790F83500DC
:10143000704738B50446406AC0F11F039342154611
:1014400008DB0430204444F0ADFF626A2A44626243
:10145000012038BD0020FCE770B50446406A0E4606
:101460001D4611460233C0F11F029A420FDB2318BA
:101470006A1C1A71821C0630626220445E712A4620
:1014800044F090FF636A2B446362012070BD00202A
:10149000FCE770B586B00546684603F09DF96846DE
:1014A00003F0D7F9022804466846CCBF0626022678
:1014B00003F0CDF92346024631462846FFF7CCFF1C
:1014C00006B070BD13460A46FF21FFF7C5BF70B5D1
:1014D00088B008AC064624F8201D10461D461A4662
:1014E00001460DF1020044F05DFFAB1C2246FF21D6
:1014F0003046FFF7B1FF08B070BD70B588B008ACDA
:10150000064624F8201D10461D461A4601460DF1D8
:10151000020044F047FFAB1C224616213046FFF77D
:101520009BFF08B070BD07B502AA012302F8011D98
:101530001946FFF791FF03B05DF804FB70B505464F
:1015400010460E46144645F01BFD22460346314622
:101550002846BDE87040FFF77FBF70B505460846D6
:101560000C4645F00DFD1D2807D9224628461D23AF
:101570000821BDE87040FFF76FBF224628460921C9
:10158000BDE87040FFF7DABF38B5C16A00230546F1
:10159000436229B1026B1AB1BDE83840FFF749BF79
:1015A00095F835307BB395F834102846FFF7BBFF2C
:1015B0000446A96C21B12846FFF76BFF0440E4B252
:1015C000E96B61B12B6C53B195F84620EAB10A463C
:1015D0002846B5F84410FFF77AFF0440E4B26A6D7C
:1015E00042B1AB6D33B1B5F850102846FFF785FF17
:1015F0000440E4B2A96B21B12846FFF7AEFF0440D6
:10160000E4B2204638BD0124D3E71A462846FFF746
:1016100059FFE2E70D4B10B504460360406840B146
:1016200000F00EFB002804DC606810B103685B6802
:101630009847A06840B101F01CF8002804DCA068BD
:1016400010B103685B689847204610BD4CA60500A2
:1016500010B50446FFF7DEFF20460C2138F04EFFA0
:10166000204610BD064B10B5C0E9003100230446EA
:10167000836011B1084600F0DEFA204610BD00BFBD
:101680004CA60500064B10B5036000230446C0E9D4
:10169000013111B1084600F0E7FF204610BD00BF40
:1016A0004CA605002DE9F3410446542098460E4609
:1016B000174638F0F1FE9DF820300093054643466A
:1016C0003A46314600F094FB29462046FFF7CAFF10
:1016D000204602B0BDE8F0810346406808B100F042
:1016E000BCBA986808B100F0EBBF70470346406889
:1016F00008B100F0B4BA986808B100F0E3BF7047D1
:1017000010B4446824B120465DF8044B00F0AABA36
:10171000806818B15DF8044B00F0D6BF5DF8044B4B
:1017200070470346406808B100F0FCBA986808B1F9
:1017300001F01EB87047406808B100F000BB704768
:101740004068704770470000024B186803681B69C7
:10175000184700BF94A90500024B186803685B692D
:10176000184700BF94A9050010B4054B01791B6808
:101770001A685469421D184623465DF8044B184701
:101780000CA8050010B50B4B0446186821790368B6
:10179000621D9B6A98474FF6FF739842014606D038
:1017A000054B18680268BDE81040526A104794F96A
:1017B0004B0010BD0CA8050094A9050010B54C21E4
:1017C000044638F09BFE204610BD000010B58AB0DC
:1017D000044648794B7A8A7A039088790290C879CE
:1017E0000190097A009105A8044945F0FBF805A984
:1017F000204605F047F820460AB010BD54A6050063
:1018000007B500230622694605300093ADF8043081
:1018100044F096FD003018BF012003B05DF804FBD2
:1018200008B502790B799A4208D1062205310530B4
:1018300044F086FDB0FA80F0400908BD0020FCE7C6
:1018400010B50A4B0446186803681B69984723685B
:1018500020461B6A984740B1054B217918680368F8
:10186000621D5B6BBDE81040184710BD94A90500D0
:101870000CA8050008B502790B799A4208D1062216
:101880000531053044F05CFD003018BF012008BD73
:101890000120FCE7064A02607F210022C272027327
:1018A00080F84B10C0F80520A0F80920704700BF51
:1018B0007CA6050010B501710021C1720173064CB0
:1018C00004607F2180F84B101168C0F805109288E1
:1018D000A0F8092010BD00BF7CA605002DE9F0414D
:1018E0000F461449064604F0CDFF3A7B00218A4298
:1018F0001CDD7B1801F10208597B9B7B083B012B07
:1019000001F1FF340FD82146304604F094FF002542
:10191000AC420BDD08EB05033B443046597B05F038
:101920003AF80135F4E704EB0801E0E73046BDE89A
:10193000F08100BF28DE05002DE9F04F85B0884614
:1019400022490192834604F09DFF0024A14698F8A5
:101950000C30A34235D908EB0403671CFFB25E7B51
:1019600008EB07035B7B9A1E012A25D9063B012B56
:1019700024D810250234E4B205FB05F30D3400939E
:1019800044444FF0000A731EEAB2534516DD019934
:1019900089450BD1114620460393029202F05CFF69
:1019A0000146584604F0D6FFDDE90223009909F10B
:1019B0000109AA440C44E8E70225DBE73E44F4B2FF
:1019C000C5E7584605B0BDE8F08F00BF28DE05002A
:1019D00010B500220446FFF7AFFF204610BD0000FF
:1019E000F8B50E4B01791B681A68D46A421D184677
:1019F000A047064678B100F0DEFF002407462546E2
:101A0000BC4209DA2146304600F0D7FF01F04CF81D
:101A100001340544F4E705462846F8BD0CA8050046
:101A200008B5134602798A4208D1062219460530C4
:101A300044F086FCB0FA80F0400908BD0020FCE7C5
:101A400010B50446012000FA01F1E1722273194633
:101A500004F10D0044F0A6FC9DF9083084F84B30E9
:101A600010BD70B50D461146C27A42F01002044610
:101A7000C272007B0D302A4620441E4644F092FC80
:101A8000237B84F84B601D44257370BDC37A13F02B
:101A9000180F14BF01200020704700000D4B10B537
:101AA00004460360406840B100F0CAF8002804DC36
:101AB000606810B103685B689847A06840B100F0A7
:101AC000D8FD002804DCA06810B103685B68984763
:101AD000204610BDB0A6050010B50446FFF7DEFF96
:101AE00020460C2138F00AFD204610BD064B10B5EB
:101AF000C0E9003100230446836011B1084600F0BC
:101B00009AF8204610BD00BFB0A6050070B5044687
:101B100030200E4638F0C0FC3146054600F0E4FCAB
:101B200029462046FFF7E2FF204670BD0346406885
:101B300008B100F077B8986808B100F093BD01488B
:101B4000704700BF28DE0500406808B100F00ABDFC
:101B5000704740687047000037B50025009504467F
:101B6000FFF7A0FD024B2360204603B030BD00BF4D
:101B7000D8A3050001220968FFF7D3BDF8B50D46CB
:101B80000D49044604F07EFE2846FFF7AFFD0646E9
:101B90002846FFF7A1FD31460746204604F04BFEDC
:101BA0003D46EB1B9E4205DD15F8011B204604F067
:101BB000F2FEF6E72046F8BD28DE050030B585B018
:101BC0000125044600950423FFF76CFD04A9074B8B
:101BD0002360002341F8043D04222B462046FFF7F2
:101BE0008FFD034B2360204605B030BDE8A3050000
:101BF000F8A3050070470020704710B52021044667
:101C000038F07CFC204610BD10B5054B044640F86A
:101C1000043B02F0E1FD0023E361204610BD00BF5C
:101C2000C0A60500043002F010BE043002F00FBE62
:101C3000043002F00EBEC3690133C3611846704719
:101C4000C369013BC3611846704742F60300704701
:101C500090F820007047406A7047806A7047808D16
:101C600070470000F8B51546426AAA42A8BF2A4646
:101C70000446828592B2806A0E4644F093FB94F843
:101C80002E300BB1636AA38594F8203098060DD5E9
:101C9000A28E91070AD51F4B218E18680368DD6C50
:101CA0000131A38DA26A89B2A847F8BDDA0609D529
:101CB000A38EDB0706D5174B218E18680368013108
:101CC0009D6CEEE794F832300BB90120EDE7124B32
:101CD0001868036821465B6A9847104B1C682368A4
:101CE00001461F6B32462B462046B847094B186801
:101CF00003681B6B98470028E7D1094B18680368F5
:101D00009B6898470028E0D0236820465B6D984781
:101D1000DBE700BF0CA8050034A90500FCA6050000
:101D2000E8A8050038B5054608460C4645F028F9F0
:101D3000214602462846BDE83840FFF793BF0346D8
:101D4000002290F8330083F83320704701867047F3
:101D5000008E7047008E013080B27047806B7047F4
:101D6000836B994208D2C36B0022914202D05B6818
:101D70000132FAE7186870470020704730B5114B00
:101D800003600B7903710B4601F1490453F8052FE9
:101D9000C0F805209B88A0F80930CB7AC3720B7B72
:101DA000037300F10D0201F10D0353F8045B42F8D7
:101DB000045BA342F9D11B88138091F94B3080F862
:101DC0004B3030BD7CA6050038B5044608200D46D2
:101DD00038F062FB0023C0E9005363682BB96060F0
:101DE0002368A0600133236038BDA3685860F7E71B
:101DF00070B504461D461646FFF706FFB5F5007F91
:101E00001A4B23602B46A8BF4FF400730021636276
:101E10009DF8103084F82060A18584F82E3021864A
:101E200084F8321084F83310A186C4E90E112164BD
:101E3000102204F1440044F0B3FB16F0300F0ED032
:101E40002C2038F029FB0A490646022304F134020B
:101E500000F0D6F8314604F13800FFF7B5FF284608
:101E600043F050FFA062204670BD00BFDCA6050015
:101E7000CCA6050070B50446406800252368AB4237
:101E800006D94668082138F039FB01353046F5E7B8
:101E90000023C4E90033A36070BD0000164B70B589
:101EA000044603600025A36B9D4213D2E36B00221E
:101EB000954202D05B680132FAE71E683046FFF7B0
:101EC000BFFE002804DC1EB1336830465B689847CB
:101ED0000135E8E704F138052846FFF7CBFFA06A93
:101EE00008B143F017FF2846FFF7C4FF2046FFF76D
:101EF00081FE204670BD00BFDCA6050010B504467B
:101F0000FFF7CCFF2046542138F0F8FA204610BDE8
:101F1000F0B5C56C97B0044617461E467DB103A8C0
:101F2000FFF72CFF21466846FFF79CFB694603A894
:101F3000A8476846FFF76EFB03A8FFF703FCA16AFA
:101F40001C9A3944304644F02DFA17B0F0BD70B5F4
:101F500004460E461146012280F8332096B01A46F8
:101F6000FFF780FE256D85B1314603A8FFF706FF18
:101F700021466846FFF776FB694603A8A8476846EE
:101F8000FFF748FB03A8FFF7DDFB16B070BD30B5C7
:101F9000838E02F00302934297B0044617D08286E4
:101FA000002A0CBF44224022024455687DB103A898
:101FB000FFF7E4FE21466846FFF754FB694603A895
:101FC000A8476846FFF726FB03A8FFF7BBFB17B03F
:101FD00030BD4FF42450704710B5034B03600446E6
:101FE000FFF708FE204610BDF0A6050010B5044618
:101FF000FFF7F2FF20462C2138F080FA204610BD72
:1020000070B504461D461646FFF7FEFD064B2360DD
:10201000B5F5007FA8BF4FF4007500232662656206
:102020002385204670BD00BFF0A60500406A7047BA
:10203000006A704701857047064B1868036810B541
:10204000DB689847044B18680368BDE81040DB68FC
:10205000184700BF34A9050094A90500024B186871
:1020600003681B69184700BF94A90500024B186854
:1020700003685B69184700BF94A9050010B5064BBB
:10208000186803681B699847044B18680368BDE823
:1020900010401B6B184700BF94A905000CA8050051
:1020A000024B186803681B6C184700BF0CA805009A
:1020B0000430704760307047024B186803681B6932
:1020C000184700BF34A90500024B186803685B6914
:1020D000184700BF34A90500024B186803689B69C4
:1020E000184700BF34A90500024B186803681B6934
:1020F000184700BFE8A80500024B186803685B6931
:10210000184700BFE8A80500024B186803685B6A1F
:10211000184700BFE8A8050010B5074B044618682B
:1021200003681B699847054B19680B6820465B6C70
:102130009847204610BD00BF94A905000CA80500D3
:1021400010B5074B0446186803681B699847054B90
:1021500019680B6820469B6A9847204610BD00BF4F
:1021600094A90500E8A80500024B18680368DB6A1B
:10217000184700BFE8A80500024B186803685B69B0
:10218000184700BF04AB0500024B186803689B6941
:10219000184700BF04AB0500024B186803681B6BAF
:1021A000184700BFE8A80500024B18680368DB6801
:1021B000184700BF0CA80500024B186803681B6E87
:1021C000184700BF94A90500024B186803685B6EAE
:1021D000184700BF94A90500F0B5264B1D682B6871
:1021E00087B004469B6828469847064620B923686E
:1021F0002046DB6898470DE0642004F07FF82B68E8
:1022000028469B699847064638B123682046DB6814
:1022100098470026304607B0F0BD05AA2B6801920A
:102220000DF112020092DF6904AA0DF10E030DF107
:102230000D012846B8470028D9D12B684FF0FF324E
:10224000996A28466FF04043884706460028DCD14B
:102250002B680DF10F02DB6A0DF116012846984735
:102260000028C4D1044B186803689B68984701266E
:10227000D0E700BF94A9050034A9050010B58CB0C3
:1022800000230593ADF81830104B04461868036816
:1022900005A91B6A98479DF8141003919DF8151025
:1022A00002919DF8161001919DF817109DF81830B5
:1022B0009DF81920009107A8054944F093FB07A950
:1022C000204604F0DFFA20460CB010BD94A90500AA
:1022D00054A605000430FFF714B870B5036804462F
:1022E00008469D6AFFF722FC2B4601462046BDE8C2
:1022F000704018470430FFF754B80430FFF720B897
:102300000430FFF735B86030FFF75FB86030FEF794
:10231000F4BF10B5041D2046FEF7EFFF2046FFF77F
:1023200085F828B920460621BDE81040FFF766B8B9
:1023300010BD00002DE9F743051D04466034284612
:10234000FFF722F92046FFF71FF90E4B1E6833688E
:102350002846DF68FFF766F880462846FFF764F8EE
:1023600005462046FFF75EF881462046FFF75CF8F9
:10237000C0B200904B46EAB241463046B84703B07F
:10238000BDE8F083E8A805007FB5094B1C68236809
:10239000164601A89D6904F0CBFA324601A92046F1
:1023A000A847044601A804F027FA204604B070BDEF
:1023B000E8A805007FB5094B1C682368164601A8EC
:1023C000DD6904F0B5FA324601A92046A847044663
:1023D00001A804F011FA204604B070BDE8A8050079
:1023E0007FB5094B1C682368164601A81D6A04F0D6
:1023F0009FFA324601A92046A847044601A804F0E6
:10240000FBF9204604B070BDE8A8050002290BBF07
:10241000044B054B186818680BBF036803685B6BB7
:102420001B6D1847E8A805000CA8050038B5044640
:10243000084B44F8043B05462046FEF71BFF05F118
:102440006000FEF717FF06212046FEF7D7FF28465B
:1024500038BD00BF08A7050010B5054C2046FFF7A2
:10246000E5FF2046034A0449BDE8104037F005BEA9
:10247000B0170020000200207D24010010B5054B9C
:10248000044640F8603BFEF7EDFE201DFEF7EAFE35
:10249000204610BD08A7050010B50446FFF7EEFF63
:1024A0002046BC2138F02AF8204610BD10B50B4B51
:1024B00019680B6894B001A85B6C984701A8FFF7F6
:1024C0009FF948B101A8FFF75DF9044601A8FFF79D
:1024D00039F9204614B010BD7F24F7E70CA8050099
:1024E0004FF420507047000010B50446FFF78CFBF6
:1024F000044B23600023C4E90833C4E90A332046AF
:1025000010BD00BFB0A70500018442847047008C55
:102510007047408C7047406A7047436A994208D2BE
:10252000836A0022914202D05B680132FAE71868A0
:1025300070470020704738B5044608460D46FFF73F
:102540007AFB082037F0A8FF0023C0E90053A36AF4
:102550002BB9A062636AE0620133636238BDE36A4B
:102560005860F7E710B504460846FFF7E9F801465A
:1025700020B12046BDE81040FFF7DDBF10BD70B5AB
:102580000446406800252368AB4206D94668082106
:1025900037F0B4FF01353046F5E70023C4E90033D6
:1025A000A36070BD144B70B5044603600025636AD8
:1025B0009D4213D2A36A0022954202D05B68013289
:1025C000FAE71E683046FFF73BFB002804DC1EB12B
:1025D000336830465B6898470135E8E704F1240525
:1025E0002846FFF7CCFF2846FFF7C9FF2046FFF734
:1025F00001FB204670BD00BFB0A7050010B5044622
:10260000FFF7D0FF2046302137F078FF204610BD7D
:1026100010B5044B044640F8043B04F0EDF82046A6
:1026200010BD00BFC4A7050010B50446FFF7F0FFBA
:102630002046142137F062FF204610BD38B504460D
:102640002546074B45F8043B0846114602F004F9BD
:102650000146284604F016F900232361204638BDC0
:10266000C4A7050040687047036901330361184639
:1026700070470369013B03611846704738B504464B
:102680001D46FFF7DBFF0D4B2360BDF81030E382E2
:102690009DF814302376BDF818306383012200239F
:1026A000A582C4E9073384F8243084F82520C4E9DE
:1026B0000A33C4E90C33204638BD00BFD4A7050057
:1026C000C0697047006A70472DE9F0439846274B70
:1026D0001E68336885B004460F469B6B818A30467E
:1026E0009146984718B9002005B0BDE8F0833368DB
:1026F000A18ADB6B30469847033885B24D45A8BFA9
:102700004D462946E06943F0ABFFE0610028EAD07E
:10271000237E1A071CD5B8F1000F19D003A833681F
:102720000190E8B20090D3F85880628BA18A3B46B2
:102730003046C0470028D7D09DF80C30012BD2D0AE
:102740002A463946E06943F02DFE25620120CBE799
:102750005B07C8D53368628BA18AE8B20090D3F8D2
:102760005C8030463B46C047EAE700BF0CA8050046
:1027700070B50546084616460C4644F001FC334643
:10278000024621462846BDE87040FFF79DBF408BBA
:10279000704738B5044608460D46FFF765FF082028
:1027A00037F07AFE0023C0E90053E36A2BB9E062F8
:1027B000A36A20630133A36238BD236B5860F7E737
:1027C00070B50446406800252368AB4206D94668C8
:1027D000082137F093FE01353046F5E70023C4E9C0
:1027E0000033A36070BD03688B4208D943680022A0
:1027F0008A4202D05B680132FAE71868704700200D
:1028000070470000F8B50546144B45F8283B0446D0
:102810000026A36A9E420FD231462846FFF7E3FF07
:102820000746FFF726FF002804DC1FB13B68384647
:102830005B6898470136ECE72846FFF7C1FFE0697F
:1028400018B143F067FA0023E3612846FFF7B8FFA9
:102850002046FFF7DDFE2046F8BD00BFD4A70500E7
:1028600010B50446FFF7CEFF2046382137F046FE6C
:10287000204610BD70B50446036296B00D46C0698F
:102880001946164643F0ECFEE06110B9206216B01E
:1028900070BD012384F824300023314684F82530AC
:1028A000226A43F07FFD666B002EF0D0194B039334
:1028B0002B798DF810302B4605F1490153F8052F7F
:1028C000CDF811209B88ADF81530EB7A8DF81730D4
:1028D0002B7B8DF818300DF1190205F10D0353F81B
:1028E000040B42F8040B8B42F9D11B88138095F836
:1028F0004B308DF8573021466846FEF7C3FE6946D7
:1029000003A8B0476846FEF785FE03A8FEF71AFF46
:10291000BDE700BF7CA60500074B10B50446036069
:10292000806918B143F0F6F90023A3612046FFF750
:102930006FFE204610BD00BFE4A7050010B5044699
:10294000FFF7EAFF2046202137F0D8FD204610BDD2
:1029500038B504461D46FFF771FE054B2360BDF8F0
:102960001030E3820023A582C4E90633204638BD37
:10297000E4A70500034A02600022C0E90122C26008
:10298000704700BFF4A7050038B5044608460D4659
:10299000FFF76AFE082037F07FFD0023C0E90053EF
:1029A000A3682BB9A0606368E0600133636038BD41
:1029B000E3685860F7E7406870474368994208D277
:1029C00083680022914202D05B680132FAE71868FE
:1029D00070470020704770B50446406800252368A2
:1029E000AB4206D94668082137F088FD01353046EC
:1029F000F5E70023C4E90033A36070BD70B5064657
:102A0000002473689C4213D2B3680022944202D01F
:102A10005B680132FAE71D682846FFF72AFE0028A6
:102A200004DC1DB12B6828465B6898470134E8E751
:102A3000301DFFF7D0FF70BD38B50446054B44F894
:102A4000043B0546FFF7DAFF2046FFF7C4FF2846A0
:102A500038BD00BFF4A7050010B50446FFF7ECFF32
:102A60002046102137F04AFD204610BD38B50446F7
:102A70001D46FFF7E3FD084B2360BDF81030E382ED
:102A8000A582064904F1180003F0FCFE0023C4E906
:102A90000933E362204638BD04A8050028DE05009E
:102AA000808A7047C08A7047406A7047436A99427B
:102AB00008D2836A0022914202D05B680132FAE7B1
:102AC000186870470020704738B5044608460D4620
:102AD000FFF7CAFD082037F0DFFC0023C0E90053F0
:102AE000A36A2BB9A062636AE0620133636238BDF6
:102AF000E36A5860F7E770B504464068002523682C
:102B0000AB4206D94668082137F0F8FC013530465B
:102B1000F5E70023C4E90033A36070BD164B70B520
:102B2000044603600025636A9D4213D2A36A002213
:102B3000954202D05B680132FAE71E683046FFF723
:102B400098FD002804DC1EB1336830465B68984766
:102B50000135E8E704F124052846FFF7CCFF2846B5
:102B6000FFF7C9FF04F1180003F046FE2046FFF707
:102B70004FFD204670BD00BF04A8050010B50446F7
:102B8000FFF7CCFF2046302137F0B8FC204610BDBF
:102B900081807047816070472DE9FF41013A13F849
:102BA000014BD6B20268CDE90233D26B05460F461F
:102BB00090470C2C02462968029B73D02ED8052C16
:102BC00065D019D8022C5ED00BD8012C52D0062328
:102BD0000093D1F8B8600023224639462846B04712
:102BE00068E0032C51D0042CF1D100930C6F3346D4
:102BF00039462846A0475DE0092C4DD007D8062C61
:102C000047D0082CE3D10093D1F88040EFE70A2C9D
:102C100048D00B2CDBD1D1F890402CE0162C4CD0B6
:102C20000FD8112C3BD005D8102CD0D10093D1F85F
:102C30009440DCE7122C18D0132CC8D1D1F8A44052
:102C400019E01D2C04D00CD8182C3AD01B2CBED166
:102C50000093D1F8B0803346224639462846C04713
:102C600028E01E2C31D0522CB1D1CDE90063D1F82F
:102C7000A0601BE00C6E324639462846A44604B0DC
:102C8000BDE8F04160474C6EF5E7CC6EF3E78C6F22
:102C9000F1E70093CC6FAAE7D1F88840EBE7D1F8D1
:102CA0009C40E8E7CDE90063D1F88C6023463946C3
:102CB0002846B04704B0BDE8F0810093D1F8A840A1
:102CC00095E70093D1F8AC4091E7D1F8B440D2E752
:102CD00082894FF6FF739A4207D1838B934204D1C6
:102CE000808DC01A18BF012070470120704708B5B9
:102CF00003689B6A98474FF6FF73C01A18BF0120FC
:102D000008BD000038B50A4B0546186803681B6902
:102D10000C469847AB89A34207D0AB8BA34204D0A3
:102D2000A88D031B5842584138BD0120FCE700BF65
:102D300094A9050083898B420AD0838B8B4209D0EA
:102D4000838D8B4208D1022300EB0310C08A7047A9
:102D50000023F9E70123F7E7172070471FB5ADF807
:102D60000D200268009302248DF80C400323D2F852
:102D7000CC4003AAA04704B010BD1FB5ADF8092090
:102D8000ADF80B30069A0368009204248DF80840D1
:102D900002AAD3F8CC400523A04704B010BD1FB54C
:102DA000ADF80B30BDF81830ADF80920ADF80D3096
:102DB000079A0368009210248DF8084002AAD3F8FD
:102DC000CC400723A04704B010BD1FB5ADF80B30B1
:102DD000BDF81830ADF80920ADF80D30079A03683A
:102DE000009208248DF8084002AAD3F8CC400723AB
:102DF000A04704B010BD012380F83C3070470000AC
:102E00001FB5ADF80A309DF818308DF80C30084B1E
:102E10008DF8092001208DF80800186802AA0368BF
:102E200000929C6D04220523A04704B010BD00BF92
:102E300094A9050001299CBF00EB81004265704701
:102E40001FB5ADF80D20026800930A248DF80C40E0
:102E50000323D2F8CC4003AAA04704B010BD000061
:102E60002DE9F843DFF85C8000F1100400F1400523
:102E700000264FF6FF774FF0170934F8041CB942CB
:102E800017D0D8F800000368DB6D984788B904F8BC
:102E9000020C04F8010C2060A080A06824F8047CD7
:102EA0000136A4F8069010B103685B6898470023C8
:102EB000A3601034AC42E0D1002ED4BF002001202A
:102EC000BDE8F88394A9050010B5044B03600446DF
:102ED000006C08B142F01EFF204610BD18A8050086
:102EE00010B50446FFF7F0FF20465C2137F006FBE3
:102EF000204610BD2DE9F0431C4B1D688BB0062306
:102F00000F460421002490462A680097CDE9071354
:102F1000C821CDE905410C21CDE90331CDE901847A
:102F20000646D2F84C902346302260212846C847F6
:102F3000D0B903F0D1F9044603F0CEF9B368001B11
:102F400098422B680DD21B69284698473368424641
:102F50005B6B3946304698470028EDD00BB0BDE892
:102F6000F0835B6D284698470020F7E794A9050099
:102F7000F8B503689B6A044698474FF6FF7398427A
:102F800006461CD00F4B1D682B680146DB6D28469A
:102F9000984703F0A1F9074603F09EF9A368C01B08
:102FA00098420CD22B6828461B6998472368314603
:102FB0009B6B204698470028EED10120F8BD0020E9
:102FC000FCE700BF94A905002DE9F3410546089CE4
:102FD000A5F848101078EC64013085F84A0000200C
:102FE00085F850001848066830680092D0F858807C
:102FF000DBB2042230460F46C0471CB303F06CF925
:10300000044603F069F9AB68001B984214D2336898
:1030100030461B6998472B6839469B6B2846984772
:1030200050B195F850000028EBD04FF6FF73A5F88B
:10303000483002B0BDE8F0814FF6FF73A5F8483084
:103040000020F6E72046F4E794A905002DE9F047B3
:10305000994603689B6A044698474FF6FF73984267
:10306000054604D14FF000084046BDE8F0872368CC
:103070000146D3F8BC302046984780460028F1D05E
:10308000A389AB4236D0A38BAB4235D0A38DAB42E4
:10309000E8D1022604EB0616B36933B9102037F0E5
:1030A000FBF90746FFF766FCB761B669002ED9D079
:1030B0003046B9F1000F21D1FFF7A0FC236832465A
:1030C000D3F8C07029464B462046B8470028C9D0DF
:1030D00023683246D3F8C430294620469847002852
:1030E000C0D02368324629462046D3F8C830BDE810
:1030F000F04718470026CDE70126CBE7FFF75BFC3A
:10310000002782465745D9DA39463046FFF755FC45
:10311000FFF7A8FA494643F0CBFC0028A4D00137BA
:10312000F0E7F0B5C5B004469DF82851ADF80D2084
:103130000F4612218DF80C102A4619460DF10F008A
:1031400043F030F923684B9A0092D3F8CC6003AA7D
:10315000EB1C39462046B04745B0F0BDF0B5C5B0D0
:1031600004469DF82851ADF80D200F4652218DF8E8
:103170000C102A4619460DF10F0043F013F923688D
:1031800000220092D3F8CC6003AAEB1C39462046FB
:10319000B04745B0F0BD70B5858994B04FF6FF7467
:1031A000A5421646189A07D0858BA54220D0858D5A
:1031B000A5421BD1022400E0002400EB04150134D9
:1031C0002401A9810119AE731726CE80EB7315680F
:1031D000055194888C80446D44B1194601A8FEF7CE
:1031E00069FB01A8A04701A8FEF7ACFA14B070BDB6
:1031F0000124E2E72DE9F04106460F46904600F132
:103200001005002415F8013CBB420AD106224146B4
:10321000284643F095F820B906EB0414A089BDE8D0
:10322000F0810134032C05F11005EBD14FF6FF704E
:10323000F5E72DE9F041064600F110050F469046EE
:10324000002015F8013CBB4200F101040AD106221E
:103250004146284643F074F820B906EB0410806814
:10326000BDE8F081032C204605F11005E9D10020CE
:10327000F6E770B5002304464FF6FF7508468289CD
:10328000AA4203F1010202D0867B012E08D0032A54
:10329000134600F11000F2D12046FEF7FBFA07E0DA
:1032A00001EB031301EB02122046D97BFEF702FB70
:1032B000204670BD98B58288D31DEC46DB08ACEB88
:1032C000C30300AF9D4603689C6E6B46A047003069
:1032D00018BF0120BD4698BD2DE9F04F87B002AF61
:1032E0001D46DFF890A0B96000F130039146044616
:1032F000FB600026B4F80C80C7F804D04FF6FF73CB
:1033000098452AD0E38ADA1D6946D208A1EBC202A9
:10331000033B95469BB2ADB29D424FF01B0228BFC6
:103320001D468DF808203A89ADF8092049462A46FD
:103330000DF10B0043F036F8DAF800000DF1080B40
:103340000268CDF800B0EB1CD2F858B0DBB2042212
:103350004146D847D7F804D00136FB6810349C4268
:10336000C8D1002ED4BF002001201437BD46BDE8CF
:10337000F08F00BF94A905002DE9F04F87B002AF90
:10338000C7E900211E4600F14003054600F1100484
:10339000BB604FF0000934F804ACC7F80CD04FF60E
:1033A000FF739A4542D0E388DA1D6946D208A1EB43
:1033B000C202033B95469BB2B6B29E424FF01D023D
:1033C00028BF1E468DF80820BA88ADF80920396854
:1033D00032460DF10B0042F0E5FF002385F83C304A
:1033E000194BD3F800800DF1080BD8F80020CDF868
:1033F00000B0F31CD2F858B0DBB20422514640466C
:10340000D84795F83C306BB9D8F8003040461B6976
:1034100098472B6814F8011C5B6B22462846984796
:103420000028EED1D7F80CD009F10109BB6810349F
:10343000A342B0D1B9F1000FD4BF0020012014374E
:10344000BD46BDE8F08F00BF94A905002DE9F04FFF
:1034500089B002AF042BFA603A6CC7F808D0C7E90C
:10346000041014880AD0036804220092D3F8B850DC
:103470002346A8471C37BD46BDE8F08FFB680733DD
:103480006A46DB08A2EBC3039D460DF1080805233D
:103490008DF80830002388F80130484B013CD3F800
:1034A00000A0A4B20225DAF800305046DB69984744
:1034B000844258D23B6C5B88A34254D9DAF800307E
:1034C00021461B6A5046984703689B688346984785
:1034D00042F6030301349842A4B255D15846FEF790
:1034E00039FC231A59425941DBF8003079609B6856
:1034F000584698477968024611B9B0F5245F45D11E
:103500005846C7E90012FEF793FBD7E900120228DC
:10351000064614BF0223012398F8010008B988F871
:10352000013098F8010098421DD105F102091FFAF7
:1035300089F928F8054008EB090311B9B2F5245FB1
:1035400027D158467B60FEF770FB7B680146324608
:10355000184642F027FF09EB0605ADB20236FB68BC
:103560002E44B3429FDA022D1CD17A693B6C12685B
:103570001B880A210091D2F8B840D7E90410042230
:10358000A047D7F808D075E70021ADE70226012350
:10359000C2E7DBF8003058469B689847043528F8A6
:1035A0000900DAE7064B18680368CDF800809C6DC7
:1035B0003969EBB20422A047E3E700BF34A9050054
:1035C00094A905002DE9F04F89B002AF052B3E6CA0
:1035D000C7F808D08346C7E9032134880BD80368AD
:1035E00004220092D3F8B85006222346A8471C377D
:1035F000BD46BDE8F08FFA6807326946D208A1EBF4
:10360000C202954607228DF80820B288B2F5205FE5
:103610000DF1080A0DD0DBF8002033880A21009153
:10362000D2F8B840396906225846A047D7F808D0E2
:10363000DDE7063B9BB27B61274B013CD3F8009052
:10364000B31DA4B201257B60D9F800304846DB6980
:103650009847844232D27388A3422FD9D9F80030D8
:1036600021461B6A4846984703689B6880469847EE
:10367000B38883421BD14046FEF7DAFA7B69984251
:1036800015D14046FEF7D1FA7A69796842F058FEC2
:1036900068B94046FEF73BFF2AF805004046FEF7B2
:1036A00038FFAB1C9BB204352AF80300ADB2FA68B0
:1036B000EB1C9A4202DD0134A4B2C5E7012DAAD069
:1036C000064B18680368CDF800A09C6D3969EBB211
:1036D0000422A047AAE700BF34A9050094A9050069
:1036E0002DE9F04F89B002AF062BBA603A6CC7F8EB
:1036F0000CD081468B46158804D19388A3F52053BE
:10370000012B0FD9D9F8003010220092D3F8B8401D
:103710002B4659464846A047D7F80CD01C37BD4623
:10372000BDE8F08FBB6807336A46DB08A2EBC30332
:103730009D4602AE11238DF8083000237370354B7F
:10374000013DD3F800A0ADB20224DAF800305046B3
:10375000DB699847854247D23B6C5B88AB4243D9D3
:10376000DAF8003029461B6A504698473B6C0268DD
:103770009B887B619268804690477B69834230D109
:103780004046FEF755FA0228034614BF14230623C9
:103790003B61737878610BB93B7C737073783A69DD
:1037A000934221D14046FEF7B2FE30534046FEF729
:1037B000B0FEA31C9BB20434A4B2F05233194046AD
:1037C0007B60FEF732FA7B687A690146184642F060
:1037D000E9FD7B69BA681C443B69A4B223449A4260
:1037E00002DB0135ADB2B0E7022C09D13B6CD9F850
:1037F00000201B880A210091D2F8B840102288E7E7
:10380000054B1868036800969D6D0422E3B2594683
:10381000A84781E734A9050094A905002DE9F04FD8
:103820009BB09B4602AFBBF10A0F15460446884683
:1038300097F88820D7F88C30C7F80CD00FD1022A1F
:1038400017D0036804220092D3F8B8405A460023E8
:10385000A047D7F80CD06437BD46BDE8F08F042AE6
:1038600007D0036804220092D3F8B8400C2200234A
:10387000EEE7BBF10A0FB3F8009018BF5E88714BFA
:103880001B68BB601A681846D26908BF00269047BB
:1038900009F1FF318AB28242BB6807D923680A2244
:1038A0000092D3F8B8505A464B4622E06A1E0735BC
:1038B000BA60ED086A46A2EBC5029546BBF10A0F55
:1038C000EA460CBF0B220D220AF8082F1A68184688
:1038D000126A904703689B6805469847B0F5205FD9
:1038E00025D156B1236804220092D3F8B8500B2298
:1038F0004B4641462046A847ABE72846FEF798F9D5
:1039000004462846FEF791F9224601460DF10900CA
:1039100042F048FD0134A4B24B4B18680368CDF85F
:1039200000A09D6D0422E3B24146A84791E742F60C
:103930000303984264D12846FEF70AFA48451BD192
:1039400016B123680B22ABE72846FEF781F98AF807
:1039500001002846FEF7FEF9AAF802002846FEF705
:1039600067F904462846FEF760F92246014603A897
:1039700042F018FD0434CEE72846FEF769F98307C4
:1039800002D4236802228BE72846FEF768F983B247
:103990009E4202D32368072282E7BB6880B2801B65
:1039A0008342A8BF03469B469BB2BB6004F1400321
:1039B00004F110097B6001241FFA8BFB39F8043CE9
:1039C000434517D14A4619F8011C07F11400FDF7C9
:1039D00071FF0AEB0403324607F114012846CDF8C3
:1039E00000B0FEF795FA07F11400FDF7ABFEBB68D7
:1039F0001C44A4B27B6809F110099945DED18BE71C
:103A0000B0F5245F1BD12846FEF710FB83B29E421F
:103A1000C0D2BB6880B2841BA342A8BF23462846FD
:103A20009B46FEF705FB1FFA8BF281190BF1010B88
:103A30000DF1090042F0B6FC1FFA8BF46CE701248B
:103A40006AE700BF34A9050094A905002DE9F04FED
:103A500089B002AF91463A6CC7F808D0062BC7E987
:103A6000031015880BD0036804220092D3F8B840E5
:103A700008222B46A0471C37BD46BDE8F08F09F150
:103A800007036A46DB08A2EBC3039D460DF1080855
:103A900009238DF80830002388F801306C4B1B682F
:103AA0007B613B6C013D0433ADB202247B607B69DA
:103AB00078691B68DB699847854280F083803B6C9E
:103AC0005B88AB427ED97B6978691B6829461B6A93
:103AD000984703689B68064698473B6C9B888342DF
:103AE000336805F1010A1FFA8AFA9B6830467AD1D9
:103AF000984742F6030398423DD13046FEF72AF933
:103B0000824535D03046FEF793F898F80120022818
:103B1000034614BF4FF0150B4FF0070B0AB988F896
:103B200001B098F801203B605A454BD128F804A019
:103B30003046FEF78DF8A21C92B2023508F802005A
:103B4000E21C92B2304628F80250FEF76EF80534B7
:103B50003B68A4B208EB04051A460146284642F029
:103B600021FC3B681C44A4B2A344D9452ADB55463A
:103B70000135ADB29BE7336830469B68984742F603
:103B800002139842F4D128F804A03046FEF74EFA0A
:103B90000234A4B2A9EB040980B21FFA89F9814565
:103BA00028BF8146304608EB0405FEF741FA4A4635
:103BB00001464C44284609F1020942F0F3FBA4B245
:103BC00088F80190022C38D13A693B6C12681B8846
:103BD0000A210091D2F8B840D7E903100822A04783
:103BE000D7F808D047E7984742F603039842BFD179
:103BF0003046FEF71DF802288346B9D13046FEF75D
:103C000014F85A460146786842F09AFB0028AFD172
:103C100028F804A03046FEF722F80234A4B2A9EB3B
:103C200004091FFA89F980B2814528BF81463046D0
:103C300008EB0405FEF711F8B9E7064B18680368AE
:103C4000CDF800809D6DF968E3B20422A847C7E76C
:103C500034A9050094A905002DE9F047012B96B081
:103C6000044602AF884616461D46E9460BD0036857
:103C700004220092D3F8B84018220023A0475037FE
:103C8000BD46BDE8F087C18F39B33B6F1B78DB07BA
:103C900023D5204B1868036801391B6A9847A3890C
:103CA0004345824632D0A38B434531D0A38D434553
:103CB00013D102235A1C04EB031304EB0212D97B29
:103CC000381DFDF7F7FD5046B4F84430226C391D1D
:103CD000FEF73DF9381DFDF735FD00230736E38774
:103CE000A4F84430F6086B46A3EBC6039D4619239F
:103CF0008DF80830084B186802AA036800929C6D82
:103D0000042201234146A047CD46B8E70023D1E76E
:103D10002B46CFE734A9050094A905002DE9F04F03
:103D200087B002AF032B04460D467A601E46C7F8E3
:103D30000CD00DD8036804220092D3F8B8401622A4
:103D40000023A047D7F80CD01437BD46BDE8F08F4C
:103D5000BB6B1B883B811FFA83F8BB6BB3F802B0C7
:103D6000484BD3F80090D9F800304846DB699847B3
:103D700008F1FF318BB2834206D923680A220092F0
:103D8000D3F8B860434620E0D9F8003048461B6AB3
:103D9000984703689B688146984742F60303984218
:103DA00002D023680B22EAE74846FDF7D3FF4045DF
:103DB0008246F6D14846FDF74BFF03070AD4236835
:103DC00003210091D3F8B8605346162229462046B5
:103DD000B047B7E7E38FCBB948463B60FDF73BFF01
:103DE00001468246206C42F03BFC3B683A89E28700
:103DF0002064A4F844305246194642F0D1FBB4F88E
:103E000044305B4507D023680722B8E75345F6D016
:103E100023680E21D5E7331F5FFA83FA0BEB0A0202
:103E20004846BA60FDF717FFBA6880B28242EADC02
:103E3000BB6B206C5246191D584442F0B3FAB4F8DB
:103E40004420B96B0AEB0203A4F844307B680733C3
:103E50006A46DB08A2EBC3039D4617238DF80830A2
:103E600032460DF1090042F09DFA074B186802AC8A
:103E700002680094731C946DDBB204222946A047AB
:103E800060E700BF34A9050094A905002DE9F04FB3
:103E90008FB002AFC7E90021FB608388F968073360
:103EA0006A46DB08A2EBC30307F118059D4683466B
:103EB000284600F091FC0DF108090124BD60DBF8F3
:103EC0000030CDF804904FF420520092D3F898506F
:103ED00079684FF6FF7322465846A847054620B139
:103EE00099F80030112B04D001203437BD46BDE8CD
:103EF000F08F99F801307B61A3F1040802235FFA87
:103F000088F809F102063B614FF6FF7A3B69AB4244
:103F100004DB4FF6FF739A45D1D0E5E7FB68E3B9C0
:103F2000302036F0B9FA3146728831F8043B0092FD
:103F300004464246FEF79AFD21463868FEF724FD06
:103F40007488D7E904320134A4B2002C134408BFAA
:103F50004FF0000A3B611644D8E7B86800F079FCDE
:103F60004045EDD1B86800F072FC42460146301D74
:103F700042F0E6F90028D3D0E2E72DE9F04F8DB00A
:103F8000838804AFC7E9042107336A46DB08A2EB44
:103F9000C3039D4682463869FEF70DFD0DF11009F9
:103FA000F8604FF00008FB6898454ADA41463869E6
:103FB000FEF703FDB861FEF773FD0646B869FEF72C
:103FC00071FDB860DAF80030CDF8049042F60302D3
:103FD0000092D3F884407969BB6832465046A047C6
:103FE000054678B399F80030092B27D199F80130AC
:103FF000FB61053BDBB27B6009F102044FF0020B71
:10400000AB45DFDA382036F047FAB4F803300293D4
:10401000A37801932388009306467B697A68611D23
:10402000FEF72CFB3146B869FEF74EFDB4F803608D
:10403000FB690136B6B29B441C44E1E708F1010874
:10404000B1E701202437BD46BDE8F08F2DE9F04FE0
:104050008FB0838802AF0733C7E90421DB086A46C3
:10406000A2EBC3039D4602AB82463869FB62FEF7B2
:10407000A2FC4FF0000BF860FB689B456DDA5946D7
:104080003869FEF79AFC7862FEF70CFDB860786A32
:10409000FEF70AFD431E386200267B603B6A9E42A3
:1040A00058DA3146786AFEF701FD7B68F8619E4276
:1040B00049D0711C786AFEF7F9FC0546F869FEF7ED
:1040C00066FB013084B2002D3FD02846FEF75FFB2F
:1040D000B862BB6AA3423BD3DAF80030FA6A0092B6
:1040E0005D6F7969BB6A22465046A847054600289D
:1040F00034D0FB6A1B78052B2AD1FB6A93F8019018
:104100004FEA8903BB61FB6A4FF0020903F1020821
:10411000A945E1DA202036F0BFF9B8F80030009365
:10412000022208EB020104467B69FEF711FC2146DE
:10413000F869FEF72EFBB8F80040BB690134A4B261
:1041400099449844E4E70025B8E7BB68BB62C0E740
:104150000136A3E70BF1010B8EE701203437BD4692
:10416000BDE8F08F30B5022A85B004460D4609D06F
:10417000036804220092D3F8B84002220023A0472B
:1041800005B030BD1B888188994228BF19468389B4
:10419000AB4217D0838BAB4216D0838DAB4202D19A
:1041A00004EB0214E182094AADF80D1003231068F4
:1041B0008DF80C30026803A90091946D2946042201
:1041C000A047DDE70022EBE70122E9E794A905001B
:1041D000042A13D1B0F848208A420FD190F84A201F
:1041E0001978013A8A4209D1C26C01211170C26C5E
:1041F0001B68C2F80130052380F850307047022A4E
:1042000010B51CD184898C421AD0848B8C4219D071
:10421000848D8C4203D100EB02121C88D482B0F84A
:1042200048208A420BD190F84A20032A07D1C16C5A
:104230000A70C16C1B88A1F8013080F8502010BDB5
:104240000022E8E70122E6E7012A38B504461546D0
:1042500011D9B0F8480088420DD194F84A000528D9
:1042600009D1E16C0870E06C19460130013542F06B
:1042700099F884F8505038BD012A38B504461546DF
:1042800011D9B0F8480088420DD194F84A0011289D
:1042900009D1E16C0870E06C19460130013542F03B
:1042A00081F884F8505038BD38B50446B0F848005D
:1042B000884215460DD194F84A100B2909D1E06CBB
:1042C0000170E06C19460130013542F06BF884F85A
:1042D000505038BD38B5044615468AB1B0F848008C
:1042E00088420DD194F84A00092809D1E16C087080
:1042F000E06C19460130013542F054F884F8505012
:1043000038BD62B9B0F848308B4208D190F84A30D5
:10431000132B01BFC26C1370012380F8503070471B
:104320002DE9F04F99B002AF044697F880B07A605B
:10433000BBF1010F0E461D460DD8122B07D10368A5
:1043400004220092D3F8B8402A460023A0475C37E5
:10435000BD46BDE8F08FD7F88430B3F80090614BCC
:10436000D3F800A0DAF800305046DB69984709F12D
:10437000FF318BB283420CD9122DE8D123680A2277
:104380000092D3F8B8802A464B4631462046C047B3
:10439000DDE7DAF8003050461B6A984703689B68EF
:1043A0008046984742F6030398424FD14046FDF7B6
:1043B000D1FC8145404601D1122D38D1FDF748FC92
:1043C000020750D5A389B34236D100235A1C04EB0F
:1043D000031304EB0212D97B07F10C00FDF76AFA14
:1043E000D7F88420ABF10203DBB2023207F10C01F3
:1043F0004046FDF7ACFD07F10C00FDF7A3F9122DC7
:10440000A5D17B6807336C46DB08A4EBC3039D464C
:1044100013238DF80830344B186802AA0368009201
:104420009D6D042201233146A847A5468FE7FDF77D
:104430000FFC43078BD5C5E7A38BB34204D0A38DF4
:10444000B342DCD10223C1E70123BFE7D8F8003033
:1044500040469B689847B0F5245F04D14046FDF77D
:10446000E7FB022805D0122D7FF471AF23680322E9
:1044700086E74046FDF7D9FB028842F602139A42CE
:10448000F1D1DAF80030A9F102011B6A50469847D1
:1044900003689B688046984742F603039842E2D13E
:1044A000A389B34207D0A38BB34218D0A38DB342E4
:1044B000A5D1022300E000235A1C04EB031304EBF4
:1044C0000212D97B07F10C00FDF7F4F9D7F884301C
:1044D00007F10C015A884046FDF759FD8BE701238F
:1044E000EAE700BF34A9050094A905002DE9F04FC3
:1044F0009DB0012B07468A460792039365D9269BF8
:104500001E8800F1300305460693F6B2AB89534589
:1045100047D1AC69002C48D02046FEF74CFA4FF04A
:10452000000B8046D8453CDD59462046FEF745FA4B
:104530008146FEF7B5FAB04230D24846FEF7B2FAED
:1045400086422BD84846FEF7AFFA0BF1010307EB82
:104550000313049005934FF0000807EB0B14049B22
:1045600043451EDD41464846FEF7A0FA8346FEF766
:104570000EF986420FD1059AE17B09A8FDF79AF959
:10458000039B269A5846023B023209A9FEF772F9AC
:1045900009A8FDF7D7F808F10108E0E70BF1010BD6
:1045A000C0E7069B1035AB42B0D1079B1D2B0CD149
:1045B0001CAB1E2203F84C2D054A106802680093BC
:1045C000946D012304225146A0471DB0BDE8F08F31
:1045D00094A905002DE9F04F00230446A9B09846A0
:1045E0004FF0FF354FF6FF7004EB031292898A42B9
:1045F00008BF1D46824203F1010318BF08F10108FC
:10460000032BF1D16B1C00F0A8806E1C2F01E31965
:10461000360104EB060A5246D97B02A8FDF74AF997
:10462000B8F1010F54D14E4BD3F800804FF0000980
:1046300042F6030BD8F800301FFA89F10191DB69CB
:1046400040469847019988423ED9D8F80030404604
:104650001B6A984702680190926890475845019BF1
:104660002FD1404A15929DF80C208DF8582028AA89
:104670000DF1510052F8931DCDF859109288ADF804
:104680005D209DF813208DF85F209DF814208DF893
:1046900060200DF161010DF1150252F804CB41F8D3
:1046A00004CB8242F9D112880A809DF853208DF8FC
:1046B0009F201846002215A9FDF769FC15A8FDF7F3
:1046C00041F809F10109B5E70023E387A4F8443074
:1046D000A16D61B3234B15939DF80C308DF85830C4
:1046E00028AB0DF1510053F8932DCDF859209B883C
:1046F000ADF85D309DF813308DF85F309DF81430C3
:104700008DF860300DF161020DF1150353F804CB03
:1047100042F804CB8342F9D11B8813809DF85330B3
:104720008DF89F3015A8884715A8FDF70BF827448A
:104730004FF6FF73FB600023A35104EB0514AAF8A6
:104740000430A0691723E38210B103685B689847BF
:104750000023A36102A8FCF7F5FF29B0BDE8F08FA4
:1047600034A905007CA60500114B036041F2883393
:1047700017218360002330B58180C3870364A0F8CC
:10478000443000F1100200F140044FF6FF7522F8AA
:10479000045C02F8023C02F8013C13609380D18073
:1047A00093601032A242F2D14365836530BD00BFF1
:1047B00018A8050010B5054C2046FFF7D5FF204688
:1047C000034A0449BDE8104035F057BC6C1800207E
:1047D00000020020C92E010073B5002504460E46D4
:1047E00040F8041B10222946ADF804508DF80650FD
:1047F00041F0D6FE2575304642F0C2FB451E002D25
:10480000237D19DB0F2B1ED8735D2D2B02D10135B3
:10481000023DF4E77219002112F8012C8DF80420F2
:1048200001A810228DF8053042F02AFF237DE218FE
:10483000013310712375EBE7022B04D802232046C5
:10484000237502B070BD1023F9E70068704704308B
:104850007047007D704700002DE9F047144C8046FA
:104860004D1E4FF4AA594FF02D0A6A1C1AD018F8A1
:10487000057010222146380901F0C3FB1022611C8B
:1048800007F00F0001F0BDFB0C2D04F1020606DC61
:1048900029FA05F3DB0744BFE61C84F802A0013DBA
:1048A0003446E2E7002323700148BDE8F08700BFEB
:1048B000C8180020007970472DE9F04F89B0904664
:1048C0000DF1180B027A9DF848601F46002305463B
:1048D00089460693ABF80430FAB99E4214BF4FF0F4
:1048E000020A4FF0030A2B6828461B699847194BA8
:1048F000EA881C680021072023680091CDE90301A4
:10490000CDE9011B2046D3F834B011465346D847B1
:1049100028B1002009B0BDE8F08F9A46E3E723688C
:104920004A469B6B4146204698470028F1D12368B0
:104930003A46DB6B3146204698470028E9D1236888
:1049400001211B6C204698470028E2D101202871E4
:10495000E0E700BF94A90500034B0021017118682E
:1049600003681B6C184700BF94A905002DE9F341AB
:10497000124B1D682B6801229B6C07460E46284689
:104980000021002498472B68CDE90044D3F84480E7
:1049900010231A4601212846C04768B901217971C0
:1049A0002B6886EA01029B6C28469847B0FA80F093
:1049B000400902B0BDE8F0812046FAE794A905005D
:1049C000C180704701727047022908BFC2607047FA
:1049D00070B50B4D04461C30164601F09AFF29466F
:1049E00004F1280001F0B6FF294604F1340001F07B
:1049F000B1FF2368314620465B69BDE87040184727
:104A000028DE05002DE9F0410C4D04460F461C3010
:104A10002946164601F09EFF394604F1280001F0B0
:104A200078FF294604F1340001F094FF23683146F1
:104A300020465B69BDE8F041184700BF28DE05004D
:104A40002DE9F0410C4D04460F461C302946164610
:104A500001F080FF294604F1280001F07BFF394670
:104A600004F1340001F055FF2368314620465B69AC
:104A7000BDE8F041184700BF28DE05007FB5C36BD5
:104A800004460D4683B10B6801A89B69984701A9AC
:104A900004F1340001F0C0FF064601A801F0ACFEAD
:104AA00016B9002004B070BD636A73B1294601A82D
:104AB000FCF714FF01A904F11C0001F08EFF06466B
:104AC00001A801F099FE002EEBD0236B83B129469B
:104AD00001A8FCF77DFF01A904F1280001F09CFF6B
:104AE000044601A801F088FE201C18BF0120D9E768
:104AF0000120D7E738B5A0220E4D0F4B0360C280CE
:104B0000002301220446037143710272C0E903339A
:104B1000C0E9053329461C3001F0B4FE294604F1F2
:104B2000280001F0AFFE294604F1340001F0AAFE8E
:104B3000204638BD28DE0500F4A8050003688B4236
:104B400008D9436800228A4202D05B680132FAE742
:104B5000186870470020704770B50446406800250B
:104B60002368AB4206D94668082135F0C7FC0135F9
:104B70003046F5E70023C4E90033A36070BD0000B0
:104B800010B50A4B044640F8343B01F035FE04F101
:104B9000280001F031FE04F11C0001F02DFE04F1AB
:104BA0001000FFF7D9FF204610BD00BFF4A8050094
:104BB00010B50446FFF7E4FF2046402135F09EFC87
:104BC000204610BD70B50E4B0546186803680022DC
:104BD0009B6C11460024984705F110066C712B69F7
:104BE0009C4209D221463046FFF7A8FF10B1036866
:104BF0005B6898470134F2E73046FFF7ADFF70BDC0
:104C000094A9050003688B4270B504461AD90022A6
:104C1000406813468A42456803D00346013228465D
:104C2000F8E7066863B96560A268824208BFA360BE
:104C3000082135F063FC2368013B2360304670BDDA
:104C40005D60F1E70026F9E72DE9F041074694B0F1
:104C50000D46002401F110082B699C422AD22146FE
:104C60004046FFF76BFF0646FCF710FF00B33146E6
:104C700001A8FDF783F821464046FFF7C3FF1EB1A8
:104C8000336830465B6898472B6801A9DB6B284680
:104C9000984750B101A93846FDF770F801A8FCF714
:104CA00051FD384614B0BDE8F08101A8FCF74AFD7B
:104CB0000134D1E73846FCF7EDFDF2E72DE9F04F7E
:104CC000C568ABB004460F4692469B469DF8D0801F
:104CD0009DF9D8902DB3032922D11A46514604A834
:104CE000FCF7E8FDCDF80090359B4246394604A814
:104CF000FCF7A6FE236804A9DB6B2046984748B161
:104D000004A917A8E468FDF739F817A8A04717A861
:104D1000FCF718FD04A8FCF715FD2BB0BDE8F08FDB
:104D2000002504F110032269AA420DD9184629462C
:104D30000393FFF703FF5A4651460646FCF770FE01
:104D4000039B002838D0BEB92369042BE5D84C203A
:104D500035F0A2FB5A4651460646FCF7ABFD08204B
:104D600035F09AFB0023C0E90063636933BB6061DF
:104D70002569A0616B1C2361042F22D0CDF800901F
:104D8000359B424639463046FCF75AFE3046FCF722
:104D90007DFE0028C1D0E368002BBED0314604A8B8
:104DA000FCF7ECFF294604F11000FFF72BFF3368F6
:104DB00030465B6898479DE70135B4E7A3695860C2
:104DC000D6E74B46359A41463046FCF74AFEDDE7CA
:104DD00070B446799DF80C409DF9145026B10595A4
:104DE000039470BCFFF76ABF70BC704710B5054CE8
:104DF0002046FFF77FFE2046034A0449BDE81040E5
:104E000035F03BB9F018002000020020814B010072
:104E1000406870474368994208D2836800229142F3
:104E200002D05B680132FAE71868704700207047CB
:104E300073B50446302035F02FFB32490546FDF7A7
:104E400053FB2561542035F027FB0025064614232B
:104E500002222D490095FCF7CBFF6661542035F006
:104E60001BFB02231A46064628490095FCF7C0FFA3
:104E7000A661302035F010FB25490646FDF734FBCE
:104E8000E661542035F008FB2022042321490095D7
:104E90000646FCF7ADFF26622069FCF7CCFE606990
:104EA000FCF7C9FEA069FCF7C6FEE069FCF7C3FE8B
:104EB000206AFCF7C0FED4E90401FDF73CFBA169C0
:104EC0002069FDF738FBD4E90701FDF734FB2368BF
:104ED00011491B69204698472368294620465B698B
:104EE000984723682046DB6A9847236821699B6AB4
:104EF000204698472368E1699B6A204602B0BDE8D6
:104F00007040184738A905003DA9050042A90500D1
:104F100047A905004CA9050051A905004069FCF707
:104F200001BF07B502AB022223F8021D80691946B2
:104F3000FCF798FE03B05DF804FB10B50446084684
:104F4000FCF707FE014628B1236820469B6ABDE8AE
:104F50001040184710BD2DE9F0410025074688464E
:104F60002C463B683846DB699847A84211D93B6814
:104F700029461B6A3846984703689B680646984747
:104F8000B0F5205F02D0464503D0264601353446B1
:104F9000E7E720463CB1FCF74BFE0228204604D14F
:104FA000FCF743FE0088BDE8F081FCF73EFE408937
:104FB000F9E70000054A02600022C0E90122C0E9C9
:104FC0000322C0E90522C0E90722704764A9050051
:104FD00070B50446406800252368AB4206D9466890
:104FE000082135F08BFA01353046F5E70023C4E996
:104FF0000033A36070BD08B50430FFF7E9FF08BDBA
:1050000070B50446002523682046DB699847A8420E
:1050100010D9236829461B6A204698470646FCF7A4
:105020000FFE002804DC1EB1336830465B689847E9
:105030000135E8E7201DFFF7CBFF70BD38B504460A
:10504000054B44F8043B0546FFF7DAFF2046FFF71F
:10505000BFFF284638BD00BF64A9050010B504464F
:10506000FFF7ECFF2046242135F048FA204610BD1A
:1050700038B5044608200D4635F00EFA0023C0E985
:10508000005363682BB960602368A060013323601C
:1050900038BDA3685860F7E72DE9F84F04460D4680
:1050A000084604F10408FCF7C6FD29464046FFF710
:1050B000DFFF23682046DB69984700271FFA80FB43
:1050C0002846FDF728FAB84235D939462846FDF773
:1050D00024FA0646FCF7AFFD31464046FFF7C8FF0D
:1050E00023682046DB69984781B23046FCF72EFEE4
:1050F00031464046FFF7BCFF4FF000093046FCF751
:105100002DFE484515D949463046FCF729FE824612
:10511000FCF791FD51464046FFF7AAFF2368204661
:10512000DB69984781B25046FCF784FF09F1010919
:10513000E4E70137C4E723682046DB69984759460E
:1051400082B22846BDE8F84FFDF7DEB908B5054B39
:105150001846FFF72FFF044A04491846BDE80840E7
:1051600034F08BBF30190020000200203D500100B8
:105170007047000000238360024B186803681B68B7
:10518000184700BF74AA0500024B186803685B68E3
:10519000184700BF74AA0500036800215B6918471F
:1051A00010B403689C6E0023A4461A4640F60341DF
:1051B0005DF8044B604737B5026802AB956E23F883
:1051C000021D022241F205410446A84750B9D4F815
:1051D0001831BDF806201988914203D193F90200D5
:1051E00003B030BD7F20FBE713B502A961E90223BC
:1051F000036808229C6E0B4640F60141A04702B0AE
:1052000010BD10B403689C6E06220B46A44642F201
:1052100005015DF8044B60471FB5089C8DF804300C
:105220009DF818308DF805309DF81C308DF806304B
:105230002368CDF80730A388ADF80B309DF82430F3
:105240008DF80D309DF828308DF80E300368ADF8DC
:105250000010ADF802209C6E0F226B4642F2060150
:10526000A04704B010BD13B502AB026803F8011DDE
:10527000946E42F20A010122A04702B010BD13B59C
:10528000ADF803309DF810308DF805309DF81430DE
:105290008DF8063003688DF80010ADF801209C6E83
:1052A00007226B4642F20B01A04702B010BD13B5B6
:1052B00003688DF804108DF805209C6E022201AB66
:1052C00042F20C01A04702B010BD10B588B00B9C93
:1052D0008DF808309DF828308DF809302368CDF816
:1052E0000A30A388ADF80E309DF830308DF81030BC
:1052F000BDF83430ADF81130BDF83830ADF81330AA
:10530000BDF83C30ADF81530BDF84030ADF8173081
:10531000BDF84430ADF81930BDF84830ADF81B3059
:105320000368ADF80410ADF806209C6E192201AB9D
:1053300042F20D01A04708B010BD10B403689C6E86
:105340000023A4461A4642F20E015DF8044B604762
:105350001FB5ADF80430BDF81830ADF80630BDF813
:105360001C30ADF808300423ADF80A300623ADF840
:105370000C300368ADF80010ADF802209C6E0E22D0
:105380006B4642F21301A04704B010BD13B51323BE
:105390008DF80630026802AB946E23F8041D0322D8
:1053A00040F20641A04702B010BD416070470023A3
:1053B000436070473AB190F81D31934203DD9B1A68
:1053C00080F81D3170470023FAE70000F0B513782C
:1053D000052B87B00546144617D1464BB4F8031089
:1053E0001868527903685B6A9847434BB4F8031016
:1053F000186862790368C9B21B6998473F48012160
:1054000007B0BDE8F040FFF72EBF0E2B0FD1B2F86A
:105410000330A0F80E315379C0F8103153780634B8
:10542000043B80F81431C0F8184107B0F0BD0F2BD1
:1054300009D19388A0F80E319378C0F81031002379
:1054400080F81431F1E7132B10D193780734D61C70
:1054500004EB83040436A642E7D02B6836F8022C0E
:105460001B6F36F8041C28469847F3E73E2BDCD127
:105470009378012B27D1D378002BD6D11D4B277DD4
:105480001868A188D379066802F108059279049713
:10549000678A0397278A0297E789CDE90057F6695B
:1054A000B047154B277D1868A279E379A188066873
:1054B0000497678A0397278A0297E489CDE9005405
:1054C000B468A047B1E7022BAFD1D378012BACD1A0
:1054D000137B0B4A2179106862790568E61896F902
:1054E0000D60029604F10D06CDE90036A31DAD6BEB
:1054F000A8479AE70CA8050004AB05005419002042
:10550000E8A8050010B54FF40871044634F0F6FF22
:10551000204610BD2DE9F843304B04461D6819B1F3
:105520002B6828469B6898472D4FDFF8B8800026E7
:105530002B682846DB68984700284CD02B68284603
:105540005B699847A3685A1C2344C1B2A2601973CF
:10555000237B022B1ED1052AEADD217CE37B03EBB2
:10556000012304339A42E3DD636843B12368D2B276
:10557000D3F87890414604F10C032046C8472368CD
:10558000A168A660DB6E013904F10D02C9B22046A4
:105590009847CDE7042B16D1032AC9DDA37B02333C
:1055A0009A42C5DD636843B12368D2B2D3F87890DC
:1055B000394604F10C032046C847A1682368A66059
:1055C00001395B6FE0E76068A6600028B0D0102268
:1055D00001F018F8ACE7BDE8F88300BF74AA050035
:1055E000D1A90500BEA90500F0B515461688528858
:1055F000AB88111F994287B004464FEA163609D08E
:10560000012E00F58F771FD000F10D0104323846CE
:1056100040F0C8FE6A88AB88043A9A4212D1E88802
:10562000298883B2042BC1F30B011ED1204B1868CB
:105630000368012E1D6AD2B20CBF04F5937304F106
:105640001503A84707B0F0BDB0F8200100F5917030
:1056500004F11101204440F0A5FE6A88B4F820311D
:105660001344A4F820313D46D4E7052B07D1114B54
:1056700018680368D2B2DD6804F11503E1E700227F
:105680000392ADF8142001228DF80C200622ADF80B
:105690000E20022203ABADF8102022680093ADF873
:1056A0001200956D0A2305222046A847CAE700BFCD
:1056B0000CA8050004AB0500F0B5202589B0044610
:1056C0000E46174600212A46684640F069FF3246DA
:1056D00039460DF101008DF8006040F063FE23684B
:1056E0002A469E6E42F208016B462046B04709B03A
:1056F000F0BDF0B5202589B004460E4617460021BE
:105700002A46684640F04CFF324639460DF101000A
:105710008DF8006040F046FE23682A469E6E42F2F5
:1057200009016B462046B04709B0F0BD2DE9F047AE
:10573000044600AF8A4691461D4694F81D2194F810
:105740001C319A4204D3236820461B699847F4E72A
:1057500005F1100303F4FC73ADEB030D02238DF888
:1057600000302B1DDBB22A46396AADF803300DF14B
:105770000900ADF801A0ADF80550ADF8079040F074
:1057800011FE636805F10906E84633B123680B4949
:105790009D6FF2B26B462046A84794F81D31013345
:1057A00084F81D31064B1868036832469B694146F0
:1057B00098470020BD46BDE8F08700BF98A90500C6
:1057C00074AA05002DE9F0430D46114683B00B3154
:1057D00001F4FC7100AF0446ADEB010D01203871FE
:1057E000A7F80550FA716846796840F8041B194615
:1057F000161D40F0D7FD6368E8463BB123681649A3
:10580000D3F87890F2B26B462046C847134B18681D
:10581000036832469B69414698474FF6FF73A4F8E8
:105820000E314FF0FF33C4F8103100F055FD00F594
:105830007A76B4F80E31AB4208D000F04DFDB0429C
:1058400004D2236820461B699847F2E7D4F8100178
:105850000C37BD46BDE8F083ABA9050074AA05006E
:105860002DE9F0411D460368D3F8688000230F46F8
:10587000164641F201011A460446C04770B9D4F8F1
:1058800018311A783A70B3F801203280DA782A7029
:10589000069A99881180DA88079B1A80BDE8F08102
:1058A000F8B503689D6E00230E46174642F20201CA
:1058B0001A460446A847054678B9D4F818311A881C
:1058C00032809B783B7084F81C31054B3188186816
:1058D000036809399B6889B298472846F8BD00BF1C
:1058E0000CA8050070B503689E6E00230C461A468E
:1058F00041F209010546B04728B9D5F818311A68B0
:1059000022609B88A38070BD2DE9F0410546406868
:1059100016461C46E8B100F0FBFD013CDFF838807C
:105920002644A64268680CD014F8017F0F2F02D8D5
:10593000414600F0EDFD10223946686800F060FE37
:10594000EFE700F0EDFD68680368BDE8F041DB6853
:105950001847BDE8F08100BFD4AA05000548064BF2
:105960000360064A06490023C0E9013380F81D316F
:1059700034F083BB54190020ECA90500000200207C
:10598000715101007047D0F810017047D0F8103104
:1059900023B1D0F80C311844007A70474FF0FF3033
:1059A0007047D0F8103183B1D0F80C3103441A7A23
:1059B000D0F80C310133DBB2C0F80C31D0F8103123
:1059C000013BC0F81031104670474FF0FF30704770
:1059D0000368184710B54FF48A71044634F08EFD01
:1059E000204610BD2DE9F04F89B002A803F080FBDE
:1059F00002A803F003FB0024002542F20F7A4FF0C7
:105A0000000B02A803F047FB24184D4102A803F045
:105A10004CFB42F210720023204629463EF0D6F994
:105A200050B115F08FFB204629464FF47A720023BF
:105A30003EF0CCF914461D4615F05CFD01A833F08C
:105A400015FA15F04DFD064601A833F017FA02A825
:105A500003F021FB002ED4D08B4508BF8245D0D364
:105A600042F21076361A4FF0000767EB01074FF449
:105A70007A720023304639463EF0A8F94FF47A7224
:105A8000804689463046394600233EF09FF91F463E
:105A900058EA0903164602D0404637F0C3F956EAE1
:105AA0000703AED0304634F041FEAAE738B50A4CC1
:105AB0000546206840B137F081FA206810B10368CC
:105AC0005B6898470023236031F0F0FA05F0FCFA98
:105AD00000232B7138BD00BF9C1C002010B503684B
